:020000040800F2
:100000000050002059120008B9020008BB02000885
:10001000BD020008BF020008C10200080000000085
:10002000000000000000000000000000C302000803
:10003000C502000800000000C7020008C90200084D
:10004000A1120008A1120008A1120008A1120008C4
:10005000A1120008A1120008A1120008A1120008B4
:10006000A1120008A1120008A1120008A1120008A4
:10007000A1120008A1120008A1120008A112000894
:10008000A1120008A1120008A1120008A112000884
:10009000A1120008A1120008A1120008A112000874
:1000A000A1120008A1120008A1120008A112000864
:1000B000A1120008A1120008A1120008A112000854
:1000C000A1120008A1120008A1120008A112000844
:1000D000A1120008A1120008A1120008A112000834
:1000E000A1120008A1120008A112000800000000DF
:1000F0000000000000000000000000000000000000
:0C01000000000000000000005FF808F1A3
:10010C0010B5054C237833B9044B13B10448AFF345
:10011C0000800123237010BDE001002000000000CE
:10012C002C17000808B5034B1BB103490348AFF368
:10013C00008008BD00000000E40100202C1700081E
:10014C00FEE7000000B591B00223069301230A9349
:10015C0010230B9300230D9306A800F091FBF0B92C
:10016C000F2301930021029103910491059101A8A1
:10017C0000F0ACFDB8B900F065FE0D4BA3FB0030F0
:10018C00800900F0BFFF042000F0D2FF00221146CE
:10019C004FF0FF3000F082FF11B05DF804FB5C21E2
:1001AC000448FFF7CDFF6A210248FFF7C9FF00BFE3
:1001BC00D34D62105817000810B586B0144B9A69CD
:1001CC0042F010029A619A6902F010020092009AB1
:1001DC009A6942F004029A619B6903F0040301934B
:1001EC00019B0C4C00224FF40051204600F03AFFCA
:1001FC004FF400530293012303930023049302232F
:10020C00059302A9204600F043FE06B010BD00BFC6
:10021C00001002400010014008B50B480B4B036066
:10022C004FF4E133436000238360C36003610C220D
:10023C0042618361C36100F09EF900B908BD42219F
:10024C000348FFF77DFFF9E7080200200044004057
:10025C00641700080268134B9A4200D0704710B51F
:10026C0086B003F5E633DA6942F40032DA61DB6911
:10027C0003F400330193019B0423029302230393A1
:10028C0003230593084C02A9204600F001FE082325
:10029C00029300230393049302A9204600F0F8FD77
:1002AC0006B010BD00440040000801407047FEE756
:1002BC00FEE7FEE7FEE770477047704708B500F0B1
:1002CC00A3FA00F046FF08BD00B583B0244B9A6931
:1002DC0042F001029A619A6902F001020092009ABE
:1002EC00DA6942F08052DA61DB6903F080530193E2
:1002FC00019B032000F0C0FE002211466FF00B00A2
:10030C0000F0CCFE002211466FF00A0000F0C6FE91
:10031C00002211466FF0090000F0C0FE00221146C9
:10032C006FF0040000F0BAFE002211466FF00300DB
:10033C0000F0B4FE002211466FF0010000F0AEFE9A
:10034C00002211464FF0FF3000F0A8FE054A53681A
:10035C0023F0E06343F00073536003B05DF804FBDB
:10036C0000100240000001402DE9F84305460268E8
:10037C00136923F44053C1680B431361836802690A
:10038C001343426913430168CA6822F4B05222F045
:10039C000C021343CB600268536923F440738169E8
:1003AC000B4353610268594B9A4257D000F050FDF1
:1003BC0000EB800000EB80006C68A400B0FBF4F450
:1003CC00534FA7FB04346409260100F041FD00EBF8
:1003DC00800000EB80006C68A400B0FBF4F900F026
:1003EC0037FD00EB800000EB80006C68A400B0FBD4
:1003FC00F4F4A7FB043464094FF0640808FB14946C
:10040C0024013234A7FB0434640904F0F0043444AE
:10041C0000F01EFD00EB800000EB80006E68B60063
:10042C00B0FBF6F600F014FD00EB800000EB800052
:10043C006B689B00B0FBF3F0A7FB0030400908FB96
:10044C0010684FEA081808F13208A7FB0837C7F301
:10045C0043172B6827449F60BDE8F88300F008FD24
:10046C0000EB800000EB80006C68A400B0FBF4F49F
:10047C00274FA7FB04346409260100F0F9FC00EBBC
:10048C00800000EB80006C68A400B0FBF4F900F075
:10049C00EFFC00EB800000EB80006C68A400B0FB6C
:1004AC00F4F4A7FB043464094FF0640808FB1494BB
:1004BC0024013234A7FB0434640904F0F0043444FE
:1004CC0000F0D6FC00EB800000EB80006E68B600FC
:1004DC00B0FBF6F600F0CCFC00EB800000EB8000EB
:1004EC006B689B00B0FBF3F0A7FB0030400908FBE6
:1004FC0010684FEA081808F13208A7FB0837C7F351
:10050C0043172B6827449F60A6E700BF00380140C3
:10051C001F85EB512DE9F04105460F4616469846CE
:10052C00069C2B681B6837EA03030CBF01230023CE
:10053C00B3421DD1B4F1FF3FF3D02CB100F070F9F0
:10054C00A0EB0800A042ECD92A68D36823F4D0733E
:10055C00D3602A68536923F001035361202385F883
:10056C00393085F83A30002385F83830032000E024
:10057C000020BDE8F08158B310B5044690F839302E
:10058C000BB3242384F839302268D36823F4005346
:10059C00D3602046FFF7E8FE2268136923F49043EA
:1005AC0013612268536923F02A0353612268D368CC
:1005BC0043F40053D3600020E063202384F83930E7
:1005CC0084F83A3010BD80F83830FFF743FED8E796
:1005DC00012070472DE9F04182B01E4690F8393069
:1005EC00DBB2202B55D104460D469046002955D040
:1005FC00002A55D090F83830012B53D0012380F8C5
:10060C0038300023C363212380F8393000F008F917
:10061C000746A4F82480A4F8268010E000963B46F8
:10062C00002280212046FFF775FF00283CD12B8843
:10063C002268C3F3080353602369C3B90235E38C02
:10064C009BB2B3B1E38C013B9BB2E384A368B3F5DB
:10065C00805FE3D000963B46002280212046FFF7C6
:10066C0059FF18BB2A7823685A600135E7E7013532
:10067C00E5E700963B46002240212046FFF74AFF63
:10068C000346A8B9202284F83920002284F83820A7
:10069C0000E00223184602B0BDE8F0810123F9E71F
:1006AC000123F7E70223F5E70323F3E70323F1E73D
:1006BC000323EFE72DE9F04182B01E4690F83A3063
:1006CC00DBB2202B5AD104460D469046002959D056
:1006DC00002A59D090F83830012B57D0012380F8DC
:1006EC0038300023C363222380F83A3000F098F8A6
:1006FC000746A4F82C80A4F82E801DE000963B46FB
:10070C00002220212046FFF705FF002840D1236955
:10071C0033B923685B68C3F3080325F8023B0BE08D
:10072C0023685B68DBB225F8013B05E023685B6856
:10073C0003F07F032B700135E38D9BB2BBB1E38DCE
:10074C00013B9BB2E385A368B3F5805FD6D00096DE
:10075C003B46002220212046FFF7DCFED0B923695E
:10076C00002BE3D123685B682B700135E4E7202371
:10077C0084F83A30002084F8380000E0022002B0FF
:10078C00BDE8F0810120FAE70120F8E70220F6E746
:10079C000320F4E70320F2E710B504460E4B18785B
:1007AC004FF47A73B3FBF0F30C4A1068B0FBF3F020
:1007BC0000F0A8FC68B90F2C01D901200AE0002236
:1007CC0021464FF0FF3000F069FC054B1C60002007
:1007DC0000E0012010BD00BF000000200800002038
:1007EC000400002008B5074A136843F01003136097
:1007FC00032000F041FC0020FFF7CEFFFFF764FD63
:10080C00002008BD00200240034A1168034B1B78EE
:10081C000B441360704700BF48020020000000200A
:10082C00014B1868704700BF4802002038B50446D9
:10083C00FFF7F6FF0546B4F1FF3F02D0044B1B78DF
:10084C001C44FFF7EDFF401BA042FAD338BD00BF9C
:10085C000000002082B0084B1B68084AA2FB03234F
:10086C005B0A00FB03F0019000BF019B5A1E019232
:10087C00002BF9D102B0704708000020D34D621054
:10088C0070B582B00446036813F0010F2CD0AB4B4B
:10089C005B6803F00C03042B1DD0A84B5B6803F0C2
:1008AC000C03082B12D06368B3F5803F41D0002BAA
:1008BC0055D103F1804303F504331A6822F48032D6
:1008CC001A601A6822F480221A6037E09B4B5B682E
:1008DC0013F4803FE7D0994B1B6813F4003F03D00F
:1008EC006368002B00F0AE81236813F0020F76D002
:1008FC00924B5B6813F00C0F5FD0904B5B6803F06E
:10090C000C03082B54D02369002B00F08A808C4BED
:10091C0001221A60FFF784FF0546884B1B6813F011
:10092C00020F75D1FFF77CFF401B0228F5D903207D
:10093C008BE1824A136843F480331360636843B3DA
:10094C00FFF76EFF05467D4B1B6813F4003FCBD1C0
:10095C00FFF766FF401B6428F5D9032075E1B3F55A
:10096C00A02F09D0754B1A6822F480321A601A68CD
:10097C0022F480221A60E1E703F18043A3F53C33B3
:10098C001A6842F480221A601A6842F480321A60A3
:10099C00D4E7FFF745FF0546684B1B6813F4003F8F
:1009AC00A2D0FFF73DFF401B6428F5D903204CE192
:1009BC00624B5B6813F4803FA5D1604B1B6813F04E
:1009CC00020F04D02369012B01D001203DE15B4AC9
:1009DC00136823F0F803616943EAC10313602368C9
:1009EC0013F0080F32D0A369002B5BD0554B0122BA
:1009FC001A60FFF715FF0546504B5B6A13F0020FA8
:100A0C0021D1FFF70DFF401B0228F5D903201CE173
:100A1C004A4A136823F0F803616943EAC10313607F
:100A2C00DDE7474B00221A60FFF7FAFE0546434B01
:100A3C001B6813F0020FD2D0FFF7F2FE401B022806
:100A4C00F5D9032001E10120FFF704FF236813F01F
:100A5C00040F00F09780394BDB6913F0805F33D1C2
:100A6C00364BDA6942F08052DA61DB6903F080536D
:100A7C000193019B0125344B1B6813F4807F25D017
:100A8C00E368012B36D0002B4CD103F1804303F5E6
:100A9C0004331A6A22F001021A621A6A22F0040262
:100AAC001A622CE0274B00221A60FFF7B9FE0546AC
:100ABC00224B5B6A13F0020FC8D0FFF7B1FE401B4C
:100ACC000228F5D90320C0E00025D4E71E4A13689C
:100ADC0043F480731360FFF7A3FE06461A4B1B68A2
:100AEC0013F4807FCCD1FFF79BFE801B6428F5D9D3
:100AFC000320AAE0114A136A43F001031362E3686E
:100B0C0073B3FFF78DFE06460C4B1B6A13F0020FF6
:100B1C0037D1FFF785FE801B41F288339842F3D919
:100B2C00032092E0052B11D0044B1A6A22F001022B
:100B3C001A621A6A22F004021A62E0E700100240FC
:100B4C00000042428004424200700040414B1A6A4D
:100B5C0042F004021A621A6A42F001021A62CEE7EB
:100B6C00FFF75EFE06463B4B1B6A13F0020F08D0E4
:100B7C00FFF756FE801B41F288339842F3D90320CD
:100B8C0063E0E5B9E369002B5ED0324A526802F0AB
:100B9C000C02082A5BD0022B17D02F4B00221A60B4
:100BAC00FFF73EFE04462B4B1B6813F0007F47D02B
:100BBC00FFF736FE001B0228F5D9032045E0254A35
:100BCC00D36923F08053D361DCE7234B00221A60F6
:100BDC00FFF726FE05461F4B1B6813F0007F06D05F
:100BEC00FFF71EFE401B0228F5D903202DE0236AD7
:100BFC00B3F5803F1AD017494B6823F47413226A5B
:100C0C00606A024313434B60134B01221A60FFF7D7
:100C1C0007FE04460F4B1B6813F0007F0ED1FFF745
:100C2C00FFFD001B0228F5D903200EE0094A53688A
:100C3C0023F40033A1680B435360DCE7002004E08D
:100C4C00002002E0012000E0002002B070BD012075
:100C5C00FBE700BF001002406000424210B487B0B6
:100C6C00164C94E80F000DF1180C0CE90F00238AB8
:100C7C00ADF80430124B5B6803F00C02082A1AD151
:100C8C00C3F38342624412F8102C13F4803F05D155
:100C9C000C4800FB02F007B010BC7047084B5B68B7
:100CAC00C3F34043634413F8143C074800FB02F0C1
:100CBC00B0FBF3F0EFE70448EDE700BF4417000882
:100CCC000010024000093D0000127A00594B1B68CD
:100CDC0003F007038B420CD2564A136823F0070328
:100CEC000B431360136803F007038B4201D0012000
:100CFC00704770B5036813F0020F06D04E4A536864
:100D0C0023F0F0038468234353600C4605460368C4
:100D1C0013F0010F52D04368012B23D0022B28D0A3
:100D2C00454A126812F0020F00F0828042494A686C
:100D3C0022F0030213434B60FFF772FD06466B680B
:100D4C00012B1DD0022B2AD03B4B5B6813F00C0FF0
:100D5C0034D0FFF765FD801B41F288339842F3D9FC
:100D6C00032064E0344A126812F4003FDED1012003
:100D7C005DE0314A126812F0007FD7D1012056E0B5
:100D8C002D4B5B6803F00C03042B17D0FFF748FDC9
:100D9C00801B41F288339842F2D9032047E0264B5E
:100DAC005B6803F00C03082B08D0FFF739FD801BA0
:100DBC0041F288339842F2D9032038E01D4B1B686E
:100DCC0003F00703A3420CD91A4A136823F0070354
:100DDC0023431360136803F00703A34201D00120DF
:100DEC0025E02B6813F0040F06D0134A536823F444
:100DFC00E063E9680B4353602B6813F0080F07D0CE
:100E0C000D4A536823F46053296943EAC1035360C4
:100E1C00FFF724FF084B5B68C3F30313074AD35C4B
:100E2C00D840074B18600020FFF7B6FC002070BDBF
:100E3C000120FCE70020024000100240701700085F
:100E4C0008000020014B1868704700BF0800002004
:100E5C0008B5FFF7F7FF044B5B68C3F30223034AA3
:100E6C00D35CD84008BD00BF0010024080170008BA
:100E7C0008B5FFF7E7FF044B5B68C3F3C223034AD3
:100E8C00D35CD84008BD00BF00100240801700089A
:100E9C00F0B482B000263546A1E0002C59D0012CCC
:100EAC0000D1CE68FF2B68D88446FF2B68D8AC00E5
:100EBC00DCF800200F27A74022EA070206FA04F408
:100ECC002243CCF800204A6812F0805F00F0868044
:100EDC005E4A946944F001049461926902F0010243
:100EEC000192019AAC08A71C594A52F8272005F028
:100EFC000307BF004FF00F0C0CFA07FC22EA0C0C96
:100F0C00544A904242D002F5806290427FD002F562
:100F1C00806290427DD002F58062904234D00422EF
:100F2C0035E04D4FBC4214D00BD94C4FBC4210D0C5
:100F3C0007F58037BC420CD0A7F58017BC42B1D165
:100F4C0007E0A7F58017BC4203D007F58037BC42F9
:100F5C00A8D18C687CB1012C08D042610826A1E78D
:100F6C00CE6808369EE7CE680C369BE702610826F1
:100F7C0098E7002696E7042694E700F1040C94E722
:100F8C00A5F10804A40093E7032200E00022BA4074
:100F9C0042EA0C0202342E4F47F824204A6812F41D
:100FAC00803F38D02E4C22681A4322604A6812F4D3
:100FBC00003F36D02A4C62681A4362604A6812F4C9
:100FCC00801F34D0264CA2681A43A2604A6812F4DF
:100FDC00001F32D0224CE2681343E36001350F2D21
:100FEC0031D80122AA400B6813409A42F6D14C68C2
:100FFC00122CB8D095D8022CB2D07FF64EAF032C61
:10100C00B7D0112C7FF44EAFCE6804364AE70122DC
:10101C00BDE70222BBE7124C226822EA03022260DF
:10102C00C4E70F4C626822EA03026260C6E70C4C0C
:10103C00A26822EA0302A260C8E7094CE26822EA2D
:10104C000303E360CAE702B0F0BC70470010024033
:10105C000000014000080140000021100000311088
:10106C000004014012B90904016170470161704725
:10107C00C3685940C1607047074AD36823F4E063E2
:10108C001B041B0C000200F4E060184340F0BF602E
:10109C0040F40030D060704700ED00E030B4174BE6
:1010AC00DB68C3F30223C3F10704042C28BF042418
:1010BC001D1D062D18D9033B4FF0FF3505FA04F41E
:1010CC0021EA0401994005FA03F322EA03031943C8
:1010DC0000280BDB0901C9B200F1604000F561404A
:1010EC0080F8001330BC70470023E5E700F00F00D8
:1010FC000901C9B2024B1954F4E700BF00ED00E03E
:10110C0014ED00E00138B0F1807F0AD2064B586034
:10111C00064AF02182F823100020986007221A60FA
:10112C0070470120704700BF10E000E000ED00E0C8
:10113C00042805D0054A136823F004031360704794
:10114C00024A136843F004031360704710E000E098
:10115C00704708B5FFF7FCFF08BD00000F4B1A687D
:10116C0042F001021A6059680D4A0A405A601A6826
:10117C0022F0847222F480321A601A6822F48022DF
:10118C001A605A6822F4FE025A604FF41F029A60E9
:10119C00044B4FF000629A60704700BF0010024091
:1011AC000000FFF800ED00E010B5044600F0DAF89E
:1011BC0090FBF4F304FB130010BD000008B5FFF71F
:1011CC0011FBFEF7BFFFFEF7F7FFFFF725F8002036
:1011DC0000F08EF900F0A2F802E00220FFF726FBE7
:1011EC000920FFF7E1FFC0B2124C2070124D0A2209
:1011FC00294600F091F8114E4FF0FF330122294699
:10120C003046FFF7E7F90E4D4FF0FF330122294628
:10121C003046FFF74FFA284600F03DF8C0B2094BB4
:10122C00187023789842D8D14FF400510648FFF734
:10123C001FFFD2E74C0200205002002008020020C1
:10124C00540200200C00002000100140002103E09B
:10125C000B4B5B58435004310A480B4B42189A42D3
:10126C00F6D30A4A02E0002342F8043B084B9A42A8
:10127C00F9D3FFF773FF00F013F8FFF79FFF7047E8
:10128C00C018000800000020E0010020E001002050
:10129C005C020020FEE70A22002100F013B90000D6
:1012AC0070B500250C4E0D4CA41BA410A54209D101
:1012BC0000F036FA00250A4E0A4CA41BA410A542D5
:1012CC0005D170BD56F8253098470135EEE756F834
:1012DC00253098470135F2E7B8180008B81800080F
:1012EC00B8180008BC180008931E222B10B50C4629
:1012FC0004D900231C460B70204610BD0A2A09D1C4
:10130C00002807DA2D230B7001214042214400F004
:10131C0009F9F1E70021F9E7FFF7E6BF38B50D4B06
:10132C0005461C68A36B7BB9182000F04FF90A4ADC
:10133C000A4BA063C0E90023094B012283600B23F5
:10134C0083810023C0E904230022A36B1D615A6131
:10135C0038BD00BF100000200E33CDAB34126DE64B
:10136C00ECDE050038B5134B1C68A36B7BB9182059
:10137C0000F02CF9104A114BA063C0E90023104B6C
:10138C00012283600B2383810023C0E90423A16B1A
:10139C000C480A694B6950430B4C04FB0300A2FB3D
:1013AC0004230344541C43F10005C1E9044525F012
:1013BC00004038BD100000200E33CDAB34126DE66A
:1013CC00ECDE05002DF451582D7F954C2DE9F0479E
:1013DC008046894692461E460F463D46089815F8AB
:1013EC00014B00F0EFF82044437813F0080332D19E
:1013FC002D2C32D101227C78BD1C002E5DD0102EFC
:10140C0009D1302C07D12B7803F0DF03582B4FD1A7
:10141C0010266C780235002A14BF4FF000416FF093
:10142C0000410027B1FBF6FC384606FB1C1EA4F15C
:10143C003003092B17D81C46A64223DD7B1C07D092
:10144C0084451CD301D1A64519DB012700FB0640BE
:10145C0015F8014BEBE72F46BFE72B2C04BFBD1C47
:10146C007C781A46C9E7A4F14103192B01D8373C03
:10147C00E2E7A4F16103192B04D8573CDCE74FF0E9
:10148C00FF37E5E77B1C08D122230846C8F800305B
:10149C00BAF1000F07D1BDE8F08702B14042BAF1B2
:1014AC00000FF8D00FB105F1FF39CAF80090F2E740
:1014BC003024002EAFD10826ADE7302CA3D00A265D
:1014CC00A9E70000084B37B51C68084D236A002BB0
:1014DC0008BF2B46009313460A4601462046FFF7E9
:1014EC0075FF03B030BD00BF100000207400002059
:1014FC001FB50B4B044600226946186800F050F8E3
:10150C00002805DA4FF0FF324FF0FF33CDE900230E
:10151C00DDE900010CB1C4E9000104B010BD00BF4D
:10152C0010000020F0B58BB005460C466E461B4BE8
:10153C0003F1200C374618685968083303C7634514
:10154C003E46F7D118681B7938603B71931E222BED
:10155C004FF0000304D923701C4620460BB0F0BD9D
:10156C00661EB5FBF2F002FB10550AAF3D4415F8B0
:10157C00285C591C06F8015F054668B92246605480
:10158C002344191B101B8142E7DD1178187802F8EF
:10159C00010B03F80119F4E70B46E2E78817000882
:1015AC0038B50023064C054608461146236000F06A
:1015BC00A1F8431C02D1236803B12B6038BD00BFD6
:1015CC0058020020D0F8EC0070470000024B014696
:1015DC00186800F015B800BF1000002082B001B9E7
:1015EC0001A942B14BB113780B601278101C18BFD3
:1015FC00012002B070471046FBE76FF00100F8E7DE
:10160C0070B5CD1C25F0030508350C2D38BF0C2505
:10161C00002D064601DBA94203D90C2333600020C0
:10162C0070BD00F064F8214A1468214691B9204C31
:10163C0023681BB9304600F03DF82060294630463F
:10164C0000F038F8431C24D10C233046336000F0F2
:10165C004FF8E4E70B685B1B18D40B2B0FD90B600E
:10166C00CC18CD50304600F043F804F10B00231D8C
:10167C0020F00700C31AD3D05A42E250D0E74B688F
:10168C008C4216BF636013600C46EBE70C4649684E
:10169C00CCE7C41C24F00304A04205D0211A304628
:1016AC0000F008F80130CFD02560DBE7FC0100200A
:1016BC000002002038B50023054C0546084623607F
:1016CC0000F020F8431C02D1236803B12B6038BD15
:1016DC005802002049B1FF2A8BBF8A230A7003608D
:1016EC00012088BF4FF0FF307047084670477047A5
:1016FC00704700005822024B4FF0FF301A607047C1
:10170C0058020020044A05491368002B08BF0B46F9
:10171C001844106018467047040200206002002034
:10172C00F8B500BFF8BC08BC9E467047F8B500BFC2
:08173C00F8BC08BC9E46704792
:1017440002030405060708090A0B0C0D0E0F1010FE
:10175400010200005372632F6D61696E2E630000F5
:101764005372632F75736172742E6300000000005E
:10177400000000000102030406070809000000003D
:10178400010203043031323334353637383961627B
:10179400636465666768696A6B6C6D6E6F7071729D
:1017A400737475767778797A004300504F534958AB
:1017B400002E00002020202020202020202828285F
:1017C4002828202020202020202020202020202005
:1017D400202020208810101010101010101010104D
:1017E400101010100404040404040404040410106D
:1017F400101010101041414141414101010101010A
:1018040001010101010101010101010101010110B5
:1018140010101010104242424242420202020202DE
:101824000202020202020202020202020202021086
:101834001010102000000000000000000000000054
:101844000000000000000000000000000000000094
:101854000000000000000000000000000000000084
:101864000000000000000000000000000000000074
:101874000000000000000000000000000000000064
:101884000000000000000000000000000000000054
:101894000000000000000000000000000000000044
:1018A4000000000000000000000000000000000034
:0418B4000000000030
:0418B80031010008F2
:0418BC000D01000812
:1018C000010000001000000000A24A04090000000E
:1018D00014000020000000000000000000000000D4
:1018E00000000000000000000000000000000000F8
:1018F00000000000000000000000000000000000E8
:1019000000000000000000000000000000000000D7
:1019100000000000000000000000000000000000C7
:1019200000000000000000000000000000000000B7
:101930000000000043000000000000000000000064
:101940000000000000000000000000000000000097
:101950000000000043000000000000000000000044
:101960000000000000000000000000000000000077
:101970000000000043000000000000000000000024
:101980000000000000000000000000000000000057
:101990000000000043000000000000000000000004
:1019A0000000000000000000000000000000000037
:1019B00000000000430000000000000000000000E4
:1019C0000000000000000000000000000000000017
:1019D00000000000430000000000000000000000C4
:1019E00000000000000000000000000000000000F7
:1019F00000000000430000000000000000000000A4
:101A000000000000000000000000000000000000D6
:101A100000000000E1160008E915000800000000C1
:101A2000B7170008B5170008B6170008B617000862
:101A3000B6170008B6170008B6170008B617000852
:101A4000B6170008B6170008B6170008FFFFFFFF1B
:101A5000FFFFFFFFFFFFFFFFFFFF000001004153FB
:101A600043494900000000000000000000000000A1
:101A700000000000000000000000000000004153D2
:101A80004349490000000000000000000000000081
:101A90000000000000000000000000000000000046
:040000050800125984
:00000001FF
