:020000040800F2
:1000000000500020F51700082D0300082F030008FA
:100010003103000833030008350300080000000026
:10002000000000000000000000000000370300088E
:1000300039030008000000003B0300083D030008EE
:100040003D1800083D1800083D1800083D1800083C
:100050003D1800083D1800083D1800083D1800082C
:100060003D1800083D1800083D1800083D1800081C
:100070003D1800083D1800083D1800083D1800080C
:100080003D180008490300083D1800083D18000805
:100090003D1800083D1800083D1800083D180008EC
:1000A0003D1800083D1800083D1800083D180008DC
:1000B0003D1800083D1800083D1800083D180008CC
:1000C0003D1800083D1800083D1800083D180008BC
:1000D0003D1800083D1800083D1800083D180008AC
:1000E0003D1800083D1800083D18000800000000F9
:1000F0000000000000000000000000000000000000
:0C01000000000000000000005FF808F1A3
:10010C0010B5054C237833B9044B13B10448AFF345
:10011C0000800123237010BD0C00002000000000A3
:10012C008818000808B5034B1BB103490348AFF30B
:10013C00008008BD00000000100000208818000896
:10014C00FEE7000000B591B00223069301230A9349
:10015C0010230B9300230D9306A800F03BFBF0B982
:10016C000F2301930021029103910491059101A8A1
:10017C0000F0F8FDB8B900F015FF0D4BA3FB0030F3
:10018C00800901F0B7FA042001F0CAFA00221146E6
:10019C004FF0FF3001F052FA11B05DF804FB8B21E7
:1001AC000448FFF7CDFF99210248FFF7C9FF00BFB4
:1001BC00D34D6210B418000808B500F0BDFAFFF773
:1001CC00C1FF00F013F801F0F5FA00F03FF84FF41E
:1001DC000051044801F0B6F84FF4FA7000F0D0FA70
:1001EC00F5E700BF001001407047000010B586B065
:1001FC00144B9A6942F010029A619A6902F010024B
:10020C000092009A9A6942F004029A619B6903F089
:10021C0004030193019B0C4C00224FF40051204627
:10022C0001F074F84FF4005302930123039300235D
:10023C0004930223059302A9204600F0D9FE06B0D0
:10024C0010BD00BF001002400010014008B50B4863
:10025C000B4B03604FF4E133436000238360C360B6
:10026C0003610C2242618361C36100F0C9F900B9DA
:10027C0008BD44210348FFF763FFF9E76C00002039
:10028C0000440040C01800080268204B9A4200D07D
:10029C00704770B586B0044603F5E633DA6942F46C
:1002AC000032DA61DB6903F400330193019B042310
:1002BC0002930223039303230593154E02A93046A0
:1002CC0000F096FE082302930025039504950DEB90
:1002DC000301304600F08CFE0E480F4B03601023D8
:1002EC00436085608023C360056145618561C5619C
:1002FC0001F038F820B9074B23635C6206B070BD7F
:10030C006F210648FFF71CFFF5E700BF00440040D3
:10031C00000801402800002080000240C01800089E
:10032C007047FEE7FEE7FEE7FEE770477047704751
:10033C0008B500F013FA01F012FA08BD08B502482E
:10034C0001F0BCF808BD00BF2800002000B583B048
:10035C00244B9A6942F001029A619A6902F00102F7
:10036C000092009ADA6942F08052DA61DB6903F09C
:10037C0080530193019B032001F042F900221146A6
:10038C006FF00B0001F05AF9002211466FF00A00D1
:10039C0001F054F9002211466FF0090001F04EF9FA
:1003AC00002211466FF0040001F048F900221146BA
:1003BC006FF0030001F042F9002211466FF00100CA
:1003CC0001F03CF9002211464FF0FF3001F036F9F4
:1003DC00054A536823F0E06343F00073536003B0A5
:1003EC005DF804FB00100240000001402DE9F843C9
:1003FC00044642687E4B9A4200F29180E3681BB13E
:10040C00B3F5005F40F09180236933B1B3F5806F91
:10041C0003D0B3F5C06F40F08E8063694FF6F37272
:10042C00134200D123B940F6AA117248FFF7DCFE43
:10043C002268136923F44053E1680B431361A368EA
:10044C0022691343626913432168CA6822F4B052CB
:10045C0022F00C021343CB602268536923F44073DF
:10046C00A1690B4353612268634B9A4269D000F037
:10047C009FFD00EB800000EB80006568AD00B0FBD9
:10048C00F5F55E4FA7FB05356D092E0100F090FDCB
:10049C0000EB800000EB80006568AD00B0FBF5F967
:1004AC0000F086FD00EB800000EB80006568AD007D
:1004BC00B0FBF5F5A7FB05356D094FF0640808FB9B
:1004CC0015952D013235A7FB05356D0905F0F005A5
:1004DC00354400F06DFD00EB800000EB8000666899
:1004EC00B600B0FBF6F600F063FD00EB800000EB0D
:1004FC00800063689B00B0FBF3F0A7FB0030400961
:10050C0008FB10684FEA081808F13208A7FB0837F7
:10051C00C7F3431723682F449F60BDE8F88340F668
:10052C00A7113448FFF760FE68E740F6A811314880
:10053C00FFF75AFE68E740F6A9112E48FFF754FE64
:10054C006BE700F045FD00EB800000EB8000656878
:10055C00AD00B0FBF5F5294FA7FB05356D092E0154
:10056C0000F036FD00EB800000EB80006568AD000C
:10057C00B0FBF5F900F02CFD00EB800000EB8000E7
:10058C006568AD00B0FBF5F5A7FB05356D094FF0BF
:10059C00640808FB15952D013235A7FB05356D094F
:1005AC0005F0F005354400F013FD00EB800000EB86
:1005BC0080006668B600B0FBF6F600F009FD00EBB3
:1005CC00800000EB800063689B00B0FBF3F0A7FB9E
:1005DC000030400908FB10684FEA081808F132088F
:1005EC00A7FB0837C7F3431723682F449F6094E792
:1005FC0020AA4400CC180008003801401F85EB519C
:10060C0000286CD010B5044683690BB30368354AD7
:10061C0093420CD0A2F57442934208D002F580624A
:10062C00934204D040F20F112F48FFF7DDFDA36970
:10063C00FBB1B3F5807F1CD0B3F5007F19D0B3F5B7
:10064C00407F16D04FF488712748FFF7CDFD10E09E
:10065C000368244A93420CD0A2F57442934208D00A
:10066C0002F58062934204D04FF48A711E48FFF762
:10067C00BBFDA36813B1B3F5805F24D194F8393076
:10068C003BB3242384F839302268D36823F4005315
:10069C00D3602046FFF7AAFE2268136923F4904327
:1006AC0013612268536923F02A0353612268D368CB
:1006BC0043F40053D3600020E063202384F83930E6
:1006CC0084F83A3010BD4FF48B710748FFF78CFD5E
:1006DC00D4E784F838302046FFF7D6FDD1E7012067
:1006EC00704700BF00380140CC18000810B5044614
:1006FC000E4B18784FF47A73B3FBF0F30C4A106876
:10070C00B0FBF3F000F0F6FF68B90F2C01D9012013
:10071C000AE0002221464FF0FF3000F08FFF054B1E
:10072C001C60002000E0012010BD00BF0000002074
:10073C00080000200400002008B5074A136843F0A5
:10074C0010031360032000F05BFF0020FFF7CEFFC7
:10075C00FFF7FCFD002008BD00200240034A116891
:10076C00034B1B780B441360704700BFAC00002098
:10077C0000000020014B1868704700BFAC0000203F
:10078C0038B50446FFF7F6FF0546B4F1FF3F02D03B
:10079C00044B1B781C44FFF7EDFF401BA042FAD31F
:1007AC0038BD00BF0000002082B0084B1B68084A0F
:1007BC00A2FB03235B0A00FB03F0019000BF019B2B
:1007CC005A1E0192002BF9D102B07047080000208C
:1007DC00D34D621070B582B0044678B3236813B160
:1007EC0013F00F0F30D0236813F0010F46D063685D
:1007FC002BB1B3F5803F02D0B3F5A02F2AD1AC4B6F
:10080C005B6803F00C03042B2FD0A94B5B6803F03F
:10081C000C03082B24D06368B3F5803F5BD0002B0E
:10082C006FD103F1804303F504331A6822F480324C
:10083C001A601A6822F480221A6051E04FF4B871E1
:10084C009C48FFF7D1FCC9E740F271119948FFF7BA
:10085C00CBFCC8E740F277119648FFF7C5FCCEE712
:10086C00934B5B6813F4803FD5D0914B1B6813F40A
:10087C00003F03D06368002B00F02D82236813F037
:10088C00020F00F08A802369012B63D863691F2B48
:10089C0066D8874B5B6813F00C0F6CD0844B5B688D
:1008AC0003F00C03082B61D02369002B00F09A8015
:1008BC00814B01221A60FFF75DFF05467C4B1B68DC
:1008CC0013F0020F40F08580FFF754FF401B022805
:1008DC00F4D9032002E2764A136843F480331360A0
:1008EC00636843B3FFF746FF0546714B1B6813F46F
:1008FC00003FC3D1FFF73EFF401B6428F5D903200E
:10090C00ECE1B3F5A02F09D0694B1A6822F48032C0
:10091C001A601A6822F480221A60E1E703F180431E
:10092C00A3F53C331A6842F480221A601A6842F428
:10093C0080321A60D4E7FFF71DFF05465C4B1B683D
:10094C0013F4003F9AD0FFF715FF401B6428F5D92C
:10095C000320C3E140F2AB115648FFF745FC95E785
:10096C004FF4D6715348FFF73FFC92E7504B5B684E
:10097C0013F4803F98D14E4B1B6813F0020F04D038
:10098C002369012B01D00120A8E1494A136823F007
:10099C00F803616943EAC1031360236813F0080F7D
:1009AC003BD0A369012B2FD8A369002B66D0434BF6
:1009BC0001221A60FFF7DEFE05463D4B5B6A13F021
:1009CC00020F27D1FFF7D6FE401B0228F5D90320D2
:1009DC0084E1374A136823F0F803616943EAC103E1
:1009EC001360DAE7344B00221A60FFF7C3FE0546AA
:1009FC002F4B1B6813F0020FCFD0FFF7BBFE401B31
:100A0C000228F5D9032069E14FF4F6712948FFF764
:100A1C00EBFBC9E70120FFF7C7FE236813F0040FB7
:100A2C0000F0A580E368012B01D9052B38D1204BB0
:100A3C00DB6913F0805F39D11D4BDA6942F08052CB
:100A4C00DA61DB6903F080530193019B01251C4B98
:100A5C001B6813F4807F35D0E368012B46D0002B44
:100A6C005CD103F1804303F504331A6A22F00102CE
:100A7C001A621A6A22F004021A623CE00F4B00223E
:100A8C001A60FFF777FE0546094B5B6A13F0020FFD
:100A9C00C3D0FFF76FFE401B0228F5D903201DE1E0
:100AAC0040F21B210348FFF79FFBC0E70025CEE770
:100ABC000010024004190008000042428004424227
:100ACC0000700040874A136843F480731360FFF78B
:100ADC0051FE0646834B1B6813F4807FBCD1FFF795
:100AEC0049FE801B6428F5D90320F7E07E4A136A7F
:100AFC0043F001031362E36833B3FFF73BFE064692
:100B0C00794B1B6A13F0020F2FD1FFF733FE801BBA
:100B1C0041F288339842F3D90320DFE0052B09D04A
:100B2C00714B1A6A22F001021A621A6A22F004024C
:100B3C001A62E0E76C4B1A6A42F004021A621A6AF3
:100B4C0042F001021A62D6E7FFF714FE0646664B26
:100B5C001B6A13F0020F08D0FFF70CFE801B41F24A
:100B6C0088339842F3D90320B8E0002D53D1E369C0
:100B7C00022B56D8E369002B00F0AF805A4A52681A
:100B8C0002F00C02082A00F0AB80022B40F08F80A0
:100B9C00236A13B1B3F5803F49D1636A4BB3B3F504
:100BAC00802F26D0B3F5002F23D0B3F5402F20D0C3
:100BBC00B3F5801F1DD0B3F5A01F1AD0B3F5C01F1D
:100BCC0017D0B3F5E01F14D0B3F5001F11D0B3F557
:100BDC00101F0ED0B3F5201F0BD0B3F5301F08D06B
:100BEC00B3F5401F05D0B3F5501F02D0B3F5601F0D
:100BFC0023D13E4B00221A60FFF7BCFD05463A4B51
:100C0C001B6813F0007F1ED0FFF7B4FD401B0228B9
:100C1C00F5D9032062E0344AD36923F08053D361C1
:100C2C00A5E740F2B9213248FFF7DEFAA2E740F21D
:100C3C00C2212F48FFF7D8FAAFE740F2C3212C4866
:100C4C00FFF7D2FAD5E7236AB3F5803F1AD02649CD
:100C5C004B6823F47413226A606A024313434B609B
:100C6C00224B01221A60FFF785FD04461E4B1B68C0
:100C7C0013F0007F19D1FFF77DFD001B0228F5D979
:100C8C0003202BE0A36813B1B3F5003F07D1164A3C
:100C9C00536823F40033A1680B435360D7E740F249
:100CAC00D9211348FFF7A0FAF1E7002016E00F4B0B
:100CBC0000221A60FFF75EFD04460B4B1B6813F015
:100CCC00007F06D0FFF756FD001B0228F5D9032044
:100CDC0004E0002002E0012000E0002002B070BD22
:100CEC000120FBE70070004000100240600042420F
:100CFC000419000810B487B0164C94E80F000DF1DD
:100D0C00180C0CE90F00238AADF80430124B5B6809
:100D1C0003F00C02082A1AD1C3F38342624412F87E
:100D2C00102C13F4803F05D10C4800FB02F007B0E7
:100D3C0010BC7047084B5B68C3F34043634413F823
:100D4C00143C074800FB02F0B0FBF3F0EFE704485B
:100D5C00EDE700BFA01800080010024000093D009C
:100D6C0000127A0070B50D460446C0B1236813F02A
:100D7C000F0F1AD0022D1ED8854B1B6803F00703EA
:100D8C00AB421ED2824A136823F007032B43136035
:100D9C00136803F00703AB4213D0012070BD40F27F
:100DAC002E317C48FFF720FAE0E740F22F317948EA
:100DBC00FFF71AFADEE74FF44C717648FFF714FA96
:100DCC00DAE7236813F0020F18D0A3687BB1802BED
:100DDC000DD0902B0BD0A02B09D0B02B07D0C02B53
:100DEC0005D0D02B03D0E02B01D0F02B34D16A4AA4
:100DFC00536823F0F003A1680B435360236813F08E
:100E0C00010F61D06368022B2CD86368012B2FD0A3
:100E1C00022B34D0604A126812F0020F00F0B68038
:100E2C005D494A6822F0030213434B60FFF7A2FCB2
:100E3C0006466368012B29D0022B36D0564B5B68D3
:100E4C0013F00C0F40D0FFF795FC801B41F2883358
:100E5C009842F3D90320A1E740F249314D48FFF7FE
:100E6C00C3F9C4E74FF454714A48FFF7BDF9CCE716
:100E7C00494A126812F4003FD2D101208EE7464A4B
:100E8C00126812F0007FCBD1012087E7424B5B68E0
:100E9C0003F00C03042B17D0FFF76CFC801B41F202
:100EAC0088339842F2D9032078E73B4B5B6803F018
:100EBC000C03082B08D0FFF75DFC801B41F2883334
:100ECC009842F2D9032069E7314B1B6803F0070302
:100EDC00AB420CD92E4A136823F007032B43136043
:100EEC00136803F00703AB4201D0012056E72368D7
:100EFC0013F0040F14D0E3685BB1B3F5806F08D026
:100F0C00B3F5A06F05D0B3F5C06F02D0B3F5E06FA9
:100F1C0030D1214A536823F4E063E1680B435360FA
:100F2C00236813F0080F15D023695BB1B3F5806FFC
:100F3C0008D0B3F5A06F05D0B3F5C06F02D0B3F5F0
:100F4C00E06F1DD1144A536823F46053216943EABE
:100F5C00C1035360FFF7CEFE0F4B5B68C3F3031363
:100F6C000E4AD35CD8400E4B18600020FFF7BEFB36
:100F7C00002013E74FF469710648FFF735F9C8E70D
:100F8C0040F2AB310348FFF72FF9DBE7012005E70F
:100F9C00002002400419000800100240E419000867
:100FAC0008000020014B1868704700BF08000020A3
:100FBC0008B5FFF7F7FF044B5B68C3F30223034A42
:100FCC00D35CD84008BD00BF00100240F4190008E3
:100FDC0008B5FFF7E7FF044B5B68C3F3C223034A72
:100FEC00D35CD84008BD00BF00100240F4190008C3
:100FFC002DE9F04383B080460F46B64B984213D090
:10100C0003F5806398420FD003F5806398420BD0B0
:10101C0003F58063984207D003F58063984203D0B0
:10102C00CD21AD48FFF7E0F83B689AB212B11B0C2A
:10103C001B041BB1CE21A848FFF7D6F87B68012B07
:10104C001ED9112B1CD0022B1AD0122B18D0A34A4C
:10105C00934215D002F58012934211D002F5801202
:10106C0093420DD0A2F5F812934209D002F58012EA
:10107C00934205D002F58012934201D0032B03D189
:10108C004FF000094E46D8E0CF219348FFF7ACF85B
:10109C00F6E7002B5ED0012B05D1FB68013B022B40
:1010AC0065D8D7F80C90FF2C00F296804046FF2CA8
:1010BC0000F29580B20003680F21914023EA0103EE
:1010CC0009FA02F2134303607B6813F0805F00F0AF
:1010DC00B380834B9A6942F001029A619B6903F0D9
:1010EC0001030193019BB208911C7E4B53F8210024
:1010FC0006F0030399000F238B4020EA0300754B85
:10110C00984572D003F58063984500F0CD8003F5C7
:10111C008063984500F0CA8003F58063984562D0DF
:10112C00042363E0704A934214D00BD96F4A934264
:10113C0010D002F5803293420CD0A2F5801293426B
:10114C00B1D107E0A2F58012934203D002F58032B0
:10115C009342A8D1BB68022B2DD8BB68002B38D08A
:10116C00012B2ED0C8F814504FF008099BE7E5214D
:10117C005948FFF739F894E7EC215748FFF734F852
:10118C008EE0FB68013B022B03D8FB6803F10809D6
:10119C0089E7F3215048FFF727F8F6E7FB68013B96
:1011AC00022B03D8FB6803F10C097CE7FA214A48AF
:1011BC00FFF71AF8F6E740F207114748FFF714F863
:1011CC00CBE7C8F810504FF008096CE74FF0000956
:1011DC0069E74FF0040966E708F1040067E7A6F138
:1011EC000802920067E7032300E000238B400343CF
:1011FC0002323C4941F822307B6813F4803F57D0CF
:10120C003B4A1368234313607B6813F4003F55D0AB
:10121C00374A5368234353607B6813F4801F53D0C1
:10122C00334A9368234393607B6813F4001F61D0A7
:10123C002F4AD3681C43D46001360F2E60D8012589
:10124C00B5403C682C40A542F6D1224B984513D0B2
:10125C0003F5806398450FD003F5806398450BD058
:10126C0003F58063984507D003F58063984503D058
:10127C00DD211948FEF7B8FF7B68122B8ED03FF6A4
:10128C0051AF022B3FF47DAF7FF603AF032B9DD004
:10129C00112B7FF408AFFB68013B022B3FF66CAFC0
:1012AC00FB6803F10409FEE601239FE702239DE797
:1012BC000F4A136823EA04031360A5E70C4A53682A
:1012CC0023EA04035360A7E7094A936823EA04035B
:1012DC009360A9E7000801403C19000800001110B8
:1012EC0000100240000001400000211000003110ED
:1012FC0000040140044AD36823EA0404D4609BE749
:10130C0003B0BDE8F08300BF0004014070B5064691
:10131C0015460C4629B1012D09D875B92404346140
:10132C0070BD40F2E3110648FEF75EFFF3E74FF4A1
:10133C00F2710348FEF758FFEFE73461F0E700BFA6
:10134C003C19000838B505460C4621B940F2F91194
:10135C000348FEF749FFEB685C40EC6038BD00BF0A
:10136C003C190008002800F09D8010B50446036865
:10137C004D4A934215D01432934212D014329342F8
:10138C000FD0143293420CD01432934209D0143241
:10139C00934206D01432934203D0AA214348FEF75D
:1013AC0023FF636823B1102B02D0B3F5804F56D1C5
:1013BC00A368402B01D0002B56D1E368802B01D0C1
:1013CC00002B56D123692BB1B3F5807F02D0B3F536
:1013DC00007F53D163692BB1B3F5806F02D0B3F5A5
:1013EC00006F50D1A3690BB1202B51D1E36943B1EC
:1013FC00B3F5805F05D0B3F5005F02D0B3F5405F65
:10140C004BD122682A4B13442A49A1FB03131B0915
:10141C009B002364284BE363022384F8213011687A
:10142C0021F47F5121F030016368A0680343E06828
:10143C0003432069034360690343A0690343E069E4
:10144C0003430B4313600020A062E06220636063DF
:10145C00A063012384F8213084F8200010BDAB2157
:10146C001248FEF7C1FEA3E7AC211048FEF7BCFE04
:10147C00A3E7AD210D48FEF7B7FEA3E7AE210B485D
:10148C00FEF7B2FEA6E7AF210848FEF7ADFEA9E7CE
:10149C00B0210648FEF7A8FEA8E7B1210348FEF7E5
:1014AC00A3FEAEE701207047080002407419000843
:1014BC00F8FFFDBFCDCCCCCC0000024038B5C36BDF
:1014CC001A6804682568016C04238B40134235D0DC
:1014DC0015F0040F32D0236813F0200F03D12368CA
:1014EC0023F0040323600368434A934214D014325C
:1014FC00934218D01432934217D01432934217D01F
:10150C001432934217D01432934202D04FF08062BF
:10151C0003E04FF4800200E00422384B5A60C36AA7
:10152C0003B1984738BD4022F7E74FF48062F4E7E7
:10153C004FF48042F1E74FF48022EEE702238B4018
:10154C0013423CD015F0020F39D0236813F0200F52
:10155C0006D1236823F00A032360012380F821308D
:10156C000368254A934214D0143293421CD014328F
:10157C0093421BD0143293421BD0143293421BD093
:10158C001432934202D04FF0007203E04FF4001279
:10159C0000E00222194B5A60002380F82030836A45
:1015AC00002BBFD09847BDE72022F3E74FF4007221
:1015BC00F0E74FF40052EDE74FF40032EAE708236E
:1015CC0003FA01F11142ADD015F0080FAAD023682F
:1015DC0023F00E032360026CC16B012303FA02F2A9
:1015EC004A60836380F82130002380F82030036B3D
:1015FC00002B97D0984795E7080002400000024066
:10160C0010B50446C31E042B0FD80A4AD36823F422
:10161C00E0631B041B0C240204F4E064234343F03A
:10162C00BF6343F40033D36010BDA2210248FEF720
:10163C00DBFDEAE700ED00E0AC19000870B50546EB
:10164C000C4616460F2A25D80F2C28D81B4BDB68C6
:10165C00C3F30223C3F10702042A28BF0422191D75
:10166C00062921D9033B4FF0FF3101FA02F224EA9B
:10167C0002049C4001FA03F326EA03063443002DCE
:10168C0014DB2401E4B205F1604505F5614585F8EC
:10169C00004370BDBA210A48FEF7A6FDD4E7BB2172
:1016AC000748FEF7A1FDD1E70023DCE705F00F05A5
:1016BC002401E4B2034B5C55EBE700BF00ED00E006
:1016CC00AC19000814ED00E010B5041E08DB04F0A2
:1016DC001F02640901239340044A42F8243010BDD0
:1016EC00CE210348FEF780FDF1E700BF00E100E0EA
:1016FC00AC1900080138B0F1807F0AD2064B586053
:10170C00064AF02182F823100020986007221A6004
:10171C0070470120704700BF10E000E000ED00E0D2
:10172C0010B50446042800D038B9042C0BD0094A53
:10173C00136823F00403136010BD40F2D91106485E
:10174C00FEF752FDF1E7034A136843F004031360FC
:10175C00F2E700BF10E000E0AC190008704708B5D4
:10176C00FFF7FCFF08BD00000F4B1A6842F00102A6
:10177C001A6059680D4A0A405A601A6822F084723D
:10178C0022F480321A601A6822F480221A605A6895
:10179C0022F4FE025A604FF41F029A60044B4FF081
:1017AC0000629A60704700BF001002400000FFF812
:1017BC0000ED00E000B583B00A4B5A6942F001021B
:1017CC005A615B6903F001030193019B00221146EE
:1017DC001120FFF733FF1120FFF776FF03B05DF800
:1017EC0004FB00BF00100240002103E00B4B5B58D0
:1017FC00435004310A480B4B42189A42F6D30A4A1A
:10180C0002E0002342F8043B084B9A42F9D3FFF75D
:10181C00ABFF00F00FF8FEF7CFFC7047041A00087E
:10182C00000000200C0000200C000020B000002064
:10183C00FEE7000070B500250C4E0D4CA41BA41047
:10184C00A54209D100F01AF800250A4E0A4CA41B37
:10185C00A410A54205D170BD56F825309847013526
:10186C00EEE756F8253098470135F2E7FC190008E9
:10187C00FC190008FC190008001A0008F8B500BF94
:10188C00F8BC08BC9E467047F8B500BFF8BC08BC55
:04189C009E467047AD
:1018A00002030405060708090A0B0C0D0E0F1010A1
:1018B000010200005372632F6D61696E2E63000098
:1018C0005372632F75736172742E6300447269766C
:1018D0006572732F53544D3332463178785F4841E7
:1018E0004C5F4472697665722F5372632F73746D07
:1018F0003332663178785F68616C5F756172742E1F
:1019000063000000447269766572732F53544D333F
:1019100032463178785F48414C5F4472697665722F
:101920002F5372632F73746D3332663178785F682A
:10193000616C5F7263632E6300000000447269761D
:101940006572732F53544D3332463178785F484176
:101950004C5F4472697665722F5372632F73746D96
:101960003332663178785F68616C5F6770696F2EBB
:1019700063000000447269766572732F53544D33CF
:1019800032463178785F48414C5F447269766572BF
:101990002F5372632F73746D3332663178785F68BA
:1019A000616C5F646D612E630000000044726976B3
:1019B0006572732F53544D3332463178785F484106
:1019C0004C5F4472697665722F5372632F73746D26
:1019D0003332663178785F68616C5F636F7274650B
:1019E000782E6300000000000000000001020304E4
:0C19F000060708090000000001020304C3
:0419FC0031010008AD
:041A00000D010008CC
:0C1A0400010000001000000000A24A04D5
:04000005080017F5E3
:00000001FF
