:020000040800F2
:100000000050002081150008D9020008DB0200081A
:10001000DD020008DF020008E10200080000000025
:10002000000000000000000000000000E3020008E3
:10003000E502000800000000E7020008E9020008ED
:10004000C9150008C9150008C9150008C915000818
:10005000C9150008C9150008C9150008C915000808
:10006000C9150008C9150008C9150008C9150008F8
:10007000C9150008C9150008C9150008C9150008E8
:10008000C9150008C9150008C9150008C9150008D8
:10009000C9150008C9150008C9150008C9150008C8
:1000A000C9150008C9150008C9150008C9150008B8
:1000B000C9150008C9150008C9150008C9150008A8
:1000C000C9150008C9150008C9150008C915000898
:1000D000C9150008C9150008C9150008C915000888
:1000E000C9150008C9150008C9150008000000005E
:1000F0000000000000000000000000000000000000
:0C01000000000000000000005FF808F1A3
:10010C0010B5054C237833B9044B13B10448AFF345
:10011C0000800123237010BD14000020000000009B
:10012C001416000808B5034B1BB103490348AFF381
:10013C00008008BD00000000180000201416000804
:10014C00FEE7000000B591B00223069301230A9349
:10015C0010230B9300230D9306A800F089F9F0B936
:10016C000F2301930021029103910491059101A8A1
:10017C0000F046FCB8B900F063FD0D4BA3FB00305A
:10018C00800901F097F9042001F0AAF90022114628
:10019C004FF0FF3001F048F911B05DF804FB8C21F1
:1001AC000448FFF7CDFF9A210248FFF7C9FF00BFB3
:1001BC00D34D62104016000808B500F00BF9FFF79C
:1001CC00C1FF00F025F800F053F80A230B4A0C4944
:1001DC000C4800F0B7FF00E000BF64220021094882
:1001EC0000F0EEFF0028F7D14FF40051064800F064
:1001FC00D7FE4FF47A7000F011F9F5E730000020CB
:10020C00000000203C00002000100140704700005E
:10021C0010B586B0144B9A6942F010029A619A6933
:10022C0002F010020092009A9A6942F004029A615C
:10023C009B6903F004030193019B0C4C00224FF4C7
:10024C000051204600F090FE4FF40053029301231E
:10025C000393002304930223059302A9204600F084
:10026C00F5FC06B010BD00BF0010024000100140AC
:10027C0000B583B0114B5A6942F001025A615B69B7
:10028C0003F001030193019B0D480E4B03604FF4E7
:10029C0080434360402383608023C3600023036159
:1002AC0043618361C36100F0A1FE10B903B05DF836
:1002BC0004FB4C210448FFF743FFF7E70010024012
:1002CC003C000020080002404C1600087047FEE776
:1002DC00FEE7FEE7FEE770477047704708B500F091
:1002EC008BF801F01CF908BD00B583B0244B9A695A
:1002FC0042F001029A619A6902F001020092009A9E
:10030C00DA6942F08052DA61DB6903F080530193C1
:10031C00019B032001F06AF8002211466FF00B00DC
:10032C0001F082F8002211466FF00A0001F07CF80F
:10033C00002211466FF0090001F076F800221146F8
:10034C006FF0040001F070F8002211466FF003000A
:10035C0001F06AF8002211466FF0010001F064F818
:10036C00002211464FF0FF3001F05EF8054A536849
:10037C0023F0E06343F00073536003B05DF804FBBB
:10038C00001002400000014010B504460E4B1878D6
:10039C004FF47A73B3FBF0F30C4A1068B0FBF3F034
:1003AC0001F088F868B90F2C01D901200AE000226D
:1003BC0021464FF0FF3001F037F8054B1C60002050
:1003CC0000E0012010BD00BF0A000020100000203A
:1003DC000C00002008B5074A136843F010031360A3
:1003EC00032001F003F80020FFF7CEFFFFF77CFF9E
:1003FC00002008BD00200240034A1168034B1B7803
:10040C000B441360704700BF800000200A000020DE
:10041C00014B1868704700BF8000002038B50446B7
:10042C00FFF7F6FF0546B4F1FF3F02D0044B1B78F3
:10043C001C44FFF7EDFF401BA042FAD338BD00BFB0
:10044C000A00002082B0084B1B68084AA2FB032359
:10045C005B0A00FB03F0019000BF019B5A1E019246
:10046C00002BF9D102B0704710000020D34D621060
:10047C0070B582B0044678B3236813B113F00F0F34
:10048C0030D0236813F0010F46D063682BB1B3F55D
:10049C00803F02D0B3F5A02F2AD1AC4B5B6803F0A0
:1004AC000C03042B2FD0A94B5B6803F00C03082B17
:1004BC0024D06368B3F5803F5BD0002B6FD103F180
:1004CC00804303F504331A6822F480321A601A68E8
:1004DC0022F480221A6051E04FF4B8719C48FFF767
:1004EC0095FEC9E740F271119948FFF78FFEC8E7F6
:1004FC0040F277119648FFF789FECEE7934B5B6885
:10050C0013F4803FD5D0914B1B6813F4003F03D0FC
:10051C006368002B00F02D82236813F0020F00F0AB
:10052C008A802369012B63D863691F2B66D8874B9C
:10053C005B6813F00C0F6CD0844B5B6803F00C03FE
:10054C00082B61D02369002B00F09A80814B01228B
:10055C001A60FFF75DFF05467C4B1B6813F0020F1A
:10056C0040F08580FFF754FF401B0228F4D903208C
:10057C0002E2764A136843F480331360636843B332
:10058C00FFF746FF0546714B1B6813F4003FC3D1C0
:10059C00FFF73EFF401B6428F5D90320ECE1B3F5CF
:1005AC00A02F09D0694B1A6822F480321A601A689D
:1005BC0022F480221A60E1E703F18043A3F53C3377
:1005CC001A6842F480221A601A6842F480321A6067
:1005DC00D4E7FFF71DFF05465C4B1B6813F4003F87
:1005EC009AD0FFF715FF401B6428F5D90320C3E10F
:1005FC0040F2AB115648FFF709FE95E74FF4D67160
:10060C005348FFF703FE92E7504B5B6813F4803FAF
:10061C0098D14E4B1B6813F0020F04D02369012BA9
:10062C0001D00120A8E1494A136823F0F80361695D
:10063C0043EAC1031360236813F0080F3BD0A3698E
:10064C00012B2FD8A369002B66D0434B01221A60D3
:10065C00FFF7DEFE05463D4B5B6A13F0020F27D118
:10066C00FFF7D6FE401B0228F5D9032084E1374A58
:10067C00136823F0F803616943EAC1031360DAE7F6
:10068C00344B00221A60FFF7C3FE05462F4B1B6844
:10069C0013F0020FCFD0FFF7BBFE401B0228F5D999
:1006AC00032069E14FF4F6712948FFF7AFFDC9E764
:1006BC000120FFF7C7FE236813F0040F00F0A5809C
:1006CC00E368012B01D9052B38D1204BDB6913F0E2
:1006DC00805F39D11D4BDA6942F08052DA61DB69F7
:1006EC0003F080530193019B01251C4B1B6813F4F1
:1006FC00807F35D0E368012B46D0002B5CD103F111
:10070C00804303F504331A6A22F001021A621A6A52
:10071C0022F004021A623CE00F4B00221A60FFF731
:10072C0077FE0546094B5B6A13F0020FC3D0FFF747
:10073C006FFE401B0228F5D903201DE140F21B215E
:10074C000348FFF763FDC0E70025CEE70010024029
:10075C0058160008000042428004424200700040DB
:10076C00874A136843F480731360FFF751FE064603
:10077C00834B1B6813F4807FBCD1FFF749FE801BB1
:10078C006428F5D90320F7E07E4A136A43F001038D
:10079C001362E36833B3FFF73BFE0646794B1B6AE3
:1007AC0013F0020F2FD1FFF733FE801B41F2883379
:1007BC009842F3D90320DFE0052B09D0714B1A6A5C
:1007CC0022F001021A621A6A22F004021A62E0E7AD
:1007DC006C4B1A6A42F004021A621A6A42F0010265
:1007EC001A62D6E7FFF714FE0646664B1B6A13F037
:1007FC00020F08D0FFF70CFE801B41F288339842A1
:10080C00F3D90320B8E0002D53D1E369022B56D85D
:10081C00E369002B00F0AF805A4A526802F00C02D8
:10082C00082A00F0AB80022B40F08F80236A13B1B2
:10083C00B3F5803F49D1636A4BB3B3F5802F26D013
:10084C00B3F5002F23D0B3F5402F20D0B3F5801F84
:10085C001DD0B3F5A01F1AD0B3F5C01F17D0B3F538
:10086C00E01F14D0B3F5001F11D0B3F5101F0ED03C
:10087C00B3F5201F0BD0B3F5301F08D0B3F5401FD4
:10088C0005D0B3F5501F02D0B3F5601F23D13E4BFA
:10089C0000221A60FFF7BCFD05463A4B1B6813F0AB
:1008AC00007F1ED0FFF7B4FD401B0228F5D90320B2
:1008BC0062E0344AD36923F08053D361A5E740F258
:1008CC00B9213248FFF7A2FCA2E740F2C2212F481F
:1008DC00FFF79CFCAFE740F2C3212C48FFF796FCD6
:1008EC00D5E7236AB3F5803F1AD026494B6823F429
:1008FC007413226A606A024313434B60224B012239
:10090C001A60FFF785FD04461E4B1B6813F0007F31
:10091C0019D1FFF77DFD001B0228F5D903202BE030
:10092C00A36813B1B3F5003F07D1164A536823F4FB
:10093C000033A1680B435360D7E740F2D921134829
:10094C00FFF764FCF1E7002016E00F4B00221A6061
:10095C00FFF75EFD04460B4B1B6813F0007F06D0BF
:10096C00FFF756FD001B0228F5D9032004E00020F8
:10097C0002E0012000E0002002B070BD0120FBE786
:10098C0000700040001002406000424258160008FF
:10099C0010B487B0164C94E80F000DF1180C0CE94C
:1009AC000F00238AADF80430124B5B6803F00C0285
:1009BC00082A1AD1C3F38342624412F8102C13F4A0
:1009CC00803F05D10C4800FB02F007B010BC70470B
:1009DC00084B5B68C3F34043634413F8143C07486B
:1009EC0000FB02F0B0FBF3F0EFE70448EDE700BFCB
:1009FC002C1600080010024000093D0000127A007D
:100A0C0070B50D460446C0B1236813F00F0F1AD011
:100A1C00022D1ED8854B1B6803F00703AB421ED278
:100A2C00824A136823F007032B431360136803F007
:100A3C000703AB4213D0012070BD40F22E317C482D
:100A4C00FFF7E4FBE0E740F22F317948FFF7DEFBDC
:100A5C00DEE74FF44C717648FFF7D8FBDAE72368F2
:100A6C0013F0020F18D0A3687BB1802B0DD0902B04
:100A7C000BD0A02B09D0B02B07D0C02B05D0D02B7E
:100A8C0003D0E02B01D0F02B34D16A4A536823F009
:100A9C00F003A1680B435360236813F0010F61D07E
:100AAC006368022B2CD86368012B2FD0022B34D017
:100ABC00604A126812F0020F00F0B6805D494A6875
:100ACC0022F0030213434B60FFF7A2FC0646636857
:100ADC00012B29D0022B36D0564B5B6813F00C0F30
:100AEC0040D0FFF795FC801B41F288339842F3D934
:100AFC000320A1E740F249314D48FFF787FBC4E7DB
:100B0C004FF454714A48FFF781FBCCE7494A12680D
:100B1C0012F4003FD2D101208EE7464A126812F03F
:100B2C00007FCBD1012087E7424B5B6803F00C03BD
:100B3C00042B17D0FFF76CFC801B41F288339842D2
:100B4C00F2D9032078E73B4B5B6803F00C03082BCE
:100B5C0008D0FFF75DFC801B41F288339842F2D934
:100B6C00032069E7314B1B6803F00703AB420CD938
:100B7C002E4A136823F007032B431360136803F00A
:100B8C000703AB4201D0012056E7236813F0040F92
:100B9C0014D0E3685BB1B3F5806F08D0B3F5A06FE8
:100BAC0005D0B3F5C06F02D0B3F5E06F30D1214A58
:100BBC00536823F4E063E1680B435360236813F03C
:100BCC00080F15D023695BB1B3F5806F08D0B3F56E
:100BDC00A06F05D0B3F5C06F02D0B3F5E06F1DD197
:100BEC00144A536823F46053216943EAC1035360E8
:100BFC00FFF7CEFE0F4B5B68C3F303130E4AD35CB7
:100C0C00D8400E4B18600020FFF7BEFB002013E706
:100C1C004FF469710648FFF7F9FAC8E740F2AB31B7
:100C2C000348FFF7F3FADBE7012005E70020024059
:100C3C005816000800100240381700081000002059
:100C4C00014B1868704700BF100000202DE9F043DD
:100C5C0083B080460F46B64B984213D003F58063A1
:100C6C0098420FD003F5806398420BD003F5806354
:100C7C00984207D003F58063984203D0CD21AD484C
:100C8C00FFF7C4FA3B689AB212B11B0C1B041BB1E0
:100C9C00CE21A848FFF7BAFA7B68012B1ED9112B7D
:100CAC001CD0022B1AD0122B18D0A34A934215D069
:100CBC0002F58012934211D002F5801293420DD0AE
:100CCC00A2F5F812934209D002F58012934205D096
:100CDC0002F58012934201D0032B03D14FF000098F
:100CEC004E46D8E0CF219348FFF790FAF6E7002B59
:100CFC005ED0012B05D1FB68013B022B65D8D7F8E0
:100D0C000C90FF2C00F296804046FF2C00F2958050
:100D1C00B20003680F21914023EA010309FA02F2A1
:100D2C00134303607B6813F0805F00F0B380834B48
:100D3C009A6942F001029A619B6903F001030193E5
:100D4C00019BB208911C7E4B53F8210006F0030363
:100D5C0099000F238B4020EA0300754B984572D005
:100D6C0003F58063984500F0CD8003F580639845CA
:100D7C0000F0CA8003F58063984562D0042363E0D9
:100D8C00704A934214D00BD96F4A934210D002F59B
:100D9C00803293420CD0A2F580129342B1D107E07D
:100DAC00A2F58012934203D002F580329342A8D16F
:100DBC00BB68022B2DD8BB68002B38D0012B2ED052
:100DCC00C8F814504FF008099BE7E5215948FFF784
:100DDC001DFA94E7EC215748FFF718FA8EE0FB68F0
:100DEC00013B022B03D8FB6803F1080989E7F321C7
:100DFC005048FFF70BFAF6E7FB68013B022B03D8D0
:100E0C00FB6803F10C097CE7FA214A48FFF7FEF96D
:100E1C00F6E740F207114748FFF7F8F9CBE7C8F8B7
:100E2C0010504FF008096CE74FF0000969E74FF0DC
:100E3C00040966E708F1040067E7A6F108029200CE
:100E4C0067E7032300E000238B40034302323C4955
:100E5C0041F822307B6813F4803F57D03B4A13682B
:100E6C00234313607B6813F4003F55D0374A536813
:100E7C00234353607B6813F4801F53D0334A936829
:100E8C00234393607B6813F4001F61D02F4AD3680F
:100E9C001C43D46001360F2E60D80125B5403C6848
:100EAC002C40A542F6D1224B984513D003F5806314
:100EBC0098450FD003F5806398450BD003F58063FC
:100ECC00984507D003F58063984503D0DD21194878
:100EDC00FFF79CF97B68122B8ED03FF651AF022B9B
:100EEC003FF47DAF7FF603AF032B9DD0112B7FF426
:100EFC0008AFFB68013B022B3FF66CAFFB6803F1BC
:100F0C000409FEE601239FE702239DE70F4A1368BD
:100F1C0023EA04031360A5E70C4A536823EA04038D
:100F2C005360A7E7094A936823EA04039360A9E78F
:100F3C00000801409016000800001110001002403B
:100F4C00000001400000211000003110000401409D
:100F5C00044AD36823EA0404D4609BE703B0BDE8D9
:100F6C00F08300BF0004014070B5064615460C46E0
:100F7C0029B1012D09D875B92404346170BD40F232
:100F8C00E3110648FFF742F9F3E74FF4F271034817
:100F9C00FFF73CF9EFE73461F0E700BF901600086B
:100FAC0038B505460C4621B940F2F9110348FFF754
:100FBC002DF9EB685C40EC6038BD00BF9016000862
:100FCC0070B4066CC56B0124B4406C60046863603B
:100FDC004368102B05D0036899600368DA6070BC15
:100FEC00704703689A600368D960F8E7002800F03E
:100FFC009D8010B5044603684D4A934215D01432B7
:10100C00934212D0143293420FD0143293420CD02C
:10101C001432934209D01432934206D014329342C4
:10102C0003D0AA214348FFF7F1F8636823B1102BD2
:10103C0002D0B3F5804F56D1A368402B01D0002BC2
:10104C0056D1E368802B01D0002B56D123692BB1EC
:10105C00B3F5807F02D0B3F5007F53D163692BB118
:10106C00B3F5806F02D0B3F5006F50D1A3690BB10B
:10107C00202B51D1E36943B1B3F5805F05D0B3F5B3
:10108C00005F02D0B3F5405F4BD122682A4B13446A
:10109C002A49A1FB03131B099B002364284BE36320
:1010AC00022384F82130116821F47F5121F03001A2
:1010BC006368A0680343E0680343206903436069E5
:1010CC000343A0690343E06903430B43136000200F
:1010DC00A062E06220636063A063012384F8213086
:1010EC0084F8200010BDAB211248FFF78FF8A3E75E
:1010FC00AC211048FFF78AF8A3E7AD210D48FFF7A4
:10110C0085F8A3E7AE210B48FFF780F8A6E7AF21DF
:10111C000848FFF77BF8A9E7B0210648FFF776F8F7
:10112C00A8E7B1210348FFF771F8AEE7012070473B
:10113C0008000240C8160008F8FFFDBFCDCCCCCC8F
:10114C00000002402DE9F04104460F4690461E4631
:10115C005A1E4FF6FE739A4210D894F82030012B89
:10116C0029D0012384F8203094F82130012B0BD0A6
:10117C00002384F820300220BDE8F08140F25511A4
:10118C000E48FFF743F8E8E7022384F821300025E6
:10119C00A5632268136823F00103136033464246AB
:1011AC0039462046FFF70CFF2268136843F0010311
:1011BC0013602846E0E70220DEE700BFC8160008EF
:1011CC0090F82130022B06D004238363002380F88F
:1011DC002030012070472DE9F04103681C6814F0A1
:1011EC00200F15D1E9B97F4CA34232D01434A3425D
:1011FC0037D01434A34236D01434A34236D014342E
:10120C00A34236D01434A34208D04FF0007621E02C
:10121C004FF4807383630120BDE8F0814FF4001616
:10122C0018E0704CA34227D01434A34226D01434B7
:10123C00A34225D01434A34225D01434A34225D084
:10124C001434A34202D04FF0806603E04FF48006C2
:10125C0000E0022615460F460446FFF7D9F88046F3
:10126C0020E02026F6E74FF40076F3E74FF4005623
:10127C00F0E74FF40036EDE70426EBE74026E9E70C
:10128C004FF48066E6E74FF48046E3E74FF48026A0
:10129C00E0E74FF4000300E008231A4229D1B5F12E
:1012AC00FF3F35D1504B1B68334243D14E4B1A682C
:1012BC0023684C498B42EFD014318B420ED0143141
:1012CC008B420DD014318B420DD014318B420DD08A
:1012DC0014318B42DDD04FF00063DEE78023DCE776
:1012EC004FF40063D9E74FF40043D6E74FF40023E3
:1012FC00D3E7236CE26B012000FA03F35360A36B7A
:10130C000343A36384F82100002384F8203083E78F
:10131C002DB1FFF77DF8A0EB0800A842C2D9A36B52
:10132C0043F02003A363012084F82100002384F8F8
:10133C00203071E76FBB23682A4A934214D01432D1
:10134C0093421BD0143293421AD0143293421AD0C7
:10135C00143293421AD01432934202D04FF00072DE
:10136C0003E04FF4001200E002221F4B5A600123ED
:10137C0084F82130002084F820004DE72022F4E787
:10138C004FF40072F1E74FF40052EEE74FF40032E5
:10139C00EBE72368134A934214D01432934215D0CE
:1013AC001432934214D01432934214D01432934218
:1013BC0014D01432934202D04FF0806203E04FF409
:1013CC00800200E00422084B5A60D3E74022FAE77F
:1013DC004FF48062F7E74FF48042F4E74FF4802239
:1013EC00F1E700BF080002400000024010B50446BF
:1013FC00C31E042B0FD80A4AD36823F4E0631B04E2
:10140C001B0C240204F4E064234343F0BF6343F455
:10141C000033D36010BDA2210248FEF7F7FEEAE7C5
:10142C0000ED00E00017000870B505460C461646A6
:10143C000F2A25D80F2C28D81B4BDB68C3F30223AB
:10144C00C3F10702042A28BF0422191D062921D939
:10145C00033B4FF0FF3101FA02F224EA02049C40F4
:10146C0001FA03F326EA03063443002D14DB2401AE
:10147C00E4B205F1604505F5614585F8004370BDA2
:10148C00BA210A48FEF7C2FED4E7BB210748FEF793
:10149C00BDFED1E70023DCE705F00F052401E4B223
:1014AC00034B5C55EBE700BF00ED00E000170008B4
:1014BC0014ED00E00138B0F1807F0AD2064B586081
:1014CC00064AF02182F823100020986007221A6047
:1014DC0070470120704700BF10E000E000ED00E015
:1014EC0010B50446042800D038B9042C0BD0094A96
:1014FC00136823F00403136010BD40F2D9110648A1
:10150C00FEF784FEF1E7034A136843F0040313600B
:10151C00F2E700BF10E000E000170008704708B5C4
:10152C00FFF7FCFF08BD00000F4B1A6842F00102E8
:10153C001A6059680D4A0A405A601A6822F084727F
:10154C0022F480321A601A6822F480221A605A68D7
:10155C0022F4FE025A604FF41F029A60044B4FF0C3
:10156C0000629A60704700BF001002400000FFF854
:10157C0000ED00E0002103E00B4B5B5843500431BD
:10158C000A480B4B42189A42F6D30A4A02E000234F
:10159C0042F8043B084B9A42F9D3FFF7C5FF00F021
:1015AC000FF8FEF709FE70475017000800000020E6
:1015BC00140000201400002084000020FEE700002E
:1015CC0070B500250C4E0D4CA41BA410A54209D1DE
:1015DC0000F01AF800250A4E0A4CA41BA410A542D0
:1015EC0005D170BD56F8253098470135EEE756F811
:1015FC00253098470135F2E74817000848170008CE
:10160C00481700084C170008F8B500BFF8BC08BC18
:10161C009E467047F8B500BFF8BC08BC9E467047A4
:10162C0002030405060708090A0B0C0D0E0F101017
:10163C00010200005372632F6D61696E2E6300000E
:10164C005372632F646D612E6300000044726976DF
:10165C006572732F53544D3332463178785F48415D
:10166C004C5F4472697665722F5372632F73746D7D
:10167C003332663178785F68616C5F7263632E63B6
:10168C0000000000447269766572732F53544D3319
:10169C0032463178785F48414C5F447269766572A6
:1016AC002F5372632F73746D3332663178785F68A1
:1016BC00616C5F6770696F2E63000000447269761D
:1016CC006572732F53544D3332463178785F4841ED
:1016DC004C5F4472697665722F5372632F73746D0D
:1016EC003332663178785F68616C5F646D612E634C
:1016FC0000000000447269766572732F53544D33A9
:10170C0032463178785F48414C5F44726976657235
:10171C002F5372632F73746D3332663178785F6830
:10172C00616C5F636F727465782E6300000000005B
:0C173C0000000000010203040607080979
:041748003101000863
:04174C000D01000883
:10175000000102030405060708090100100000004B
:0417600000A24A0495
:040000050800158159
:00000001FF
