:020000040800F2
:1000000000000120D5240008C9030008CB03000824
:10001000CD030008CF030008D10300080000000052
:10002000000000000000000000000000D3030008F2
:10003000D503000800000000D7030008D90300081A
:100040002525000825250008252500082525000868
:100050002525000825250008252500082525000858
:100060002525000825250008252500082525000848
:100070002525000825250008252500082525000838
:100080002525000825250008252500082525000828
:100090002525000825250008252500082525000818
:1000A0002525000825250008252500082525000808
:1000B00025250008252500082525000825250008F8
:1000C00025250008252500082525000825250008E8
:1000D00025250008252500082525000825250008D8
:1000E00025250008252500082525000825250008C8
:1000F00025250008252500082525000825250008B8
:10010000252500080000000000000000252500084B
:100110002525000825250008252500082525000897
:100120002525000825250008252500082525000887
:10013000252500082525000800000000000000001B
:1001400025250008252500082525000800000000B9
:10015000000000000000000000000000000000009F
:100160002525000825250008252500082525000847
:100170002525000825250008252500082525000837
:1001800025250008252500080000000000000000CB
:040190002525000819
:1001940010B5054C237833B9044B13B10448AFF3BD
:1001A40000800123237010BD100000200000000017
:1001B4007025000808B5034B1BB103490348AFF38E
:1001C400008008BD00000000140000207025000815
:1001D400034613F8012B002AFBD1181A0138704783
:1001E400FEE7000000B5A7B002231C9301221F9272
:1001F4001022209222934FF4004323934FF4E013F0
:100204002493002325931CA800F000FD48BB0F2372
:10021400179302211891002319934FF480621A92C4
:100224001B9317A801F0D6F8F8B902230193002311
:10023400049301A801F02CFAD8B901F0F7F90F4B97
:10024400A3FB0030800902F089F8042002F09CF836
:10025400002211464FF0FF3002F03AF827B05DF863
:1002640004FB8C210648FFF7BBFF9A210448FFF7E3
:10027400B7FFA1210248FFF7B3FF00BFD34D6210BF
:100284008825000808B500F09DFCFFF7ABFF00F0DF
:1002940007F800F051F802F0DFF8FCE770470000BF
:1002A40010B58AB0214B5A6942F400225A615A6946
:1002B40002F400220192019A5A6942F480025A61BE
:1002C4005A6902F480020292029A5A6942F4003294
:1002D4005A615A6902F400320392039A5A6942F449
:1002E40080225A615B6903F480230493049B0022F7
:1002F40020214FF0904001F02BFE4FF40053059362
:100304000B4B06930024079405A90A4801F0A6FCA8
:1003140020230593012306930794089405A94FF01D
:10032400904001F09BFC0AB010BD00BF00100240D9
:10033400000021100008004808B50C480C4B03606D
:100344004FF41643436000238360C36003610C22AF
:1003540042618361C3610362436200F0A5FB00B99B
:1003640008BD44210348FFF73BFFF9E72C000020B8
:1003740000440040942500080268114B9A4200D0C2
:10038400704700B587B003F5E633DA6942F400320A
:10039400DA61DB6903F400330093009B0C230193BF
:1003A400022302930023039304930723059301A9D3
:1003B4004FF0904001F052FC07B05DF804FB00BF21
:1003C400004400407047FEE7FEE7FEE7FEE77047A3
:1003D4007047704708B500F007FC01F0F4FF08BD52
:1003E40000B583B0214B9A6942F001029A619A697F
:1003F40002F001020092009ADA6942F08052DA6156
:10040400DB6903F080530193019B072001F042FF55
:10041400002211466FF00B0001F05AFF0022114632
:100424006FF00A0001F054FF002211466FF009003A
:1004340001F04EFF002211466FF0040001F048FF66
:10044400002211466FF0030001F042FF0022114622
:100454006FF0010001F03CFF002211464FF0FF3025
:1004640001F036FF03B05DF804FB00BF001002404A
:1004740010B504464268984B9A427CD8A368B3F1FD
:10048400805F03D013B1B3F5805F7AD1E368B3F52D
:10049400805F06D02BB1B3F5405F02D0B3F5005FA7
:1004A40075D123692BB1B3F5806F02D0B3F5C06F5A
:1004B40073D1636933F00C0200D123B940F63D01D6
:1004C4008648FFF7EBFEA36943B1B3F5807F05D0FF
:1004D400B3F5007F02D0B3F5407F64D1236A13B132
:1004E400B3F5006F65D1E36913B1B3F5004F66D17D
:1004F400A3682269134362691343E26913432168C1
:100504000868774A024013430B602268536823F457
:100514004053E1680B435360A369226A1A4321687C
:100524008B6823F4306313438B6023686D4A9342D2
:100534004BD06D4A93425BD06C4A934272D06C4A62
:10054400934200F089806B4A934200F09F8010220E
:10055400E169B1F5004F00F0B580082A00F2458149
:10056400DFE812F009011501210143012D014301C6
:1005740043014301390140F639015848FFF78EFE23
:100584007CE740F63A015548FFF788FE7EE740F6DF
:100594003B015248FFF782FE83E740F63C014F4897
:1005A400FFF77CFE85E740F63E014C48FFF776FEF8
:1005B40094E740F63F014948FFF770FE93E74FF494
:1005C40004614648FFF76AFE92E702F55842126B4F
:1005D40002F00302032A09D8DFE802F002040672DB
:1005E4000122B5E70422B3E70822B1E71022AFE7FE
:1005F40002F5E632126B02F44032B2F5803F0BD0C2
:1006040007D9B2F5003F09D0B2F5403F08D1022224
:100614009EE72AB900229BE7042299E7082297E77C
:10062400102295E702F5E432126B02F44022B2F58F
:10063400802F0BD007D9B2F5002F09D0B2F5402F87
:1006440008D1022284E72AB9002281E704227FE745
:1006540008227DE710227BE702F5E232126B02F4F6
:100664004012B2F5801F0BD007D9B2F5001F09D094
:10067400B2F5401F08D102226AE72AB9002267E7CF
:10068400042265E7082263E7102261E702F5E032FD
:10069400126B02F44002B2F5800F0BD007D9B2F509
:1006A400000F09D0B2F5400F08D1022250E72AB951
:1006B40000224DE704224BE7082249E7102247E7CE
:1006C400022245E7082A53D8DFE802F016283352FD
:1006D4003E525252490000BF40548900A0250008F0
:1006E400F369FFEF00380140004400400048004037
:1006F400004C00400050004000F09EFF6268530828
:1007040003EB4003B3FBF2F39BB2002023F00F0290
:10071400C3F3420313432268D36010BD00F0A2FF69
:100724006268530803EB4003B3FBF2F39BB200206F
:10073400ECE76268530803F5740303F51053B3FB45
:10074400F2F39BB20020E1E700F00CFE626853086C
:1007540003EB4003B3FBF2F39BB20020D6E76268DD
:10076400530803F58033B3FBF2F39BB20020CDE7CB
:1007740001200023CAE700F05FFF636800EB530029
:10078400B0FBF3F0236880B2D8600020C5E700F026
:1007940069FF636800EB5300B0FBF3F0236880B299
:1007A400D8600020B9E761684A0802F5F40202F54E
:1007B4009052B2FBF1F292B2DA600020ADE700F0A1
:1007C400D1FD636800EB5300B0FBF3F0236880B203
:1007D400D8600020A1E761684A0802F50042B2FB34
:1007E400F1F292B2DA60002097E7012095E700BFAA
:1007F40010B50446436AFF2B00F29880636A13F035
:10080400010F0CD0A36A1BB1B3F5003F40F09480F4
:100814002268536823F40033A16A0B435360636A6C
:1008240013F0020F0CD0E36A1BB1B3F5803F40F024
:1008340089802268536823F48033E16A0B43536050
:10084400636A13F0040F0BD0236B13B1B3F5802F3D
:100854007ED12268536823F48023216B0B435360B9
:10086400636A13F0080F0BD0636B13B1B3F5004F39
:1008740074D12268536823F40043616B0B435360C3
:10088400636A13F0100F0BD0A36B13B1B3F5805F41
:100894006AD12268936823F48053A16B0B4393605D
:1008A400636A13F0200F0BD0E36B13B1B3F5005F51
:1008B40060D12268936823F40053E16B0B43936087
:1008C400636A13F0400F20D02368404A93420CD04F
:1008D400A2F57442934208D002F58062934204D098
:1008E40040F6D1013A48FFF7D9FC236C13B1B3F5B4
:1008F400801F45D12268536823F48013216C0B4375
:100904005360236CB3F5801F40D0636A13F0800FEB
:100914000BD0A36C13B1B3F5002F50D122685368E8
:1009240023F40023A16C0B43536010BD40F6A201D5
:100934002748FFF7B3FC61E740F6A7012448FFF717
:10094400ADFC65E740F6AE012148FFF7A7FC70E770
:1009540040F6B5011E48FFF7A1FC7AE740F6BC015A
:100964001B48FFF79BFC84E740F6C3011848FFF7D8
:1009740095FC8EE740F6CA011548FFF78FFC98E70F
:1009840040F6D2011248FFF789FCB3E7636C43B128
:10099400B3F5001F05D0B3F5800F02D0B3F5C00F37
:1009A40007D12268536823F4C003616C0B4353607E
:1009B400ABE740F6D7010648FFF770FCF1E740F6D5
:1009C400DF010348FFF76AFCA8E700BF00380140D5
:1009D400A02500082DE9F04105460F461646984625
:1009E400069C2B68DB6937EA03030CBF0123002351
:1009F400B3421DD1B4F1FF3FF3D02CB100F000F9A4
:100A0400A0EB0800A042ECD92A68136823F4D07341
:100A140013602A68936823F001039360202385F808
:100A2400693085F86A30002385F86830032000E0D7
:100A34000020BDE8F08130B583B004460023C366CE
:100A440000F0DEF8054623681B6813F0080F0ED18A
:100A540023681B6813F0040F17D1202384F869302E
:100A640084F86A30002084F8680003B030BD6FF069
:100A74007E430093034600224FF400112046FFF703
:100A8400A9FF0028E4D00320EFE76FF07E43009332
:100A94002B4600224FF480012046FFF79BFF0028DD
:100AA400DBD00320E1E7000000285FD010B5044646
:100AB4008369002B36D003682D4A93420CD0A2F5EB
:100AC4007442934208D002F58062934204D040F20B
:100AD40031112848FFF7E2FB94F86930002B3BD032
:100AE400242384F869302268136823F00103136017
:100AF4002046FFF7BDFC012813D0636A93BB22682C
:100B0400536823F4904353602268936823F02A03C4
:100B140093602268136843F0010313602046FFF7D3
:100B24008AFF10BD0368124A9342D5D0A2F57442DD
:100B34009342D1D002F580629342CDD002F5806217
:100B44009342C9D002F580629342C5D04FF49B71A1
:100B54000848FFF7A3FBBFE784F868302046FFF797
:100B64000BFCBDE72046FFF743FEC8E701207047B2
:100B740000380140A025000810B504460E4B187833
:100B84004FF47A73B3FBF0F30C4A1068B0FBF3F044
:100B940001F0E4FB68B90F2C01D901200AE000221E
:100BA40021464FF0FF3001F093FB054B1C60002001
:100BB40000E0012010BD00BF00000020080000205C
:100BC4000400002008B5074A136843F010031360BB
:100BD400032001F05FFB0020FFF7CEFFFFF700FCCE
:100BE400002008BD00200240034A1168034B1B7813
:100BF4000B441360704700BF9C00002000000020DD
:100C0400014B1868704700BF9C000020002800F0CA
:100C1400988370B582B00446036813B113F00F0FC4
:100C24002BD0236813F0010F51D063682BB1B3F5B7
:100C3400803F02D0B3F5A02F25D1B24B5B6803F0FF
:100C44000C03042B2CD0AF4B5B6803F00C03082B74
:100C54001FD06368B3F5803F7ED0002B40F0A180A5
:100C640003F1804303F504331A6822F480321A60D6
:100C74001A6822F480221A6073E040F25711A248E5
:100C8400FFF70CFBCDE740F25D119F48FFF706FB31
:100C9400D3E79C4B5B6803F4C033B3F5803FD8D1F2
:100CA4004FF4003393FAA3F3964B19684FF40033CF
:100CB40093FAA3F3B3FA83F303F01F03012202FAB6
:100CC40003F30B4203D06368002B00F03C832368DA
:100CD40013F0020F00F0D580E368012B00F2998035
:100CE40023691F2B00F29B80864B5B6813F00C0F6B
:100CF40000F0A380834B5B6803F00C03082B00F027
:100D04009480E368002B00F00381012292FAA2F39D
:100D1400B3FA83F303F1845303F584139B001A603D
:100D2400FFF76EFF0546022393FAA3F3754B196888
:100D3400022393FAA3F3B3FA83F303F01F0301220C
:100D440002FA03F30B4240F0CE80FFF759FF401B39
:100D54000228E8D90320FDE26A4A136843F4803389
:100D640013606368002B36D0FFF74AFF05464FF443
:100D7400003393FAA3F3634B19684FF4003393FAE7
:100D8400A3F3B3FA83F303F01F03012202FA03F37C
:100D94000B429CD1FFF734FF401B6428E7D90320A2
:100DA400D8E2B3F5A02F09D0564B1A6822F480324A
:100DB4001A601A6822F480221A60D2E703F1804391
:100DC400A3F53C331A6842F480221A601A6842F48C
:100DD40080321A60C5E7FFF713FF05464FF400336E
:100DE40093FAA3F3474B19684FF4003393FAA3F330
:100DF400B3FA83F303F01F03012202FA03F30B4255
:100E04003FF465AFFFF7FCFE401B6428E6D90320DE
:100E1400A0E240F295113C48FFF740FA60E74FF436
:100E2400CB713948FFF73AFA5EE7364B5B6803F457
:100E3400C033B3F5004F7FF464AF022393FAA3F3F6
:100E4400304B1968022393FAA3F3B3FA83F303F044
:100E54001F03012202FA03F30B4204D0E368934216
:100E640001D0012076E22748036823F0F8032169C2
:100E7400F82292FAA2F2B2FA82F201FA02F21343CF
:100E84000360236813F0080F00F097806369012B57
:100E940065D86369002B68D0012191FAA1F2B2FAF6
:100EA40082F21A4B13449B001960FFF7A9FE054612
:100EB400022393FAA3F293FAA3F293FAA3F2114A48
:100EC400516A93FAA3F3B3FA83F303F01F030122E5
:100ED40002FA03F30B4270D1FFF792FE401B022883
:100EE400E6D9032036E20748036823F0F8032169B2
:100EF400F82292FAA2F2B2FA82F201FA02F213434F
:100F04000360BEE700100240D8250008208190103D
:100F1400012393FAA3F3B3FA83F303F1845303F5A0
:100F240084139B0000221A60FFF76AFE0546022321
:100F340093FAA3F3BC4B1968022393FAA3F3B3FA0D
:100F440083F303F01F03012202FA03F30B4298D048
:100F5400FFF756FE401B0228E9D90320FAE14FF4BB
:100F6400EB71B248FFF79AF993E7012292FAA2F2E1
:100F7400B2FA82F2AE4B13449B0000221A60FFF7D0
:100F84003FFE0546022393FAA3F293FAA3F293FADF
:100F9400A3F2A54A516A93FAA3F3B3FA83F303F0D5
:100FA4001F03012202FA03F30B4206D0FFF728FEC7
:100FB400401B0228E6D90320CCE1236813F0040F78
:100FC40000F0C080A368012B01D9052B26D1964BD4
:100FD400DB6913F0805F27D1934BDA6942F08052CA
:100FE400DA61DB6903F080530193019B0125914B86
:100FF4001B6813F4807F19D0A368012B2AD0002B1F
:1010040034D103F1804303F504331A6A22F0010258
:101014001A621A6A22F004021A6220E040F20221E3
:101024008248FFF73BF9D2E70025E0E7814A1368DD
:1010340043F480731360FFF7E3FD06467D4B1B68A2
:1010440013F4807FD8D1FFF7DBFD801B6428F5D92A
:1010540003207FE1744A136A43F001031362A36817
:10106400002B41D0FFF7CCFD06462BE0052B09D021
:101074006D4B1A6A22F001021A621A6A22F0040203
:101084001A62ECE7684B1A6A42F004021A621A6A9E
:1010940042F001021A62E2E7634B196A022393FAEF
:1010A400A3F3B3FA83F303F01F03012202FA03F359
:1010B400194245D1FFF7A4FD801B41F288339842C1
:1010C40000F24381022393FAA3F293FAA3F3B3FA4F
:1010D40083F35B0943F00203022BDDD0022393FA6E
:1010E400A3F3514B596AD9E7FFF78AFD064615E089
:1010F4004D4B196A022393FAA3F3B3FA83F303F073
:101104001F03012202FA03F3194219D0FFF778FDF5
:10111400801B41F28833984200F21981022393FA2A
:10112400A3F293FAA3F3B3FA83F35B0943F0020344
:10113400022BDDD0022393FAA3F33B4B596AD9E780
:10114400002D79D1A369022B7CD8A369002B00F070
:101154000081354A526802F00C02082A00F0FC8033
:10116400022B40F0C280E369B3F5004F02D0B3F51F
:10117400803F6DD1236A4BB3B3F5802F26D0B3F5EE
:10118400002F23D0B3F5402F20D0B3F5801F1DD0FE
:10119400B3F5A01F1AD0B3F5C01F17D0B3F5E01FE5
:1011A40014D0B3F5001F11D0B3F5101F0ED0B3F552
:1011B400201F0BD0B3F5301F08D0B3F5401F05D066
:1011C400B3F5501F02D0B3F5601F47D1636A0F2BEC
:1011D4004AD84FF0807393FAA3F3B3FA83F303F17D
:1011E400845303F584139B0000221A60FFF708FD63
:1011F40005464FF0007393FAA3F30B4B19684FF0B5
:10120400007393FAA3F3B3FA83F303F01F030122E9
:1012140002FA03F319422DD0FFF7F2FC401B022817
:10122400E7D9032096E000BF00100240D82500084B
:101234002081901000700040484AD36923F0805305
:10124400D3617FE740F246214548FFF727F87CE762
:1012540040F24F214248FFF721F88BE74FF4147115
:101264003F48FFF71BF8B1E740F252213C48FFF733
:1012740015F8AEE7394AD36A23F00F03616A0B43CA
:10128400D362536823F47613216AE06901430B4364
:1012940053604FF0807393FAA3F3B3FA83F303F12B
:1012A400845303F584139B0001221A60FFF7A8FC02
:1012B40004464FF0007393FAA3F3284B19684FF0D8
:1012C400007393FAA3F3B3FA83F303F01F03012229
:1012D40002FA03F3194206D1FFF792FC001B02281D
:1012E400E7D9032036E0002034E04FF0807393FA0E
:1012F400A3F3B3FA83F303F1845303F584139B003C
:1013040000221A60FFF77CFC04464FF0007393FA46
:10131400A3F3124B19684FF0007393FAA3F3B3FAD3
:1013240083F303F01F03012202FA03F3194206D0E8
:10133400FFF766FC001B0228E7D903200AE000201F
:1013440008E001207047012004E0032002E00320AC
:1013540000E0002002B070BD0120FBE70010024055
:10136400D8250008174B596801F00C03082B26D127
:1013740001F470124FF4701393FAA3F3B3FA83F3E6
:1013840022FA03F3104AD05C0E4BDB6A03F00F031E
:101394000F2292FAA2F2B2FA82F2D3400B4AD25C42
:1013A40011F4803F05D10A4BB3FBF2F300FB03F0C9
:1013B4007047074BB3FBF2F300FB03F0704704489C
:1013C400704700BF001002401026000820260008C5
:1013D40000127A00002800F01B8170B504460D4607
:1013E400036813F00F0F14D0022D18D88A4B1B6812
:1013F40003F00703AB4218D2874A136823F00703AC
:101404002B431360136803F00703AB420DD0012094
:1014140070BD40F2BA218148FEF740FFE4E740F294
:10142400BB217E48FEF73AFFE0E7236813F0020F82
:1014340018D0A3687BB1802B0DD0902B0BD0A02BA0
:1014440009D0B02B07D0C02B05D0D02B03D0E02B74
:1014540001D0F02B3ED1724A536823F0F003A16807
:101464000B435360236813F0010F69D06368022BA8
:1014740036D86368012B39D0022B4CD0022292FA61
:10148400A2F2674A1068022292FAA2F2B2FA82F237
:1014940002F01F02012101FA02F2104200F0BA80A8
:1014A4005F494A6822F0030213434B60FFF7A8FB2D
:1014B40006465B4B5B6803F00C036268B3EB820F78
:1014C4003ED0FFF79DFB801B41F288339842F0D950
:1014D40003209DE740F2D2215048FEF7DFFEBAE731
:1014E40040F2D9214D48FEF7D9FEC2E74FF400324D
:1014F40092FAA2F24A4A10684FF4003292FAA2F227
:10150400B2FA82F202F01F02012101FA02F202424F
:10151400C6D101207CE74FF0007292FAA2F2404A51
:1015240010684FF0007292FAA2F2B2FA82F202F05C
:101534001F02012101FA02F21042B1D1012067E732
:10154400354B1B6803F00703AB420CD9324A1368CE
:1015540023F007032B431360136803F00703AB4224
:1015640001D0012054E7236813F0040F14D0E3687A
:101574005BB1B3F5806F08D0B3F5A06F05D0B3F5B8
:10158400C06F02D0B3F5E06F36D1254A536823F417
:10159400E063E1680B435360236813F0080F15D030
:1015A40023695BB1B3F5806F08D0B3F5A06F05D0A4
:1015B400B3F5C06F02D0B3F5E06F23D1184A536876
:1015C40023F46053216943EAC1035360FFF7CAFE61
:1015D400134B5B6803F0F003F02292FAA2F2B2FA22
:1015E40082F2D3400F4AD35CD8400F4B18600020DE
:1015F400FFF7C2FA00200BE740F215310748FEF767
:101604004DFEC2E74FF447710448FEF747FED5E7A5
:10161400012070470120FBE600200240D825000885
:10162400001002401027000808000020014B186831
:10163400704700BF0800002008B5FFF7F7FF074B0D
:101644005B6803F4E0634FF4E06292FAA2F2B2FA48
:1016540082F2D340024AD35CD84008BD0010024055
:101664002027000808B5FFF7E1FF074B5B6803F488
:1016740060534FF4605292FAA2F2B2FA82F2D3406B
:10168400024AD35CD84008BD00100240202700085D
:10169400F0B583B004460268A84B9A4200F21A825D
:1016A400236813F4803F54D063684BB1B3F5807F53
:1016B40006D0B3F5007F03D0B3F5407F40F00F822E
:1016C4009F4BDB6913F0805F40F00E829C4BDA691C
:1016D40042F08052DA61DB6903F080530193019B8D
:1016E4000125984B1B6813F4807F00F0FF81944B15
:1016F4001B6A13F4407322D0626802F440729A4267
:101704001DD08F48016A21F440764FF4803393FA58
:10171400A3F2B2FA82F28C4F3A4492004FF0010CD9
:10172400C2F800C093FAA3F3B3FA83F33B449B00DB
:1017340000221A60066211F0010F40F0EC81804A29
:10174400136A23F4407361680B431362002D40F065
:101754000E82236813F0010F0AD0A368032B00F252
:101764000B82774A136B23F00303A1680B431363C3
:10177400236813F0020F12D0E3684BB1B3F5803F36
:1017840006D0B3F5003F03D0B3F5403F40F0F981F4
:101794006B4A136B23F44033E1680B4313632368F0
:1017A40013F0040F12D023694BB1B3F5802F06D088
:1017B400B3F5002F03D0B3F5402F40F0E781604A22
:1017C400136B23F4402321690B431363236813F041
:1017D400200F0BD0E36913B1102B40F0DC81584A81
:1017E400136B23F01003E1690B431363236813F4B1
:1017F400003F0DD0636DB3F5800F02D0002B40F095
:10180400CF814F4A536823F48003616D0B435360C7
:10181400236813F0400F0BD0236A13B1202B40F040
:10182400C481474A136B23F02003216A0B431363DB
:10183400236813F4802F0BD0636A13B1402B40F05C
:10184400BA813F4A136B23F04003616A0B4313636D
:10185400236813F0080F12D063694BB1B3F5801FEE
:1018640006D0B3F5001F03D0B3F5401F40F0A981A3
:10187400334A136B23F4401361690B4313632368E6
:1018840013F0100F12D0A3694BB1B3F5800F06D03B
:10189400B3F5000F03D0B3F5400F40F09881284A08
:1018A400136B23F44003A1690B431363236813F4FC
:1018B400007F0CD0236B1BB1B3F5000F40F08D817A
:1018C4001F4A536823F40003216B0B4353602368BE
:1018D40013F0800F3CD0A36A43B3B3F5807F25D0C7
:1018E400B3F5887F22D0B3F5907F1FD0B3F5987FEE
:1018F4001CD0B3F5A07F19D0B3F5A87F16D0B3F5EB
:10190400B07F13D0B3F5B87F10D0B3F5C07F0DD03E
:10191400B3F5C87F0AD0B3F5D07F07D0B3F5D87F2D
:1019240004D040F269110948FEF7B8FC044AD36AAE
:1019340023F4F873A16A0B43D36209E0FF33F7037E
:101944000010024000700040008190103026000812
:10195400236813F4807F31D0E36A43B3B3F5005FA7
:1019640025D0B3F5085F22D0B3F5105F1FD0B3F5CF
:10197400185F1CD0B3F5205F19D0B3F5285F16D0DB
:10198400B3F5305F13D0B3F5385F10D0B3F5405FD3
:101994000DD0B3F5485F0AD0B3F5505F07D0B3F567
:1019A400585F04D04FF4BD71A948FEF777FCA94AEB
:1019B400D36A23F47853E16A0B43D362236813F4A4
:1019C400805F0CD0636B1BB1B3F5807F40F00B815B
:1019D400A04A136B23F48073616B0B431363236876
:1019E40013F4005F0CD0236C1BB1B3F5007F40F0FF
:1019F4000081984A136B23F40073216C0B43136327
:101A0400236813F4801F0CD0A36B1BB1B3F1807F48
:101A140040F0F5808F4A136B23F08073A16B0B4366
:101A24001363236813F4001F0CD0E36B1BB1B3F1F1
:101A3400007F40F0EA80874A136B23F00073E16B68
:101A44000B431363236813F4800F0CD0636C1BB136
:101A5400B3F5806F40F0DF807E4A136B23F480631C
:101A6400616C0B431363236813F4000F0CD0A36C55
:101A74001BB1B3F5006F40F0D480764A136B23F4A6
:101A84000063A16C0B431363236813F0807F0CD0B5
:101A9400E36C1BB1B3F5005F40F0C9806D4A136B72
:101AA40023F40053E16C0B431363236813F0007FAA
:101AB40000F0CB80236D1BB1B3F5004F40F0BD8027
:101AC400644A136B23F40043216D0B43136300201A
:101AD40003B0F0BD7D215E48FEF7E0FBE0E5832125
:101AE4005B48FEF7DBFBEBE50025FAE55A4A136891
:101AF40043F480731360FFF783F80646564B1B6864
:101B040013F4807F7FF4F3ADFFF77AF8801B642829
:101B1400F4D90320DCE7FFF773F8064615E04D4BD4
:101B2400196A022393FAA3F3B3FA83F303F01F03AE
:101B3400012202FA03F30B427FF401AEFFF760F8CF
:101B4400801B41F2883398427DD8022393FAA3F292
:101B540093FAA3F3B3FA83F35B0943F00203022B72
:101B6400DDD0022393FAA3F33A4B596AD9E7D36938
:101B740023F08053D361ECE5CA213548FEF78EFB90
:101B8400EFE5D5213248FEF789FB01E6E121304833
:101B9400FEF784FB13E6EC212D48FEF77FFB1EE6DF
:101BA400FA212B48FEF77AFB2BE64FF4877128487D
:101BB400FEF774FB35E64FF490712548FEF76EFB93
:101BC4003FE640F22F112248FEF768FB50E640F250
:101BD40039111F48FEF762FB61E640F249111C48C7
:101BE400FEF75CFB6CE64FF4CD711948FEF756FB2B
:101BF400EEE64FF4D6711648FEF750FBF9E640F2D4
:101C040003211348FEF74AFB04E740F20D21104874
:101C1400FEF744FB0FE740F217210D48FEF73EFBA9
:101C24001AE740F221210A48FEF738FB25E740F283
:101C34002B210748FEF732FB30E74FF40E710448BE
:101C4400FEF72CFB3CE7032042E7002040E700BFFF
:101C54003026000800100240007000402DE9F047D3
:101C640082B005460C46B0F1904F1ED0B24B98425C
:101C74001BD003F58063984217D003F58063984224
:101C840013D003F5806398420FD003F58063984224
:101C94000BD003F58063984207D003F58063984224
:101CA40003D0C321A548FEF7F9FA23689AB212B10A
:101CB4001B0C1B041BB1C421A048FEF7EFFA636898
:101CC400012B1ED9112B1CD0022B1AD0122B18D089
:101CD4009B4A934215D002F58012934211D002F52B
:101CE400801293420DD0A2F5F812934209D002F566
:101CF4008012934205D002F58012934201D0032B47
:101D040004D1A368022B06D800264AE0C5218B48DB
:101D1400FEF7C4FAF5E7C6218848FEF7BFFAF3E7F1
:101D2400D6218648FEF7BAFA75E0EA218348FEF721
:101D3400B5FAA0E0062300E000238B4003430232FF
:101D4400804941F82230804B1A68FB4303EA0201C0
:101D5400606810F4803F01D047EA02017A4A1160BA
:101D6400526803EA0201606810F4003F01D047EAB8
:101D74000201754A5160926803EA0201606810F436
:101D8400801F01D047EA02016F4A9160D268134074
:101D9400616811F4001F01D047EA02036A4AD36064
:101DA4000136276837FA06F300F0C3804FF00108C4
:101DB40008FA06F818EA0707F2D06368022B01D084
:101DC400122B38D1B5F1904F1ED05B4B9D421BD0E6
:101DD40003F580639D4217D003F580639D4213D0C1
:101DE40003F580639D420FD003F580639D420BD0C1
:101DF40003F580639D4207D003F580639D4203D0C1
:101E0400D5214E48FEF74AFA23690C2B03D90E2B31
:101E140001D00F2B84D1F208083255F8220006F0C5
:101E2400070399000F238B4020EA030023698B40AA
:101E3400034345F822302A684FEA460A4FF0030963
:101E440009FA0AF96FEA090909EA0202636803F068
:101E5400030303FA0AF313432B6063685A1E012A2F
:101E640003D9112B01D0122B17D1E368012B02D90E
:101E7400032B7FF45AAFAA6809EA0202E36803FA63
:101E84000AF31343AB606B6823EA08086368C3F37F
:101E94000013B34043EA08036B60EB6809EA0309E3
:101EA400A36803FA0AF343EA0903EB60636813F0D7
:101EB400805F3FF475AF254B9A6942F001029A6145
:101EC4009B6903F001030193019BB208911C1D4B14
:101ED40053F8210006F0030399000F238B4020EAF6
:101EE4000300B5F1904F3FF427AF134B9D4216D03A
:101EF40003F580639D4214D003F580639D4212D0A4
:101F040003F580639D4210D003F580639D420ED09B
:101F140003F580639D423FF40DAF07230DE70123D2
:101F24000BE7022309E7032307E7042305E7052357
:101F340003E702B0BDE8F087000400486826000803
:101F44000000111000000140000401400010024094
:101F540070B5054614460E4621B1012C08D86CB95B
:101F6400AE6270BD4FF4D8710548FEF797F9F4E7F7
:101F740040F2B1110248FEF791F9F0E7AE61F0E7E3
:101F84006826000870B4066CC56B0124B4406C600C
:101F9400046863604368102B05D003689960036884
:101FA400DA6070BC704703689A600368D960F8E728
:101FB40002680C4B9A420AD90B4B13440B4AA2FBFE
:101FC40003231B099B000364094BC3637047094B3C
:101FD4001344064AA2FB03231B099B000364064B1C
:101FE400C363704707040240F8FBFDBFCDCCCCCCE3
:101FF40000040240F8FFFDBF00000240002800F08A
:10200400A28010B504460368504A934225D0143286
:10201400934222D0143293421FD0143293421CD0E4
:102024001432934219D01432934216D0143293428C
:1020340013D002F5627293420FD0143293420CD043
:102044001432934209D01432934206D0143293428C
:1020540003D0A4213E48FEF721F9636823B1102B75
:1020640002D0B3F5804F4BD1A368402B01D0002B95
:102074004BD1E368802B01D0002B4BD123692BB1CA
:10208400B3F5807F02D0B3F5007F48D163692BB1EB
:10209400B3F5806F02D0B3F5006F45D1A3690BB1DE
:1020A400202B46D1E36943B1B3F5805F05D0B3F586
:1020B400005F02D0B3F5405F40D1022384F82130A1
:1020C40021680A6822F47F5222F030026368A06813
:1020D4000343E06803432069034360690343A06941
:1020E4000343E069034313430B602046FFF760FF9B
:1020F4000020A063012384F8213084F8200010BD5F
:10210400A5211348FEF7CAF8AEE7A6211048FEF74A
:10211400C5F8AEE7A7210E48FEF7C0F8AEE7A82140
:102124000B48FEF7BBF8B1E7A9210948FEF7B6F85A
:10213400B4E7AA210648FEF7B1F8B3E7AB21044897
:10214400FEF7ACF8B9E70120704700BF0800024071
:10215400A02600082DE9F04104460F4690461E468D
:102164005A1E4FF6FE739A4210D894F82030012B71
:1021740029D0012384F8203094F82130012B0BD08E
:10218400002384F820300220BDE8F0814FF49771D9
:102194000E48FEF783F8E8E7022384F8213000258F
:1021A400A5632268136823F0010313603346424693
:1021B40039462046FFF7E6FE2268136843F0010320
:1021C40013602846E0E70220DEE700BFA0260008EF
:1021D4002DE9F84390F82130022B07D004238363C0
:1021E400002380F820300120BDE8F88303681B68D1
:1021F40013F0200F26D151BB036C02279F401646D3
:1022040088460446FEF7FCFC8146E56B2B683B429E
:102214002CD12968226C0823934019421BD1B6F1B2
:10222400FF3FF2D02EB1FEF7EBFCA0EB0900B04269
:10223400EBD92023A363012084F82100002384F830
:102244002030D1E74FF4807383630120CCE7036C23
:1022540004279F40D3E7012000FA02F26A60A063DA
:1022640084F82100002384F82030BDE7B8F1000F82
:102274000AD1226C022393406B60012384F821303D
:10228400002084F82000AFE7226C042393406B60A5
:10229400F6E7000010B50446C31E042B0FD80A4A03
:1022A400D36823F4E0631B041B0C240204F4E064ED
:1022B400234343F0BF6343F40033D36010BDBC2118
:1022C4000248FDF7EBFFEAE700ED00E0D82600083E
:1022D40070B505460C4616460F2A25D80F2C28D86B
:1022E4001B4BDB68C3F30223C3F10702042A28BF94
:1022F4000422191D062921D9033B4FF0FF3101FAAD
:1023040002F224EA02049C4001FA03F326EA0306DB
:102314003443002D14DB2401E4B205F1604505F5D6
:10232400614585F8004370BDD4210A48FDF7B6FF26
:10233400D4E7D5210748FDF7B1FFD1E70023DCE757
:1023440005F00F052401E4B2034B5C55EBE700BF35
:1023540000ED00E0D826000814ED00E00138B0F1EB
:10236400807F0AD2064B5860064AF02182F8231077
:102374000020986007221A6070470120704700BF50
:1023840010E000E000ED00E010B50446042800D0A1
:1023940038B9042C0BD0094A136823F004031360E2
:1023A40010BD40F2E1110648FDF778FFF1E7034A5A
:1023B400136843F004031360F2E700BF10E000E089
:1023C400D8260008704708B5FFF7FCFF08BD0000D9
:1023D4001549D1F8883043F47003C1F88830134BA1
:1023E4001A6842F001021A605868114A02405A60A1
:1023F4001A6822F0847222F480321A601A6822F475
:1024040080221A605A6822F4FE025A60DA6A22F0C4
:102414000F02DA62186B074A02401A6300229A60BC
:102424004FF000638B60704700ED00E00010024045
:102434000CC07FF8CCFC00FF82B0064B5A6942F016
:1024440001025A615B6903F001030193019B02B02D
:10245400704700BF0010024080B5FFF7EDFFFDF7A5
:102464006BFF1748174B03601023436000238360FE
:102474008022C260036143618361C361FFF7BEFDD3
:10248400114B1F68114C256828353846FDF7A0FE0E
:102494000B4E03462A4639463046FFF75BFE226858
:1024A400936843F0800393604FF0FF32002130467D
:1024B400FFF78EFE2268936823F080039360DFE7C2
:1024C400A0000020800002400C0000202C0000200E
:1024D400DFF834D0002103E00C4B5B584350043147
:1024E4000B480C4B42189A42F6D30B4A02E00023E5
:1024F40042F8043B094B9A42F9D3FFF769FF00F015
:1025040011F8FDF7BFFEFEE7000001207027000868
:10251400000000201000002010000020E400002033
:10252400FEE7000070B50D4E0D4CA41BA410002551
:10253400A54209D10B4E0C4C00F018F8A41BA410B2
:102544000025A54205D170BD56F8253098470135C0
:10255400EEE756F8253098470135F2E7682700087A
:1025640068270008682700086C270008F8B500BF32
:10257400F8BC08BC9E467047F8B500BFF8BC08BC60
:042584009E467047B8
:102588005372632F6D61696E2E6300005372632F5F
:1025980075736172742E6300447269766572732F65
:1025A80053544D3332463378785F48414C5F447218
:1025B800697665722F5372632F73746D3332663385
:1025C80078785F68616C5F756172742E63000000D3
:1025D800447269766572732F53544D33324633789B
:1025E800785F48414C5F4472697665722F53726315
:1025F8002F73746D3332663378785F68616C5F72FD
:1026080063632E630000000002030405060708093F
:102618000A0B0C0D0E0F1010010203040506070823
:10262800090A0B0C0D0E0F10447269766572732F30
:1026380053544D3332463378785F48414C5F447287
:10264800697665722F5372632F73746D33326633F4
:1026580078785F68616C5F7263635F65782E63008A
:10266800447269766572732F53544D33324633780A
:10267800785F48414C5F4472697665722F53726384
:102688002F73746D3332663378785F68616C5F6777
:1026980070696F2E63000000447269766572732F4B
:1026A80053544D3332463378785F48414C5F447217
:1026B800697665722F5372632F73746D3332663384
:1026C80078785F68616C5F646D612E63000000005C
:1026D800447269766572732F53544D33324633789A
:1026E800785F48414C5F4472697665722F53726314
:1026F8002F73746D3332663378785F68616C5F630B
:102708006F727465782E63000000000000000000FE
:10271800010203040607080900000000010203047F
:1027280048656C6C6F2053544D3332204C6F76657E
:102738007273212054686973206D657373616765CE
:10274800206973207472616E7366657272656420A5
:10275800696E20444D41204D6F64652E0D0A0000BE
:04276800B9010008AB
:04276C0095010008CB
:10277000010000001000000000127A002827000865
:04000005080024D5F6
:00000001FF
