:020000040800F2
:100000000000012019260008B9030008BB030008FE
:10001000BD030008BF030008C10300080000000082
:10002000000000000000000000000000C303000802
:10003000C503000800000000C7030008C90300084A
:100040006926000869260008692600086926000854
:100050006926000869260008692600086926000844
:100060006926000869260008692600086926000834
:100070006926000869260008692600086926000824
:100080006926000869260008692600086926000814
:100090006926000869260008692600086926000804
:1000A00069260008692600086926000869260008F4
:1000B00069260008692600086926000869260008E4
:1000C00069260008692600086926000869260008D4
:1000D00069260008692600086926000869260008C4
:1000E000FD25000869260008692600086926000821
:1000F00069260008692600086926000869260008A4
:1001000069260008000000000000000069260008C1
:100110006926000869260008A1250008692600084C
:100120006926000869260008692600086926000873
:100130006926000869260008000000000000000091
:1001400069260008692600086926000800000000EA
:10015000000000000000000000000000000000009F
:100160006926000869260008692600086926000833
:100170006926000869260008692600086926000823
:100180006926000869260008000000000000000041
:0401900069260008D4
:1001940010B5054C237833B9044B13B10448AFF3BD
:1001A40000800123237010BD0C000020000000001B
:1001B400B426000808B5034B1BB103490348AFF349
:1001C400008008BD0000000010000020B4260008D4
:1001D400FEE7000000B5A7B002231C9301221F9282
:1001E4001022209222934FF4004323934FF4E01300
:1001F4002493002325931CA800F0F6FE48BB0F238C
:10020400179302211891002319934FF480621A92D4
:100214001B9317A801F0CCFAF8B902230193002329
:10022400049301A801F022FCD8B901F0EDFB0F4BB7
:10023400A3FB0030800902F01DF9042002F030F91C
:10024400002211464FF0FF3002F0B8F827B05DF8F5
:1002540004FB8A210648FFF7BBFF98210448FFF7F7
:10026400B7FF9F210248FFF7B3FF00BFD34D6210D1
:10027400CC26000808B500F093FEFFF7ABFF00F0B2
:1002840007F800F051F802F099F9FCE77047000014
:1002940010B58AB0214B5A6942F400225A615A6956
:1002A40002F400220192019A5A6942F480025A61CE
:1002B4005A6902F480020292029A5A6942F40032A4
:1002C4005A615A6902F400320392039A5A6942F459
:1002D40080225A615B6903F480230493049B002207
:1002E40020214FF0904002F021F84FF40053059381
:1002F4000B4B06930024079405A90A4801F09CFEC1
:1003040020230593012306930794089405A94FF02D
:10031400904001F091FE0AB010BD00BF00100240F1
:10032400000021100008004808B50C480C4B03607D
:100334004FF41643436000238360C36003610C22BF
:1003440042618361C3610362436200F09BFD00B9B3
:1003540008BD44210348FFF73BFFF9E728000020CC
:1003640000440040D82600080268114B9A4200D08D
:10037400704700B587B003F5E633DA6942F400321A
:10038400DA61DB6903F400330093009B0C230193CF
:10039400022302930023039304930723059301A9E3
:1003A4004FF0904001F048FE07B05DF804FB00BF39
:1003B400004400407047FEE7FEE7FEE7FEE77047B3
:1003C4007047704708B500F0FDFD02F088F808BDDD
:1003D40000B583B0214B9A6942F001029A619A698F
:1003E40002F001020092009ADA6942F08052DA6166
:1003F400DB6903F080530193019B072001F0C0FFE8
:10040400002211466FF00B0001F0D8FF00221146C4
:100414006FF00A0001F0D2FF002211466FF00900CC
:1004240001F0CCFF002211466FF0040001F0C6FF7A
:10043400002211466FF0030001F0C0FF00221146B4
:100444006FF0010001F0BAFF002211464FF0FF30B7
:1004540001F0B4FF03B05DF804FB00BF00100240DC
:100464007047000010B5044603681D4A93422BD020
:10047400B3F1804F28D0A2F59432934224D002F5F0
:100484008062934220D002F5006293421CD002F5B0
:100494008062934218D002F59032934214D002F550
:1004A4004062934210D002F5806293420CD002F570
:1004B4008062934208D002F50062934204D040F275
:1004C4005F110848FFF7E2FE2268D36843F0010396
:1004D400D3602268136843F001031360002010BD49
:1004E400002C0140E42600087047704770477047AD
:1004F40010B5044603681A6912F0020F11D0DA68C5
:1005040012F0020F0DD06FF002021A61012303777B
:1005140003689B6913F0030F79D0FFF7E6FF00230C
:10052400237723681A6912F0040F12D0DA6812F0E4
:10053400040F0ED06FF004021A610223237723689C
:100544009B6913F4407F68D02046FFF7CEFF002359
:10055400237723681A6912F0080F12D0DA6812F0B0
:10056400080F0ED06FF008021A6104232377236862
:10057400DB6913F0030F57D02046FFF7B6FF0023C3
:10058400237723681A6912F0100F12D0DA6812F078
:10059400100F0ED06FF010021A610823237723681E
:1005A400DB6913F4407F46D02046FFF79EFF00230B
:1005B400237723681A6912F0010F03D0DA6812F066
:1005C400010F3FD123681A6912F0800F03D0DA6853
:1005D40012F0800F3DD123681A6912F4807F03D092
:1005E400DA6812F0800F3BD123681A6912F0400FC9
:1005F40003D0DA6812F0400F39D123681A6912F077
:10060400200F03D0DA6812F0200F37D110BDFFF7A6
:100614006BFF2046FFF76AFF81E72046FFF764FF80
:100624002046FFF763FF92E72046FFF75DFF204671
:10063400FFF75CFFA3E72046FFF756FF2046FFF7CE
:1006440055FFB4E76FF001021A61204601F0C0FFC4
:10065400B8E76FF080021A61204600F0F4F8BAE7B8
:100664006FF480721A61204600F0EEF8BCE76FF078
:1006740040021A612046FFF73AFFBEE76FF02002FE
:100684001A61204600F0DEF8C0E700000368324A31
:10069400904212D0B0F1804F0FD0A2F59432904224
:1006A4000BD002F58062904207D002F59632904258
:1006B40003D002F5E052904203D123F070034A685C
:1006C4001343254A90421ED0B0F1804F1BD0A2F5AF
:1006D4009432904217D002F58062904213D002F512
:1006E400963290420FD002F5406290420BD002F550
:1006F4008062904207D002F58062904203D002F5F6
:100704000062904203D123F44073CA68134323F078
:1007140080034A69134303608B68C3620B68836276
:100724000D4B984213D003F5006398420FD003F5A4
:10073400406398420BD003F58063984207D003F5D9
:100744008063984203D003F50063984201D10B699A
:100754000363012343617047002C014000286AD0E1
:1007640010B504460368354A93422AD0B3F1804F4A
:1007740027D0A2F59432934223D002F580629342AB
:100784001FD002F5006293421BD002F580629342AF
:1007940017D002F59032934213D002F5406293428F
:1007A4000FD002F5806293420BD002F5806293422F
:1007B40007D002F50062934203D0D5212048FFF709
:1007C40065FDA3683BB1102B05D0202B03D0402B33
:1007D40001D0602B1AD123692BB1B3F5807F02D0ED
:1007E400B3F5007F17D1A3690BB1802B18D194F80E
:1007F4003D30D3B1022384F83D30211D2068FFF73A
:1008040045FF012384F83D30002010BDD6210C485B
:10081400FFF73CFDDFE7D7210948FFF737FDE2E7A3
:10082400D8210748FFF732FDE1E784F83C30204641
:10083400FFF716FEDEE70120704700BF002C0140E1
:10084400E4260008704770477047000010B504465E
:100854004268984B9A427CD8A368B3F1805F03D076
:1008640013B1B3F5805F7AD1E368B3F5805F06D046
:100874002BB1B3F5405F02D0B3F5005F75D12369A6
:100884002BB1B3F5806F02D0B3F5C06F73D1636938
:1008940033F00C0200D123B940F63D018648FFF73E
:1008A400F5FCA36943B1B3F5807F05D0B3F5007FB0
:1008B40002D0B3F5407F64D1236A13B1B3F5006F5E
:1008C40065D1E36913B1B3F5004F66D1A36822691A
:1008D400134362691343E269134321680868774A42
:1008E400024013430B602268536823F44053E168C9
:1008F4000B435360A369226A1A4321688B6823F46B
:10090400306313438B6023686D4A93424BD06D4A26
:1009140093425BD06C4A934272D06C4A934200F08B
:1009240089806B4A934200F09F801022E169B1F5FF
:10093400004F00F0B580082A00F24581DFE812F08C
:1009440009011501210143012D0143014301430123
:10095400390140F639015848FFF798FC7CE740F626
:100964003A015548FFF792FC7EE740F63B015248B6
:10097400FFF78CFC83E740F63C014F48FFF786FC09
:1009840085E740F63E014C48FFF780FC94E740F6CB
:100994003F014948FFF77AFC93E74FF40461464866
:1009A400FFF774FC92E702F55842126B02F003025F
:1009B400032A09D8DFE802F0020406720122B5E72F
:1009C4000422B3E70822B1E71022AFE702F5E632CA
:1009D400126B02F44032B2F5803F0BD007D9B2F566
:1009E400003F09D0B2F5403F08D102229EE72AB960
:1009F40000229BE7042299E7082297E7102295E753
:100A040002F5E432126B02F44022B2F5802F0BD0CF
:100A140007D9B2F5002F09D0B2F5402F08D1022230
:100A240084E72AB9002281E704227FE708227DE7D0
:100A340010227BE702F5E232126B02F44012B2F5A7
:100A4400801F0BD007D9B2F5001F09D0B2F5401FA3
:100A540008D102226AE72AB9002267E7042265E77F
:100A6400082263E7102261E702F5E032126B02F418
:100A74004002B2F5800F0BD007D9B2F5000F09D0B0
:100A8400B2F5400F08D1022250E72AB900224DE7FF
:100A940004224BE7082249E7102247E7022245E7F0
:100AA400082A53D8DFE802F0162833523E52525235
:100AB400490000BF405489001C270008F369FFEF78
:100AC400003801400044004000480040004C004011
:100AD4000050004000F09EFF6268530803EB40039F
:100AE400B3FBF2F39BB2002023F00F02C3F34203E3
:100AF40013432268D36010BD00F0A2FF626853085C
:100B040003EB4003B3FBF2F39BB20020ECE7626813
:100B1400530803F5740303F51053B3FBF2F39BB2CC
:100B24000020E1E700F00CFE6268530803EB400389
:100B3400B3FBF2F39BB20020D6E76268530803F5D7
:100B44008033B3FBF2F39BB20020CDE701200023F6
:100B5400CAE700F05FFF636800EB5300B0FBF3F0FB
:100B6400236880B2D8600020C5E700F069FF63689D
:100B740000EB5300B0FBF3F0236880B2D860002090
:100B8400B9E761684A0802F5F40202F59052B2FB33
:100B9400F1F292B2DA600020ADE700F0D1FD6368B3
:100BA40000EB5300B0FBF3F0236880B2D860002060
:100BB400A1E761684A0802F50042B2FBF1F292B281
:100BC400DA60002097E7012095E700BF10B50446DE
:100BD400436AFF2B00F29880636A13F0010F0CD074
:100BE400A36A1BB1B3F5003F40F0948022685368B8
:100BF40023F40033A16A0B435360636A13F0020FBA
:100C04000CD0E36A1BB1B3F5803F40F089802268C1
:100C1400536823F48033E16A0B435360636A13F02F
:100C2400040F0BD0236B13B1B3F5802F7ED1226850
:100C3400536823F48023216B0B435360636A13F0DE
:100C4400080F0BD0636B13B1B3F5004F74D1226856
:100C5400536823F40043616B0B435360636A13F0DE
:100C6400100F0BD0A36B13B1B3F5805F6AD1226868
:100C7400936823F48053A16B0B439360636A13F06E
:100C8400200F0BD0E36B13B1B3F5005F60D1226882
:100C9400936823F40053E16B0B439360636A13F08E
:100CA400400F20D02368404A93420CD0A2F57442EE
:100CB400934208D002F58062934204D040F6D101F9
:100CC4003A48FFF7E3FA236C13B1B3F5801F45D11B
:100CD4002268536823F48013216C0B435360236C04
:100CE400B3F5801F40D0636A13F0800F0BD0A36C60
:100CF40013B1B3F5002F50D12268536823F40023B5
:100D0400A16C0B43536010BD40F6A2012748FFF7C6
:100D1400BDFA61E740F6A7012448FFF7B7FA65E793
:100D240040F6AE012148FFF7B1FA70E740F6B5018D
:100D34001E48FFF7ABFA7AE740F6BC011B48FFF701
:100D4400A5FA84E740F6C3011848FFF79FFA8EE737
:100D540040F6CA011548FFF799FA98E740F6D20120
:100D64001248FFF793FAB3E7636C43B1B3F5001F7E
:100D740005D0B3F5800F02D0B3F5C00F07D12268B8
:100D8400536823F4C003616C0B435360ABE740F634
:100D9400D7010648FFF77AFAF1E740F6DF01034886
:100DA400FFF774FAA8E700BF003801401C270008C9
:100DB4002DE9F04105460F4616469846069C2B68D9
:100DC400DB6937EA03030CBF01230023B3421DD1BF
:100DD400B4F1FF3FF3D02CB100F000F9A0EB080010
:100DE400A042ECD92A68136823F4D07313602A68EC
:100DF400936823F001039360202385F8693085F814
:100E04006A30002385F86830032000E00020BDE844
:100E1400F08130B583B004460023C36600F0DEF8E9
:100E2400054623681B6813F0080F0ED123681B685E
:100E340013F0040F17D1202384F8693084F86A3042
:100E4400002084F8680003B030BD6FF07E43009347
:100E5400034600224FF400112046FFF7A9FF0028A3
:100E6400E4D00320EFE76FF07E4300932B4600228B
:100E74004FF480012046FFF79BFF0028DBD00320BE
:100E8400E1E7000000285FD010B504468369002B19
:100E940036D003682D4A93420CD0A2F57442934293
:100EA40008D002F58062934204D040F23111284800
:100EB400FFF7ECF994F86930002B3BD0242384F835
:100EC40069302268136823F0010313602046FFF79A
:100ED400BDFC012813D0636A93BB2268536823F4D2
:100EE400904353602268936823F02A039360226836
:100EF400136843F0010313602046FFF78AFF10BD17
:100F04000368124A9342D5D0A2F574429342D1D0D9
:100F140002F580629342CDD002F580629342C9D03B
:100F240002F580629342C5D04FF49B710848FFF7E5
:100F3400ADF9BFE784F868302046FFF715FABDE73E
:100F44002046FFF743FEC8E7012070470038014000
:100F54001C27000810B504460E4B18784FF47A731A
:100F6400B3FBF0F30C4A1068B0FBF3F001F082FA23
:100F740068B90F2C01D901200AE0002221464FF064
:100F8400FF3001F01BFA054B1C60002000E001203B
:100F940010BD00BF00000020080000200400002055
:100FA40008B5074A136843F010031360032001F0E7
:100FB400E7F90020FFF7CEFFFFF70AFA002008BD8B
:100FC40000200240034A1168034B1B780B44136052
:100FD400704700BF9800002000000020014B1868F3
:100FE400704700BF98000020002800F0988370B577
:100FF40082B00446036813B113F00F0F2BD023689B
:1010040013F0010F51D063682BB1B3F5803F02D0C8
:10101400B3F5A02F25D1B24B5B6803F00C03042B6E
:101024002CD0AF4B5B6803F00C03082B1FD0636814
:10103400B3F5803F7ED0002B40F0A18003F18043C4
:1010440003F504331A6822F480321A601A6822F411
:1010540080221A6073E040F25711A248FFF716F994
:10106400CDE740F25D119F48FFF710F9D3E79C4BA1
:101074005B6803F4C033B3F5803FD8D14FF4003339
:1010840093FAA3F3964B19684FF4003393FAA3F33E
:10109400B3FA83F303F01F03012202FA03F30B42B2
:1010A40003D06368002B00F03C83236813F0020F25
:1010B40000F0D580E368012B00F2998023691F2B8F
:1010C40000F29B80864B5B6813F00C0F00F0A3804A
:1010D400834B5B6803F00C03082B00F09480E368F7
:1010E400002B00F00381012292FAA2F3B3FA83F3F6
:1010F40003F1845303F584139B001A60FFF76EFF1A
:101104000546022393FAA3F3754B1968022393FA55
:10111400A3F3B3FA83F303F01F03012202FA03F3E8
:101124000B4240F0CE80FFF759FF401B0228E8D95C
:101134000320FDE26A4A136843F480331360636852
:10114400002B36D0FFF74AFF05464FF4003393FADD
:10115400A3F3634B19684FF4003393FAA3F3B3FA80
:1011640083F303F01F03012202FA03F30B429CD121
:10117400FFF734FF401B6428E7D90320D8E2B3F516
:10118400A02F09D0564B1A6822F480321A601A68CC
:1011940022F480221A60D2E703F18043A3F53C33A2
:1011A4001A6842F480221A601A6842F480321A6083
:1011B400C5E7FFF713FF05464FF4003393FAA3F393
:1011C400474B19684FF4003393FAA3F3B3FA83F34C
:1011D40003F01F03012202FA03F30B423FF465AF4D
:1011E400FFF7FCFE401B6428E6D90320A0E240F28E
:1011F40095113C48FFF74AF860E74FF4CB71394842
:10120400FFF744F85EE7364B5B6803F4C033B3F58D
:10121400004F7FF464AF022393FAA3F3304B1968B1
:10122400022393FAA3F3B3FA83F303F01F03012217
:1012340002FA03F30B4204D0E368934201D0012085
:1012440076E22748036823F0F8032169F82292FA2A
:10125400A2F2B2FA82F201FA02F2134303602368A3
:1012640013F0080F00F097806369012B65D8636958
:10127400002B68D0012191FAA1F2B2FA82F21A4B42
:1012840013449B001960FFF7A9FE0546022393FA55
:10129400A3F293FAA3F293FAA3F2114A516A93FACE
:1012A400A3F3B3FA83F303F01F03012202FA03F357
:1012B4000B4270D1FFF792FE401B0228E6D90320AF
:1012C40036E20748036823F0F8032169F82292FA0A
:1012D400A2F2B2FA82F201FA02F213430360BEE709
:1012E400001002405427000820819010012393FA33
:1012F400A3F3B3FA83F303F1845303F584139B003C
:1013040000221A60FFF76AFE0546022393FAA3F34C
:10131400BC4B1968022393FAA3F3B3FA83F303F0E3
:101324001F03012202FA03F30B4298D0FFF756FE83
:10133400401B0228E9D90320FAE14FF4EB71B248CB
:10134400FEF7A4FF93E7012292FAA2F2B2FA82F224
:10135400AE4B13449B0000221A60FFF73FFE054684
:10136400022393FAA3F293FAA3F293FAA3F2A54AFF
:10137400516A93FAA3F3B3FA83F303F01F03012230
:1013840002FA03F30B4206D0FFF728FE401B0228A3
:10139400E6D90320CCE1236813F0040F00F0C080E9
:1013A400A368012B01D9052B26D1964BDB6913F0D9
:1013B400805F27D1934BDA6942F08052DA61DB69AE
:1013C40003F080530193019B0125914B1B6813F497
:1013D400807F19D0A368012B2AD0002B34D103F1CC
:1013E400804303F504331A6A22F001021A621A6A6E
:1013F40022F004021A6220E040F202218248FEF741
:1014040045FFD2E70025E0E7814A136843F480737F
:101414001360FFF7E3FD06467D4B1B6813F4807FE2
:10142400D8D1FFF7DBFD801B6428F5D903207FE1C9
:10143400744A136A43F001031362A368002B41D07A
:10144400FFF7CCFD06462BE0052B09D06D4B1A6A3D
:1014540022F001021A621A6A22F004021A62ECE70C
:10146400684B1A6A42F004021A621A6A42F00102D4
:101474001A62E2E7634B196A022393FAA3F3B3FAFD
:1014840083F303F01F03012202FA03F3194245D147
:10149400FFF7A4FD801B41F28833984200F2438198
:1014A400022393FAA3F293FAA3F3B3FA83F35B0947
:1014B40043F00203022BDDD0022393FAA3F3514B32
:1014C400596AD9E7FFF78AFD064615E04D4B196ABC
:1014D400022393FAA3F3B3FA83F303F01F03012265
:1014E40002FA03F3194219D0FFF778FD801B41F289
:1014F4008833984200F21981022393FAA3F293FAF3
:10150400A3F3B3FA83F35B0943F00203022BDDD0A8
:10151400022393FAA3F33B4B596AD9E7002D79D1FF
:10152400A369022B7CD8A369002B00F00081354A03
:10153400526802F00C02082A00F0FC80022B40F0F2
:10154400C280E369B3F5004F02D0B3F5803F6DD19B
:10155400236A4BB3B3F5802F26D0B3F5002F23D0E5
:10156400B3F5402F20D0B3F5801F1DD0B3F5A01FD5
:101574001AD0B3F5C01F17D0B3F5E01F14D0B3F5DC
:10158400001F11D0B3F5101F0ED0B3F5201F0BD0E0
:10159400B3F5301F08D0B3F5401F05D0B3F5501F85
:1015A40002D0B3F5601F47D1636A0F2B4AD84FF0BE
:1015B400807393FAA3F3B3FA83F303F1845303F52B
:1015C40084139B0000221A60FFF708FD05464FF0C4
:1015D400007393FAA3F30B4B19684FF0007393FA5B
:1015E400A3F3B3FA83F303F01F03012202FA03F314
:1015F40019422DD0FFF7F2FC401B0228E7D9032043
:1016040096E000BF0010024054270008208190108B
:1016140000700040484AD36923F08053D3617FE7C8
:1016240040F246214548FEF731FE7CE740F24F2167
:101634004248FEF72BFE8BE74FF414713F48FEF748
:1016440025FEB1E740F252213C48FEF71FFEAEE70B
:10165400394AD36A23F00F03616A0B43D362536898
:1016640023F47613216AE06901430B4353604FF07E
:10167400807393FAA3F3B3FA83F303F1845303F56A
:1016840084139B0001221A60FFF7A8FC04464FF064
:10169400007393FAA3F3284B19684FF0007393FA7D
:1016A400A3F3B3FA83F303F01F03012202FA03F353
:1016B400194206D1FFF792FC001B0228E7D9032048
:1016C40036E0002034E04FF0807393FAA3F3B3FACA
:1016D40083F303F1845303F584139B0000221A60FF
:1016E400FFF77CFC04464FF0007393FAA3F3124B0C
:1016F40019684FF0007393FAA3F3B3FA83F303F07A
:101704001F03012202FA03F3194206D0FFF766FC15
:10171400001B0228E7D903200AE0002008E001208A
:101724007047012004E0032002E0032000E00020D1
:1017340002B070BD0120FBE70010024054270008EE
:10174400174B596801F00C03082B26D101F47012D1
:101754004FF4701393FAA3F3B3FA83F322FA03F367
:10176400104AD05C0E4BDB6A03F00F030F2292FA8F
:10177400A2F2B2FA82F2D3400B4AD25C11F4803F57
:1017840005D10A4BB3FBF2F300FB03F07047074BA0
:10179400B3FBF2F300FB03F070470448704700BF4B
:1017A400001002408C2700089C27000800127A00D1
:1017B400002800F01B8170B504460D46036813F041
:1017C4000F0F14D0022D18D88A4B1B6803F007039F
:1017D400AB4218D2874A136823F007032B431360E4
:1017E400136803F00703AB420DD0012070BD40F233
:1017F400BA218148FEF74AFDE4E740F2BB217E4866
:10180400FEF744FDE0E7236813F0020F18D0A36845
:101814007BB1802B0DD0902B0BD0A02B09D0B02BFB
:1018240007D0C02B05D0D02B03D0E02B01D0F02B58
:101834003ED1724A536823F0F003A1680B4353600E
:10184400236813F0010F69D06368022B36D86368EC
:10185400012B39D0022B4CD0022292FAA2F2674A11
:101864001068022292FAA2F2B2FA82F202F01F0285
:10187400012101FA02F2104200F0BA805F494A687D
:1018840022F0030213434B60FFF7A8FB06465B4BB1
:101894005B6803F00C036268B3EB820F3ED0FFF782
:1018A4009DFB801B41F288339842F0D903209DE7C9
:1018B40040F2D2215048FEF7E9FCBAE740F2D921C0
:1018C4004D48FEF7E3FCC2E74FF4003292FAA2F26D
:1018D4004A4A10684FF4003292FAA2F2B2FA82F243
:1018E40002F01F02012101FA02F20242C6D10120D4
:1018F4007CE74FF0007292FAA2F2404A10684FF06F
:10190400007292FAA2F2B2FA82F202F01F020121EC
:1019140001FA02F21042B1D1012067E7354B1B688E
:1019240003F00703AB420CD9324A136823F00703D0
:101934002B431360136803F00703AB4201D001206B
:1019440054E7236813F0040F14D0E3685BB1B3F5D4
:10195400806F08D0B3F5A06F05D0B3F5C06F02D087
:10196400B3F5E06F36D1254A536823F4E063E168A8
:101974000B435360236813F0080F15D023695BB140
:10198400B3F5806F08D0B3F5A06F05D0B3F5C06F81
:1019940002D0B3F5E06F23D1184A536823F460539F
:1019A400216943EAC1035360FFF7CAFE134B5B6826
:1019B40003F0F003F02292FAA2F2B2FA82F2D340D8
:1019C4000F4AD35CD8400F4B18600020FFF7C2FACF
:1019D40000200BE740F215310748FEF757FCC2E739
:1019E4004FF447710448FEF751FCD5E701207047D6
:1019F4000120FBE6002002405427000800100240AA
:101A04005428000808000020014B1868704700BFE4
:101A14000800002008B5FFF7F7FF074B5B6803F4E5
:101A2400E0634FF4E06292FAA2F2B2FA82F2D34097
:101A3400024AD35CD84008BD001002406428000864
:101A440008B5FFF7E1FF074B5B6803F460534FF4FD
:101A5400605292FAA2F2B2FA82F2D340024AD35C02
:101A6400D84008BD0010024064280008F0B583B0D7
:101A740004460268A84B9A4200F21A82236813F4BF
:101A8400803F54D063684BB1B3F5807F06D0B3F583
:101A9400007F03D0B3F5407F40F00F829F4BDB699A
:101AA40013F0805F40F00E829C4BDA6942F0805262
:101AB400DA61DB6903F080530193019B0125984BA4
:101AC4001B6813F4807F00F0FF81944B1B6A13F4AE
:101AD400407322D0626802F440729A421DD08F484B
:101AE400016A21F440764FF4803393FAA3F2B2FAF8
:101AF40082F28C4F3A4492004FF0010CC2F800C0BD
:101B040093FAA3F3B3FA83F33B449B0000221A60D5
:101B1400066211F0010F40F0EC81804A136A23F44D
:101B2400407361680B431362002D40F00E822368FA
:101B340013F0010F0AD0A368032B00F20B82774A3B
:101B4400136B23F00303A1680B431363236813F09F
:101B5400020F12D0E3684BB1B3F5803F06D0B3F562
:101B6400003F03D0B3F5403F40F0F9816B4A136B5B
:101B740023F44033E1680B431363236813F0040F29
:101B840012D023694BB1B3F5802F06D0B3F5002FE3
:101B940003D0B3F5402F40F0E781604A136B23F480
:101BA400402321690B431363236813F0200F0BD0E8
:101BB400E36913B1102B40F0DC81584A136B23F016
:101BC4001003E1690B431363236813F4003F0DD042
:101BD400636DB3F5800F02D0002B40F0CF814F4AE4
:101BE400536823F48003616D0B435360236813F03F
:101BF400400F0BD0236A13B1202B40F0C481474A15
:101C0400136B23F02003216A0B431363236813F43B
:101C1400802F0BD0636A13B1402B40F0BA813F4A46
:101C2400136B23F04003616A0B431363236813F0BF
:101C3400080F12D063694BB1B3F5801F06D0B3F51A
:101C4400001F03D0B3F5401F40F0A981334A136B42
:101C540023F4401361690B431363236813F0100FDB
:101C640012D0A3694BB1B3F5800F06D0B3F5000FC2
:101C740003D0B3F5400F40F09881284A136B23F446
:101C84004003A1690B431363236813F4007F0CD052
:101C9400236B1BB1B3F5000F40F08D811F4A5368CD
:101CA40023F40003216B0B435360236813F0800F6C
:101CB4003CD0A36A43B3B3F5807F25D0B3F5887FC6
:101CC40022D0B3F5907F1FD0B3F5987F1CD0B3F525
:101CD400A07F19D0B3F5A87F16D0B3F5B07F13D089
:101CE400B3F5B87F10D0B3F5C07F0DD0B3F5C87F7E
:101CF4000AD0B3F5D07F07D0B3F5D87F04D040F233
:101D040069110948FEF7C2FA044AD36A23F4F87346
:101D1400A16A0B43D36209E0FF33F70300100240CA
:101D24000070004000819010AC270008236813F471
:101D3400807F31D0E36A43B3B3F5005F25D0B3F5B8
:101D4400085F22D0B3F5105F1FD0B3F5185F1CD025
:101D5400B3F5205F19D0B3F5285F16D0B3F5305F23
:101D640013D0B3F5385F10D0B3F5405F0DD0B3F5A1
:101D7400485F0AD0B3F5505F07D0B3F5585F04D07D
:101D84004FF4BD71A948FEF781FAA94AD36A23F436
:101D94007853E16A0B43D362236813F4805F0CD059
:101DA400636B1BB1B3F5807F40F00B81A04A136BCA
:101DB40023F48073616B0B431363236813F4005F94
:101DC4000CD0236C1BB1B3F5007F40F00081984A1E
:101DD400136B23F40073216C0B431363236813F414
:101DE400801F0CD0A36B1BB1B3F1807F40F0F58052
:101DF4008F4A136B23F08073A16B0B431363236827
:101E040013F4001F0CD0E36B1BB1B3F1007F40F05F
:101E1400EA80874A136B23F00073E16B0B4313636F
:101E2400236813F4800F0CD0636C1BB1B3F5806F7F
:101E340040F0DF807E4A136B23F48063616C0B43B4
:101E44001363236813F4000F0CD0A36C1BB1B3F518
:101E5400006F40F0D480764A136B23F40063A16CC6
:101E64000B431363236813F0807F0CD0E36C1BB126
:101E7400B3F5005F40F0C9806D4A136B23F400533F
:101E8400E16C0B431363236813F0007F00F0CB80F5
:101E9400236D1BB1B3F5004F40F0BD80644A136B52
:101EA40023F40043216D0B431363002003B0F0BD02
:101EB4007D215E48FEF7EAF9E0E583215B48FEF701
:101EC400E5F9EBE50025FAE55A4A136843F4807313
:101ED4001360FFF783F80646564B1B6813F4807FA4
:101EE4007FF4F3ADFFF77AF8801B6428F4D903205C
:101EF400DCE7FFF773F8064615E04D4B196A022339
:101F040093FAA3F3B3FA83F303F01F03012202FA53
:101F140003F30B427FF401AEFFF760F8801B41F23C
:101F2400883398427DD8022393FAA3F293FAA3F359
:101F3400B3FA83F35B0943F00203022BDDD00223DF
:101F440093FAA3F33A4B596AD9E7D36923F0805340
:101F5400D361ECE5CA213548FEF798F9EFE5D521C0
:101F64003248FEF793F901E6E1213048FEF78EF995
:101F740013E6EC212D48FEF789F91EE6FA212B48D9
:101F8400FEF784F92BE64FF487712848FEF77EF9B3
:101F940035E64FF490712548FEF778F93FE640F2B4
:101FA4002F112248FEF772F950E640F239111F480A
:101FB400FEF76CF961E640F249111C48FEF766F938
:101FC4006CE64FF4CD711948FEF760F9EEE64FF474
:101FD400D6711648FEF75AF9F9E640F20321134880
:101FE400FEF754F904E740F20D211048FEF74EF9CC
:101FF4000FE740F217210D48FEF748F91AE740F2BF
:1020040021210A48FEF742F925E740F22B2107482F
:10201400FEF73CF930E74FF40E710448FEF736F949
:102024003CE7032042E7002040E700BFAC2700085C
:1020340000100240007000402DE9F04782B00546D0
:102044000C46B0F1904F1ED0B24B98421BD003F512
:102054008063984217D003F58063984213D003F548
:10206400806398420FD003F5806398420BD003F548
:102074008063984207D003F58063984203D0C3215C
:10208400A548FEF703F923689AB212B11B0C1B048E
:102094001BB1C421A048FEF7F9F86368012B1ED9CF
:1020A400112B1CD0022B1AD0122B18D09B4A93420E
:1020B40015D002F58012934211D002F5801293429A
:1020C4000DD0A2F5F812934209D002F58012934282
:1020D40005D002F58012934201D0032B04D1A368EA
:1020E400022B06D800264AE0C5218B48FEF7CEF81D
:1020F400F5E7C6218848FEF7C9F8F3E7D6218648F4
:10210400FEF7C4F875E0EA218348FEF7BFF8A0E0C3
:10211400062300E000238B4003430232804941F848
:102124002230804B1A68FB4303EA0201606810F412
:10213400803F01D047EA02017A4A1160526803EAFB
:102144000201606810F4003F01D047EA0201754AB9
:102154005160926803EA0201606810F4801F01D0A4
:1021640047EA02016F4A9160D2681340616811F432
:10217400001F01D047EA02036A4AD3600136276888
:1021840037FA06F300F0C3804FF0010808FA06F8A6
:1021940018EA0707F2D06368022B01D0122B38D15A
:1021A400B5F1904F1ED05B4B9D421BD003F580636D
:1021B4009D4217D003F580639D4213D003F58063DD
:1021C4009D420FD003F580639D420BD003F58063DD
:1021D4009D4207D003F580639D4203D0D5214E482C
:1021E400FEF754F823690C2B03D90E2B01D00F2BC7
:1021F40084D1F208083255F8220006F0070399004A
:102204000F238B4020EA030023698B40034345F8E6
:1022140022302A684FEA460A4FF0030909FA0AF9FC
:102224006FEA090909EA0202636803F0030303FA87
:102234000AF313432B6063685A1E012A03D9112B36
:1022440001D0122B17D1E368012B02D9032B7FF4A1
:102254005AAFAA6809EA0202E36803FA0AF31343CD
:10226400AB606B6823EA08086368C3F30013B340E8
:1022740043EA08036B60EB6809EA0309A36803FAFD
:102284000AF343EA0903EB60636813F0805F3FF4E9
:1022940075AF254B9A6942F001029A619B6903F07C
:1022A40001030193019BB208911C1D4B53F82100BB
:1022B40006F0030399000F238B4020EA0300B5F1D5
:1022C400904F3FF427AF134B9D4216D003F5806324
:1022D4009D4214D003F580639D4212D003F58063C0
:1022E4009D4210D003F580639D420ED003F58063B8
:1022F4009D423FF40DAF07230DE701230BE70223B3
:1023040009E7032307E7042305E7052303E702B0EE
:10231400BDE8F08700040048E4270008000011101D
:1023240000000140000401400010024070B5054661
:1023340014460E4621B1012C08D86CB9AE6270BDAA
:102344004FF4D8710548FDF7A1FFF4E740F2B1114D
:102354000248FDF79BFFF0E7AE61F0E7E4270008D1
:1023640038B505460C4621B94FF4E3710348FDF72F
:102374008DFF6B695C406C6138BD00BFE4270008C9
:1023840010B50446C31E042B0FD80A4AD36823F49D
:10239400E0631B041B0C240204F4E064234343F0B5
:1023A400BF6343F40033D36010BDBC210248FDF782
:1023B4006DFFEAE700ED00E01C28000870B5054653
:1023C4000C4616460F2A25D80F2C28D81B4BDB6841
:1023D400C3F30223C3F10702042A28BF0422191DF0
:1023E400062921D9033B4FF0FF3101FA02F224EA16
:1023F40002049C4001FA03F326EA03063443002D49
:1024040014DB2401E4B205F1604505F5614585F866
:10241400004370BDD4210A48FDF738FFD4E7D52125
:102424000748FDF733FFD1E70023DCE705F00F058C
:102434002401E4B2034B5C55EBE700BF00ED00E080
:102444001C28000814ED00E010B5041E08DB04F09D
:102454001F02640901239340044A42F8243010BD4A
:10246400E8210348FDF712FFF1E700BF00E100E0B7
:102474001C2800080138B0F1807F0AD2064B58604E
:10248400064AF02182F823100020986007221A607F
:1024940070470120704700BF10E000E000ED00E04D
:1024A40010B50446042800D038B9042C0BD0094ACE
:1024B400136823F00403136010BD40F2E1110648D1
:1024C400FDF7E4FEF1E7034A136843F004031360E5
:1024D400F2E700BF10E000E01C280008704708B5D0
:1024E400FFF7FCFF08BD00001549D1F8883043F41C
:1024F4007003C1F88830134B1A6842F001021A6065
:102504005868114A02405A601A6822F0847222F410
:1025140080321A601A6822F480221A605A6822F4FF
:10252400FE025A60DA6A22F00F02DA62186B074A76
:1025340002401A6300229A604FF000638B60704778
:1025440000ED00E0001002400CC07FF8CCFC00FF5E
:1025540000B583B00E4B0F4A1A6048F69F425A608A
:1025640040F2E732DA600C4BDA6942F01002DA61C9
:10257400DB6903F010030193019B0022114636200E
:10258400FFF71CFF3620FFF75FFF03B05DF804FB85
:10259400B0000020001000400010024008B50248BE
:1025A400FDF7A6FF08BD00BFB000002010B504462B
:1025B400FEF7D4F82046FDF755FF10BD08B5FFF728
:1025C400C7FF0248FFF7F2FFFEE700BFB00000209C
:1025D40008B50268064B9A4203D00648FFF7E6FFA7
:1025E40008BD20214FF09040FFF7BAFEF5E700BF89
:1025F40000100040B000002008B5054B4FF4005215
:102604005A6120214FF09040FFF7AAFE08BD00BF99
:1026140000040140DFF834D0002103E00C4B5B5888
:10262400435004310B480C4B42189A42F6D30B4AE0
:1026340002E0002342F8043B094B9A42F9D3FFF726
:1026440053FF00F011F8FDF715FEFEE7000001202E
:1026540074280008000000200C0000200C0000205A
:10266400F0000020FEE7000070B50D4E0D4CA41BD9
:10267400A4100025A54209D10B4E0C4C00F018F80B
:10268400A41BA4100025A54205D170BD56F8253021
:1026940098470135EEE756F8253098470135F2E7BB
:1026A4006C2800086C2800086C28000870280008B2
:1026B400F8B500BFF8BC08BC9E467047F8B500BF2B
:0826C400F8BC08BC9E467047FB
:1026CC005372632F6D61696E2E6300005372632F1A
:1026DC0075736172742E6300447269766572732F20
:1026EC0053544D3332463378785F48414C5F4472D3
:1026FC00697665722F5372632F73746D3332663340
:10270C0078785F68616C5F74696D2E6300000000FF
:10271C00447269766572732F53544D333246337855
:10272C00785F48414C5F4472697665722F537263CF
:10273C002F73746D3332663378785F68616C5F75B4
:10274C006172742E63000000447269766572732F97
:10275C0053544D3332463378785F48414C5F447262
:10276C00697665722F5372632F73746D33326633CF
:10277C0078785F68616C5F7263632E6300000000A1
:10278C0002030405060708090A0B0C0D0E0F1010A6
:10279C000102030405060708090A0B0C0D0E0F10A5
:1027AC00447269766572732F53544D3332463378C5
:1027BC00785F48414C5F4472697665722F5372633F
:1027CC002F73746D3332663378785F68616C5F7227
:1027DC0063635F65782E6300447269766572732F4C
:1027EC0053544D3332463378785F48414C5F4472D2
:1027FC00697665722F5372632F73746D333266333F
:10280C0078785F68616C5F6770696F2E6300000099
:10281C00447269766572732F53544D333246337854
:10282C00785F48414C5F4472697665722F537263CE
:10283C002F73746D3332663378785F68616C5F63C5
:10284C006F727465782E63000000000000000000B9
:10285C00010203040607080900000000010203043A
:04286C00B9010008A6
:0428700095010008C6
:0C287400010000001000000000127A00BB
:0400000508002619B0
:00000001FF
