:020000040800F2
:100000000050002045140008DD020008DF0200084F
:10001000E1020008E3020008E50200080000000019
:10002000000000000000000000000000E7020008DF
:10003000E902000800000000EB020008ED020008E1
:100040008D1400088D1400088D1400088D1400080C
:100050008D1400088D1400088D1400088D140008FC
:100060008D1400088D1400088D1400088D140008EC
:100070008D1400088D1400088D1400088D140008DC
:100080008D1400088D1400088D1400088D140008CC
:100090008D1400088D1400088D1400088D140008BC
:1000A0008D1400088D1400088D1400088D140008AC
:1000B0008D1400088D1400088D1400088D1400089C
:1000C0008D1400088D1400088D1400088D1400088C
:1000D0008D1400088D140008F90200088D14000822
:1000E0008D1400088D1400088D1400080000000015
:1000F0000000000000000000000000000000000000
:0C01000000000000000000005FF808F1A3
:10010C0010B5054C237833B9044B13B10448AFF345
:10011C0000800123237010BDE401002000000000CA
:10012C000018000808B5034B1BB103490348AFF393
:10013C00008008BD00000000E80100200018000845
:10014C00034613F8012B002AFBD1181A013870470B
:10015C00FEE7000000B591B00223069301230A9339
:10016C0010230B9300230D9306A800F01BFCF0B991
:10017C000F2301930021029103910491059101A891
:10018C0000F036FEB8B900F0EFFE0D4BA3FB0030CB
:10019C00800901F0A1F8042001F0B4F80022114606
:1001AC004FF0FF3001F058F811B05DF804FB5C2102
:1001BC000448FFF7CDFF6A210248FFF7C9FF00BFD3
:1001CC00D34D62102C18000810B586B0144B9A69E8
:1001DC0042F010029A619A6902F010020092009AA1
:1001EC009A6942F004029A619B6903F0040301933B
:1001FC00019B0C4C00224FF40051204600F0C4FF30
:10020C004FF400530293012303930023049302231E
:10021C00059302A9204600F0CDFE06B010BD00BF2C
:10022C00001002400010014008B50B480B4B036056
:10023C004FF4E133436000238360C36003610C22FD
:10024C0042618361C36100F0C3F900B908BD42216A
:10025C000348FFF77DFFF9E710020020004400403F
:10026C00381800080268184B9A4200D0704730B515
:10027C0087B003F5E633DA6942F40032DA61DB6900
:10028C0003F400330193019B042302930223039391
:10029C00032305930D4D02A9284600F08BFE08237D
:1002AC0002930024039404940DEB0301284600F000
:1002BC0081FE22462146262000F0CEFF262000F0AB
:1002CC00FFFF07B030BD00BF0044004000080140F4
:1002DC007047FEE7FEE7FEE7FEE7704770477047A2
:1002EC0008B500F023FB01F01EF808BD08B5034863
:1002FC0000F04CFA002001F041F808BD100200207B
:10030C0000B583B0244B9A6942F001029A619A6954
:10031C0002F001020092009ADA6942F08052DA612E
:10032C00DB6903F080530193019B032000F082FFF3
:10033C00002211466FF00B0000F08EFF00221146D8
:10034C006FF00A0000F088FF002211466FF00900E0
:10035C0000F082FF002211466FF0040000F07CFFD9
:10036C00002211466FF0030000F076FF00221146C8
:10037C006FF0010000F070FF002211464FF0FF30CB
:10038C0000F06AFF054A536823F0E06343F0007302
:10039C00536003B05DF804FB001002400000014004
:1003AC000268D36823F49073D3600268536923F016
:1003BC0001035361202380F83A30704790F83930AC
:1003CC00DBB2212B2AD18368B3F5805F16D0036A88
:1003DC005A1C02621A7803685A60C38C013B9BB2A8
:1003EC00C384EBB90268D36823F08003D36002683E
:1003FC00D36843F04003D36000207047036A1B8826
:10040C000268C3F30803536003691BB9036A023320
:10041C000362E2E7036A01330362DEE702207047FE
:10042C00002070472DE9F84305460268136923F450
:10043C004053C1680B4313618368026913434269DB
:10044C0013430168CA6822F4B05222F00C02134321
:10045C00CB600268536923F4407381690B43536189
:10046C000268594B9A4257D000F084FD00EB800093
:10047C0000EB80006C68A400B0FBF4F4534FA7FBB6
:10048C0004346409260100F075FD00EB800000EBDC
:10049C0080006C68A400B0FBF4F900F06BFD00EB7D
:1004AC00800000EB80006C68A400B0FBF4F4A7FBA8
:1004BC00043464094FF0640808FB149424013234AA
:1004CC00A7FB0434640904F0F004344400F052FD3A
:1004DC0000EB800000EB80006E68B600B0FBF6F617
:1004EC0000F048FD00EB800000EB80006B689B0087
:1004FC00B0FBF3F0A7FB0030400908FB10684FEA93
:10050C00081808F13208A7FB0837C7F343172B6804
:10051C0027449F60BDE8F88300F03CFD00EB8000B1
:10052C0000EB80006C68A400B0FBF4F4274FA7FB31
:10053C0004346409260100F02DFD00EB800000EB73
:10054C0080006C68A400B0FBF4F900F023FD00EB14
:10055C00800000EB80006C68A400B0FBF4F4A7FBF7
:10056C00043464094FF0640808FB149424013234F9
:10057C00A7FB0434640904F0F004344400F00AFDD1
:10058C0000EB800000EB80006E68B600B0FBF6F666
:10059C0000F000FD00EB800000EB80006B689B001E
:1005AC00B0FBF3F0A7FB0030400908FB10684FEAE2
:1005BC00081808F13208A7FB0837C7F343172B6854
:1005CC0027449F60A6E700BF003801401F85EB5110
:1005DC0058B310B5044690F839300BB3242384F883
:1005EC0039302268D36823F40053D3602046FFF7D8
:1005FC0019FF2268136923F490431361226853692D
:10060C0023F02A0353612268D36843F40053D36068
:10061C000020E063202384F8393084F83A3010BD90
:10062C0080F83830FFF71EFED8E70120704790F8AD
:10063C003930DBB2202B16D1B9B1C2B190F83830B9
:10064C00012B16D001628284C2840023C363212251
:10065C0080F8392080F838300168CA6842F080028E
:10066C00CA6018467047022070470120704701206D
:10067C0070470220704790F83A30DBB2202B20D123
:10068C0009B312B390F83830012B20D081628285E7
:10069C00C2850023C363222280F83A2080F83830C8
:1006AC000168CA6842F48072CA6001684A6942F003
:1006BC0001024A610168CA6842F02002CA60184609
:1006CC0070470220704701207047012070470220BC
:1006DC007047704708B50168CB6823F04003CB60C6
:1006EC00202380F83930FFF7F4FF002008BD08B54F
:1006FC0090F83A30DBB2222B45D18368B3F5805F9A
:10070C000ED0036903BB03685A68836A591C816263
:10071C001A70C38D013B9BB2C385F3B1002033E04B
:10072C00826A036943B903685B68C3F308031380E7
:10073C00836A02338362ECE703685B68DBB2138085
:10074C00836A01338362E4E703685B68826A511C45
:10075C00816203F07F031370DBE70268D36823F038
:10076C002003D3600268D36823F48073D3600268DB
:10077C00536923F001035361202380F83A3000F0D1
:10078C0051FE002000E0022008BD704710B5044661
:10079C0002681368D168526913F00F0005D113F089
:1007AC00200F02D011F0200F53D1002867D012F087
:1007BC00010202D111F4907F61D013F0010F06D029
:1007CC0011F4807F03D0E06B40F00100E06313F084
:1007DC00040F04D01AB1E06B40F00200E06313F098
:1007EC00020F04D01AB1E06B40F00400E06313F088
:1007FC00080F04D01AB1E26B42F00802E263E26B1C
:10080C00002A48D013F0200F02D011F0200F24D171
:10081C0023685B6903F04003E26B12F0080F00D110
:10082C003BB32046FFF7BCFD23685A6912F0400F1A
:10083C001BD05A6922F040025A61636B8BB11A4A81
:10084C005A63606B00F0AAFC28B3606B436B98474B
:10085C0021E02046FFF74BFF1DE02046FFF747FF46
:10086C00D6E72046FFF791FF15E02046FFF78DFFF6
:10087C0011E02046FFF789FF0023E3630BE013F040
:10088C00800F02D011F0800F06D113F0400F02D070
:10089C0011F0400F04D110BD2046FFF78FFDFAE791
:1008AC002046FFF717FFF6E7B908000808B5406ABD
:1008BC000023C385C384FFF768FF08BD10B5044649
:1008CC000E4B18784FF47A73B3FBF0F30C4A1068A4
:1008DC00B0FBF3F000F000FD68B90F2C01D901203A
:1008EC000AE0002221464FF0FF3000F0B5FC054B2A
:1008FC001C60002000E0012010BD00BF00000020A3
:10090C00080000200400002008B5074A136843F0D3
:10091C0010031360032000F08DFC0020FFF7CEFFC6
:10092C00FFF7EEFC002008BD00200240034A1168CE
:10093C00034B1B780B441360704700BF5002002020
:10094C0000000020014B1868704700BF50020020C7
:10095C0038B50446FFF7F6FF0546B4F1FF3F02D069
:10096C00044B1B781C44FFF7EDFF401BA042FAD34D
:10097C0038BD00BF0000002082B0084B1B68084A3D
:10098C00A2FB03235B0A00FB03F0019000BF019B59
:10099C005A1E0192002BF9D102B0704708000020BA
:1009AC00D34D621070B582B00446036813F0010F8A
:1009BC002CD0AB4B5B6803F00C03042B1DD0A84B65
:1009CC005B6803F00C03082B12D06368B3F5803F0F
:1009DC0041D0002B55D103F1804303F504331A6841
:1009EC0022F480321A601A6822F480221A6037E0EE
:1009FC009B4B5B6813F4803FE7D0994B1B6813F457
:100A0C00003F03D06368002B00F0AE81236813F025
:100A1C00020F76D0924B5B6813F00C0F5FD0904BAB
:100A2C005B6803F00C03082B54D02369002B00F0F7
:100A3C008A808C4B01221A60FFF784FF0546884B95
:100A4C001B6813F0020F75D1FFF77CFF401B0228C7
:100A5C00F5D903208BE1824A136843F48033136089
:100A6C00636843B3FFF76EFF05467D4B1B6813F4B9
:100A7C00003FCBD1FFF766FF401B6428F5D903205C
:100A8C0075E1B3F5A02F09D0754B1A6822F48032AA
:100A9C001A601A6822F480221A60E1E703F180439D
:100AAC00A3F53C331A6842F480221A601A6842F4A7
:100ABC0080321A60D4E7FFF745FF0546684B1B6888
:100ACC0013F4003FA2D0FFF73DFF401B6428F5D97B
:100ADC0003204CE1624B5B6813F4803FA5D1604B63
:100AEC001B6813F0020F04D02369012B01D00120E5
:100AFC003DE15B4A136823F0F803616943EAC103E3
:100B0C001360236813F0080F32D0A369002B5BD05D
:100B1C00554B01221A60FFF715FF0546504B5B6AD7
:100B2C0013F0020F21D1FFF70DFF401B0228F5D95E
:100B3C0003201CE14A4A136823F0F803616943EA75
:100B4C00C1031360DDE7474B00221A60FFF7FAFE82
:100B5C000546434B1B6813F0020FD2D0FFF7F2FE91
:100B6C00401B0228F5D9032001E10120FFF704FF07
:100B7C00236813F0040F00F09780394BDB6913F0F6
:100B8C00805F33D1364BDA6942F08052DA61DB692F
:100B9C0003F080530193019B0125344B1B6813F424
:100BAC00807F25D0E368012B36D0002B4CD103F18C
:100BBC00804303F504331A6A22F001021A621A6A9E
:100BCC0022F004021A622CE0274B00221A60FFF775
:100BDC00B9FE0546224B5B6A13F0020FC8D0FFF733
:100BEC00B1FE401B0228F5D90320C0E00025D4E754
:100BFC001E4A136843F480731360FFF7A3FE064686
:100C0C001A4B1B6813F4807FCCD1FFF79BFE801B23
:100C1C006428F5D90320AAE0114A136A43F00103B2
:100C2C001362E36873B3FFF78DFE06460C4B1B6A29
:100C3C0013F0020F37D1FFF785FE801B41F288338A
:100C4C009842F3D9032092E0052B11D0044B1A6A79
:100C5C0022F001021A621A6A22F004021A62E0E718
:100C6C0000100240000042428004424200700040EA
:100C7C00414B1A6A42F004021A621A6A42F00102EB
:100C8C001A62CEE7FFF75EFE06463B4B1B6A13F07B
:100C9C00020F08D0FFF756FE801B41F288339842B2
:100CAC00F3D9032063E0E5B9E369002B5ED0324A47
:100CBC00526802F00C02082A5BD0022B17D02F4B83
:100CCC0000221A60FFF73EFE04462B4B1B6813F004
:100CDC00007F47D0FFF736FE001B0228F5D9032012
:100CEC0045E0254AD36923F08053D361DCE7234BDD
:100CFC0000221A60FFF726FE05461F4B1B6813F0F7
:100D0C00007F06D0FFF71EFE401B0228F5D90320FA
:100D1C002DE0236AB3F5803F1AD017494B6823F4B2
:100D2C007413226A606A024313434B60134B012213
:100D3C001A60FFF707FE04460F4B1B6813F0007F89
:100D4C000ED1FFF7FFFD001B0228F5D903200EE0A2
:100D5C00094A536823F40033A1680B435360DCE762
:100D6C00002004E0002002E0012000E0002002B09E
:100D7C0070BD0120FBE700BF001002406000424242
:100D8C0010B487B0164C94E80F000DF1180C0CE958
:100D9C000F00238AADF80430124B5B6803F00C0291
:100DAC00082A1AD1C3F38342624412F8102C13F4AC
:100DBC00803F05D10C4800FB02F007B010BC704717
:100DCC00084B5B68C3F34043634413F8143C074877
:100DDC0000FB02F0B0FBF3F0EFE70448EDE700BFD7
:100DEC00181800080010024000093D0000127A009B
:100DFC00594B1B6803F007038B420CD2564A1368FD
:100E0C0023F007030B431360136803F007038B42B3
:100E1C0001D00120704770B5036813F0020F06D0A3
:100E2C004E4A536823F0F0038468234353600C4606
:100E3C000546036813F0010F52D04368012B23D0F1
:100E4C00022B28D0454A126812F0020F00F0828063
:100E5C0042494A6822F0030213434B60FFF772FDCC
:100E6C0006466B68012B1DD0022B2AD03B4B5B68CE
:100E7C0013F00C0F34D0FFF765FD801B41F2883363
:100E8C009842F3D9032064E0344A126812F4003F0C
:100E9C00DED101205DE0314A126812F0007FD7D11B
:100EAC00012056E02D4B5B6803F00C03042B17D08C
:100EBC00FFF748FD801B41F288339842F2D903209A
:100ECC0047E0264B5B6803F00C03082B08D0FFF7B8
:100EDC0039FD801B41F288339842F2D9032038E067
:100EEC001D4B1B6803F00703A3420CD91A4A136865
:100EFC0023F0070323431360136803F00703A34293
:100F0C0001D0012025E02B6813F0040F06D0134A02
:100F1C00536823F4E063E9680B4353602B6813F0C8
:100F2C00080F07D00D4A536823F46053296943EA2C
:100F3C00C1035360FFF724FF084B5B68C3F3031333
:100F4C00074AD35CD840074B18600020FFF7B6FC6B
:100F5C00002070BD0120FCE7002002400010024080
:100F6C004418000808000020014B1868704700BFA7
:100F7C000800002008B5FFF7F7FF044B5B68C3F3CC
:100F8C000223034AD35CD84008BD00BF00100240C6
:100F9C005418000808B5FFF7E7FF044B5B68C3F370
:100FAC00C223034AD35CD84008BD00BF00100240E6
:100FBC0054180008F0B482B000263546A1E0002C8D
:100FCC0059D0012C00D1CE68FF2B68D88446FF2B5A
:100FDC0068D8AC00DCF800200F27A74022EA0702F3
:100FEC0006FA04F42243CCF800204A6812F0805F21
:100FFC0000F086805E4A946944F001049461926921
:10100C0002F001020192019AAC08A71C594A52F84D
:10101C00272005F00307BF004FF00F0C0CFA07FC5C
:10102C0022EA0C0C544A904242D002F58062904263
:10103C007FD002F5806290427DD002F580629042B2
:10104C0034D0042235E04D4FBC4214D00BD94C4F58
:10105C00BC4210D007F58037BC420CD0A7F58017E6
:10106C00BC42B1D107E0A7F58017BC4203D007F50D
:10107C008037BC42A8D18C687CB1012C08D042616D
:10108C000826A1E7CE6808369EE7CE680C369BE7AB
:10109C000261082698E7002696E7042694E700F1FB
:1010AC00040C94E7A5F10804A40093E7032200E0E4
:1010BC000022BA4042EA0C0202342E4F47F8242098
:1010CC004A6812F4803F38D02E4C22681A432260B2
:1010DC004A6812F4003F36D02A4C62681A436260A8
:1010EC004A6812F4801F34D0264CA2681A43A260BE
:1010FC004A6812F4001F32D0224CE2681343E360BA
:10110C0001350F2D31D80122AA400B6813409A42A9
:10111C00F6D14C68122CB8D095D8022CB2D07FF6F0
:10112C004EAF032CB7D0112C7FF44EAFCE680436E3
:10113C004AE70122BDE70222BBE7124C226822EAF1
:10114C0003022260C4E70F4C626822EA0302626069
:10115C00C6E70C4CA26822EA0302A260C8E7094C5D
:10116C00E26822EA0303E360CAE702B0F0BC70470E
:10117C000010024000000140000801400000211056
:10118C00000031100004014012B9090401617047DC
:10119C0001617047C3685940C160704708B590F849
:1011AC002130022B03D004238363012008BD026885
:1011BC00136823F00E0313600268136823F0010315
:1011CC0013600368194A934214D0143293421FD00F
:1011DC00143293421ED0143293421ED014329342D6
:1011EC001ED01432934202D04FF0807203E04FF4C1
:1011FC00801200E001220E4B5A60012380F821304E
:10120C00002380F82030436B6BB198470020CDE76A
:10121C001022F0E74FF48072EDE74FF48052EAE7CA
:10122C004FF48032E7E70020C0E700BF080002401F
:10123C0000000240074AD36823F4E0631B041B0C34
:10124C00000200F4E060184340F0BF6040F400304E
:10125C00D060704700ED00E030B4174BDB68C3F38F
:10126C000223C3F10704042C28BF04241D1D062DE2
:10127C0018D9033B4FF0FF3505FA04F421EA0401B9
:10128C00994005FA03F322EA0303194300280BDB08
:10129C000901C9B200F1604000F5614080F800130B
:1012AC0030BC70470023E5E700F00F000901C9B21C
:1012BC00024B1954F4E700BF00ED00E014ED00E020
:1012CC0000F01F02400901239340024A42F82030EB
:1012DC00704700BF00E100E00138B0F1807F0AD216
:1012EC00064B5860064AF02182F8231000209860C3
:1012FC0007221A6070470120704700BF10E000E021
:10130C0000ED00E0042805D0054A136823F004031F
:10131C0013607047024A136843F00403136070476C
:10132C0010E000E0704708B5FFF7FCFF08BD0000B7
:10133C000F4B1A6842F001021A6059680D4A0A40B4
:10134C005A601A6822F0847222F480321A601A6889
:10135C0022F480221A605A6822F4FE025A604FF47A
:10136C001F029A60044B4FF000629A60704700BFF6
:10137C00001002400000FFF800ED00E008B54FF44B
:10138C0000510248FFF706FF08BD00BF00100140E6
:10139C000A4B1B68012B0DD110B5084B00221A60AB
:1013AC00074C012221460748FFF765F9204600F05B
:1013BC0068F810BD4FF0FF30704700BF00020020EE
:1013CC00580200201002002008B5FFF79DFAFEF726
:1013DC00C1FEFEF7F9FEFEF727FF0022114626207C
:1013EC00FFF73AFF2620FFF76BFF002000F028F9EB
:1013FC0000F070F8FFF7CCFF074B1860074C204645
:10140C00FEF79EFE82B221460548FFF710F94FF415
:10141C007A70FFF79DFAEDE70C0000201000002019
:10142C001002002008B5034B01221A600020FFF7C0
:10143C00A5FF08BD00020020002103E00B4B5B5808
:10144C00435004310A480B4B42189A42F6D30A4ACD
:10145C0002E0002342F8043B084B9A42F9D3FFF711
:10146C0067FF00F013F8FFF7AFFF70477019000823
:10147C0000000020E4010020E401002060020020B4
:10148C00FEE70A22002100F0C5B8000070B5002567
:10149C000C4E0D4CA41BA410A54209D100F0AAF9C6
:1014AC0000250A4E0A4CA41BA410A54205D170BD00
:1014BC0056F8253098470135EEE756F82530984711
:1014CC000135F2E768190008681900086819000866
:1014DC006C19000838B50D4B05461C68A36B7BB91D
:1014EC00182000F0DDF80A4A0A4BA063C0E900237B
:1014FC00094B012283600B2383810023C0E9042361
:10150C000022A36B1D615A6138BD00BF140000207E
:10151C000E33CDAB34126DE6ECDE05002DE9F04751
:10152C008046894692461E460F463D46089815F859
:10153C00014B00F0B1F82044437813F0080332D18A
:10154C002D2C32D101227C78BD1C002E5DD0102EAA
:10155C0009D1302C07D12B7803F0DF03582B4FD156
:10156C0010266C780235002A14BF4FF000416FF042
:10157C0000410027B1FBF6FC384606FB1C1EA4F10B
:10158C003003092B17D81C46A64223DD7B1C07D041
:10159C0084451CD301D1A64519DB012700FB06406D
:1015AC0015F8014BEBE72F46BFE72B2C04BFBD1CF6
:1015BC007C781A46C9E7A4F14103192B01D8373CB2
:1015CC00E2E7A4F16103192B04D8573CDCE74FF098
:1015DC00FF37E5E77B1C08D122230846C8F800300A
:1015EC00BAF1000F07D1BDE8F08702B14042BAF161
:1015FC00000FF8D00FB105F1FF39CAF80090F2E7EF
:10160C003024002EAFD10826ADE7302CA3D00A260B
:10161C00A9E70000084B37B51C68084D236A002B5E
:10162C0008BF2B46009313460A4601462046FFF797
:10163C0075FF03B030BD00BF1400002078000020FF
:10164C001FB50B4B044600226946186800F012F8CF
:10165C00002805DA4FF0FF324FF0FF33CDE90023BD
:10166C00DDE900010CB1C4E9000104B010BD00BFFC
:10167C001400002038B50023064C054608461146D8
:10168C00236000F0A1F8431C02D1236803B12B6046
:10169C0038BD00BF5C020020D0F8EC0070470000A1
:1016AC00024B0146186800F015B800BF140000206A
:1016BC0082B001B901A942B14BB113780B60127819
:1016CC00101C18BF012002B070471046FBE76FF0EA
:1016DC000100F8E770B5CD1C25F0030508350C2D7D
:1016EC0038BF0C25002D064601DBA94203D90C237B
:1016FC003360002070BD00F064F8214A1468214664
:10170C0091B9204C23681BB9304600F03DF820609D
:10171C002946304600F038F8431C24D10C233046BF
:10172C00336000F04FF8E4E70B685B1B18D40B2B0D
:10173C000FD90B60CC18CD50304600F043F804F1B3
:10174C000B00231D20F00700C31AD3D05A42E250DD
:10175C00D0E74B688C4216BF636013600C46EBE716
:10176C000C464968CCE7C41C24F00304A04205D005
:10177C00211A304600F008F80130CFD02560DBE7A5
:10178C00040200200802002038B50023054C054651
:10179C000846236000F020F8431C02D1236803B1F3
:1017AC002B6038BD5C02002049B1FF2A8BBF8A2315
:1017BC000A700360012088BF4FF0FF307047084665
:1017CC0070477047704700005822024B4FF0FF30B3
:1017DC001A6070475C020020044A05491368002B0C
:1017EC0008BF0B4618441060184670470C020020C6
:1017FC0060020020F8B500BFF8BC08BC9E467047DC
:0C180C00F8B500BFF8BC08BC9E46704751
:1018180002030405060708090A0B0C0D0E0F101029
:10182800010200005372632F6D61696E2E63000020
:101838005372632F75736172742E63000000000089
:101848000000000001020304060708090000000068
:10185800010203044300504F534958002E00002052
:101868002020202020202020282828282820202048
:1018780020202020202020202020202020202088F8
:10188800101010101010101010101010101010045C
:1018980004040404040404040410101010101010AC
:1018A80041414141414101010101010101010101A0
:1018B80001010101010101010101101010101010B6
:1018C8004242424242420202020202020202020270
:1018D800020202020202020202021010101020008C
:1018E80000000000000000000000000000000000F0
:1018F80000000000000000000000000000000000E0
:1019080000000000000000000000000000000000CF
:1019180000000000000000000000000000000000BF
:1019280000000000000000000000000000000000AF
:10193800000000000000000000000000000000009F
:10194800000000000000000000000000000000008F
:10195800000000000000000000000000000000007F
:041968003101000841
:04196C000D01000861
:10197000010000001000000000A24A04FFFFFFFF6A
:1019800030000000180000200000000000000000EF
:101990000000000000000000000000000000000047
:1019A0000000000000000000000000000000000037
:1019B0000000000000000000000000000000000027
:1019C0000000000000000000000000000000000017
:1019D0000000000000000000000000000000000007
:1019E00000000000000000004300000000000000B4
:1019F00000000000000000000000000000000000E7
:101A00000000000000000000430000000000000093
:101A100000000000000000000000000000000000C6
:101A20000000000000000000430000000000000073
:101A300000000000000000000000000000000000A6
:101A40000000000000000000430000000000000053
:101A50000000000000000000000000000000000086
:101A60000000000000000000430000000000000033
:101A70000000000000000000000000000000000066
:101A80000000000000000000430000000000000013
:101A90000000000000000000000000000000000046
:101AA00000000000000000004300000000000000F3
:101AB0000000000000000000000000000000000026
:101AC0000000000000000000B5170008BD16000867
:101AD0000000000066180008641800086518000877
:101AE00065180008651800086518000865180008E2
:101AF00065180008651800086518000865180008D2
:101B0000FFFFFFFFFFFFFFFFFFFFFFFFFFFF0000E3
:101B1000010041534349490000000000000000005B
:101B200000000000000000000000000000000000B5
:101B3000000041534349490000000000000000003C
:101B40000000000000000000000000000000000095
:041B50000000000091
:040000050800144596
:00000001FF
