:020000040800F2
:1000000000000120990B000871020008730200082B
:10001000750200087702000879020008000000005D
:100020000000000000000000000000007B0200084B
:100030007D020008000000007F0200088102000825
:10004000E90B0008E90B0008E90B0008E90B0008C0
:10005000E90B0008E90B0008E90B0008E90B0008B0
:10006000E90B0008E90B0008E90B0008E90B0008A0
:10007000E90B0008E90B0008E90B0008E90B000890
:10008000E90B0008E90B0008E90B0008E90B000880
:10009000E90B0008E90B0008E90B0008E90B000870
:1000A000E90B0008E90B0008E90B0008E90B000860
:1000B000E90B0008E90B0008E90B0008E90B000850
:1000C000E90B0008E90B0008E90B0008E90B000840
:1000D000E90B0008E90B0008E90B0008E90B000830
:1000E000E90B0008E90B0008E90B0008E90B000820
:1000F000E90B0008E90B0008E90B0008E90B000810
:10010000E90B00080000000000000000E90B0008F7
:10011000E90B0008E90B00086D0B0008E90B00086B
:10012000E90B0008E90B0008E90B0008E90B0008DF
:10013000E90B0008E90B00080000000000000000C7
:10014000E90B0008E90B0008E90B000800000000BB
:10015000000000000000000000000000000000009F
:10016000E90B0008E90B0008E90B0008E90B00089F
:10017000E90B0008E90B0008E90B0008E90B00088F
:10018000E90B0008E90B0008000000000000000077
:04019000E90B00086F
:1001940010B5054C237833B9044B13B10448AFF3BD
:1001A40000800123237010BD040000200000000023
:1001B400340C000808B5034B1BB103490348AFF3E3
:1001C400008008BD0000000008000020340C000876
:1001D4007047000010B58AB0214B5A6942F40022DE
:1001E4005A615A6902F400220192019A5A6942F44E
:1001F40080025A615A6902F480020292029A5A6990
:1002040042F400325A615A6902F400320392039AAA
:100214005A6942F480225A615B6903F4802304938F
:10022400049B002220214FF0904000F0A9FB4FF4E2
:10023400005305930B4B06930024079405A90A4821
:1002440000F024FA202305930123069307940894CD
:1002540005A94FF0904000F019FA0AB010BD00BF94
:100264000010024000002110000800487047FEE71B
:10027400FEE7FEE7FEE770477047704708B500F0F9
:10028400F9F900F004FC08BD7047000010B50446FD
:1002940003681D4A93422BD0B3F1804F28D0A2F5B6
:1002A4009432934224D002F58062934220D002F526
:1002B400006293421CD002F58062934218D002F58A
:1002C4009032934214D002F54062934210D002F56A
:1002D400806293420CD002F58062934208D002F50A
:1002E4000062934204D040F25F110848FFF770FFA8
:1002F4002268D36843F00103D3602268136843F093
:1003040001031360002010BD002C01404C0C0008B8
:10031400704770477047704710B5044603681A6900
:1003240012F0020F11D0DA6812F0020F0DD06FF044
:1003340002021A610123037703689B6913F0030F18
:1003440079D0FFF7E6FF0023237723681A6912F0B8
:10035400040F12D0DA6812F0040F0ED06FF004020A
:100364001A610223237723689B6913F4407F68D0C2
:100374002046FFF7CEFF0023237723681A6912F083
:10038400080F12D0DA6812F0080F0ED06FF00802CE
:100394001A61042323772368DB6913F0030F57D012
:1003A4002046FFF7B6FF0023237723681A6912F06B
:1003B400100F12D0DA6812F0100F0ED06FF0100286
:1003C4001A61082323772368DB6913F4407F46D03E
:1003D4002046FFF79EFF0023237723681A6912F053
:1003E400010F03D0DA6812F0010F3FD123681A69B4
:1003F40012F0800F03D0DA6812F0800F3DD1236829
:100404001A6912F4807F03D0DA6812F0800F3BD1AE
:1004140023681A6912F0400F03D0DA6812F0400F13
:1004240039D123681A6912F0200F03D0DA6812F068
:10043400200F37D110BDFFF76BFF2046FFF76AFF8F
:1004440081E72046FFF764FF2046FFF763FF92E74A
:100454002046FFF75DFF2046FFF75CFFA3E7204639
:10046400FFF756FF2046FFF755FFB4E76FF0010290
:100474001A61204600F080FBB8E76FF080021A6131
:10048400204600F0F4F8BAE76FF480721A6120464F
:1004940000F0EEF8BCE76FF040021A612046FFF767
:1004A4003AFFBEE76FF020021A61204600F0DEF842
:1004B400C0E700000368324A904212D0B0F1804F86
:1004C4000FD0A2F5943290420BD002F58062904294
:1004D40007D002F59632904203D002F5E0529042E2
:1004E40003D123F070034A681343254A90421ED077
:1004F400B0F1804F1BD0A2F59432904217D002F590
:100504008062904213D002F5963290420FD002F5E9
:10051400406290420BD002F58062904207D002F50F
:100524008062904203D002F50062904203D123F42A
:100534004073CA68134323F080034A69134303607A
:100544008B68C3620B6883620D4B984213D003F52A
:10055400006398420FD003F5406398420BD003F533
:100564008063984207D003F58063984203D003F573
:100574000063984201D10B6903630123436170470F
:10058400002C014000286AD010B504460368354A9F
:1005940093422AD0B3F1804F27D0A2F594329342EC
:1005A40023D002F5806293421FD002F50062934289
:1005B4001BD002F58062934217D002F59032934229
:1005C40013D002F5406293420FD002F58062934249
:1005D4000BD002F58062934207D002F50062934289
:1005E40003D0D5212048FFF7F3FDA3683BB1102BBE
:1005F40005D0202B03D0402B01D0602B1AD12369C6
:100604002BB1B3F5807F02D0B3F5007F17D1A36976
:100614000BB1802B18D194F83D30D3B1022384F868
:100624003D30211D2068FFF745FF012384F83D304C
:10063400002010BDD6210C48FFF7CAFDDFE7D72103
:100644000948FFF7C5FDE2E7D8210748FFF7C0FDD9
:10065400E1E784F83C302046FFF716FEDEE7012090
:10066400704700BF002C01404C0C000870477047D5
:1006740070470000034A1168034B1B780B44136056
:10068400704700BF20000020000000202DE9F04743
:1006940082B005460C46B0F1904F1ED0B24B984242
:1006A4001BD003F58063984217D003F5806398420A
:1006B40013D003F5806398420FD003F5806398420A
:1006C4000BD003F58063984207D003F5806398420A
:1006D40003D0C321A548FFF77BFD23689AB212B16A
:1006E4001B0C1B041BB1C421A048FFF771FD6368F8
:1006F400012B1ED9112B1CD0022B1AD0122B18D06F
:100704009B4A934215D002F58012934211D002F510
:10071400801293420DD0A2F5F812934209D002F54B
:100724008012934205D002F58012934201D0032B2C
:1007340004D1A368022B06D800264AE0C5218B48C1
:10074400FFF746FDF5E7C6218848FFF741FDF3E7CB
:10075400D6218648FFF73CFD75E0EA218348FFF780
:1007640037FDA0E0062300E000238B400343023260
:10077400804941F82230804B1A68FB4303EA0201A6
:10078400606810F4803F01D047EA02017A4A1160A0
:10079400526803EA0201606810F4003F01D047EA9E
:1007A4000201754A5160926803EA0201606810F41C
:1007B400801F01D047EA02016F4A9160D26813405A
:1007C400616811F4001F01D047EA02036A4AD3604A
:1007D4000136276837FA06F300F0C3804FF00108AA
:1007E40008FA06F818EA0707F2D06368022B01D06A
:1007F400122B38D1B5F1904F1ED05B4B9D421BD0CC
:1008040003F580639D4217D003F580639D4213D0A6
:1008140003F580639D420FD003F580639D420BD0A6
:1008240003F580639D4207D003F580639D4203D0A6
:10083400D5214E48FFF7CCFC23690C2B03D90E2B92
:1008440001D00F2B84D1F208083255F8220006F0AB
:10085400070399000F238B4020EA030023698B4090
:10086400034345F822302A684FEA460A4FF0030949
:1008740009FA0AF96FEA090909EA0202636803F04E
:10088400030303FA0AF313432B6063685A1E012A15
:1008940003D9112B01D0122B17D1E368012B02D9F4
:1008A400032B7FF45AAFAA6809EA0202E36803FA49
:1008B4000AF31343AB606B6823EA08086368C3F365
:1008C4000013B34043EA08036B60EB6809EA0309C9
:1008D400A36803FA0AF343EA0903EB60636813F0BD
:1008E400805F3FF475AF254B9A6942F001029A612B
:1008F4009B6903F001030193019BB208911C1D4BFA
:1009040053F8210006F0030399000F238B4020EADB
:100914000300B5F1904F3FF427AF134B9D4216D01F
:1009240003F580639D4214D003F580639D4212D089
:1009340003F580639D4210D003F580639D420ED081
:1009440003F580639D423FF40DAF07230DE70123B8
:100954000BE7022309E7032307E7042305E705233D
:1009640003E702B0BDE8F08700040048840C0008E7
:10097400000011100000014000040140001002407A
:1009840070B5054614460E4621B1012C08D86CB941
:10099400AE6270BD4FF4D8710548FFF719FCF4E757
:1009A40040F2B1110248FFF713FCF0E7AE61F0E743
:1009B400840C000838B505460C4621B94FF4E371A0
:1009C4000348FFF705FC6B695C406C6138BD00BFF0
:1009D400840C000870B505460C4616460F2A25D827
:1009E4000F2C28D81B4BDB68C3F30223C3F1070287
:1009F400042A28BF0422191D062921D9033B4FF0DC
:100A0400FF3101FA02F224EA02049C4001FA03F3E2
:100A140026EA03063443002D14DB2401E4B205F175
:100A2400604505F5614585F8004370BDD4210A4849
:100A3400FFF7CEFBD4E7D5210748FFF7C9FBD1E781
:100A44000023DCE705F00F052401E4B2034B5C55F9
:100A5400EBE700BF00ED00E0BC0C000814ED00E083
:100A640010B5041E08DB04F01F026409012393403F
:100A7400044A42F8243010BDE8210348FFF7A8FBDC
:100A8400F1E700BF00E100E0BC0C0008704708B5C6
:100A9400FFF7FCFF08BD00001549D1F8883043F486
:100AA4007003C1F88830134B1A6842F001021A60CF
:100AB4005868114A02405A601A6822F0847222F47B
:100AC40080321A601A6822F480221A605A6822F46A
:100AD400FE025A60DA6A22F00F02DA62186B074AE1
:100AE40002401A6300229A604FF000638B607047E3
:100AF40000ED00E0001002400CC07FF8CCFC00FFC9
:100B040010B582B00F4C104B236048F69F436360CE
:100B14006323E3600D4BDA6942F01002DA61DB69AA
:100B240003F010030193019B002211463620FFF7C6
:100B340051FF3620FFF794FF2046FFF723FD02B054
:100B440010BD00BF2400002000100040001002402F
:100B540008B5FFF73FFBFFF7D3FF0248FFF796FB0B
:100B6400FEE700BF2400002008B50248FFF7D4FBCD
:100B740008BD00BF2400002008B50268044B9A4257
:100B840000D008BD20214FF09040FFF713FFF8E795
:100B940000100040DFF834D0002103E00C4B5B5818
:100BA400435004310B480C4B42189A42F6D30B4A7B
:100BB40002E0002342F8043B094B9A42F9D3FFF7C1
:100BC4006BFF00F011F8FFF7C3FFFEE70000012000
:100BD400FC0C000800000020040000200400002099
:100BE40064000020FEE7000070B50D4E0D4CA41B00
:100BF400A4100025A54209D10B4E0C4C00F018F8A6
:100C0400A41BA4100025A54205D170BD56F82530BB
:100C140098470135EEE756F8253098470135F2E755
:100C2400F40C0008F40C0008F40C0008F80C00089C
:100C3400F8B500BFF8BC08BC9E467047F8B500BFC5
:080C4400F8BC08BC9E46704795
:100C4C00447269766572732F53544D333246337840
:100C5C00785F48414C5F4472697665722F537263BA
:100C6C002F73746D3332663378785F68616C5F74A0
:100C7C00696D2E6300000000447269766572732FF3
:100C8C0053544D3332463378785F48414C5F44724D
:100C9C00697665722F5372632F73746D33326633BA
:100CAC0078785F68616C5F6770696F2E6300000015
:100CBC00447269766572732F53544D3332463378D0
:100CCC00785F48414C5F4472697665722F5372634A
:100CDC002F73746D3332663378785F68616C5F6341
:080CEC006F727465782E63003D
:040CF400B90100083A
:040CF800950100085A
:040CFC0001000000F3
:0400000508000B994B
:00000001FF
