:020000040800F2
:100000000050002039150008090300080B03000800
:100010000D0300080F030008110300080000000092
:1000200000000000000000000000000013030008B2
:10003000150300080000000017030008190300085A
:100040008115000881150008811500088115000838
:100050008115000881150008811500088115000828
:100060008115000881150008811500088115000818
:100070008115000881150008811500088115000808
:100080008115000825030008811500088115000866
:1000900081150008811500088115000881150008E8
:1000A00081150008811500088115000881150008D8
:1000B00081150008811500088115000881150008C8
:1000C00081150008811500088115000881150008B8
:1000D00081150008811500088115000881150008A8
:1000E0008115000881150008811500080000000036
:1000F0000000000000000000000000000000000000
:0C01000000000000000000005FF808F1A3
:10010C0010B5054C237833B9044B13B10448AFF345
:10011C0000800123237010BD1C0000200000000093
:10012C00CC15000808B5034B1BB103490348AFF3CA
:10013C00008008BD0000000020000020CC15000845
:10014C00034613F8012B002AFBD1181A013870470B
:10015C00FEE7000000B591B00223069301230A9339
:10016C0010230B9300230D9306A800F0A7FAF0B907
:10017C000F2301930021029103910491059101A891
:10018C0000F0C2FCB8B900F07BFD0D4BA3FB0030B6
:10019C00800901F013F9042001F026F90022114620
:1001AC004FF0FF3001F0CAF811B05DF804FB5D218F
:1001BC000448FFF7CDFF6B210248FFF7C9FF00BFD2
:1001CC00D34D6210F815000810B586B0144B9A691F
:1001DC0042F010029A619A6902F010020092009AA1
:1001EC009A6942F004029A619B6903F0040301933B
:1001FC00019B0C4C00224FF40051204600F050FEA5
:10020C004FF400530293012303930023049302231E
:10021C00059302A9204600F059FD06B010BD00BFA1
:10022C00001002400010014008B50B480B4B036056
:10023C004FF4E133436000238360C36003610C22FD
:10024C0042618361C36100F095F900B908BD442196
:10025C000348FFF77DFFF9E77C00002000440040D5
:10026C00041600080268204B9A4200D0704770B503
:10027C0086B0044603F5E633DA6942F40032DA61FB
:10028C00DB6903F400330193019B042302930223E3
:10029C00039303230593154E02A9304600F016FD77
:1002AC00082302930025039504950DEB03013046BA
:1002BC0000F00CFD0E480F4B03601023436085606B
:1002CC008023C360056145618561C56100F008FE4E
:1002DC0020B9074B23635C6206B070BD6F210648E2
:1002EC00FFF736FFF5E700BF00440040000801406F
:1002FC003800002080000240041600087047FEE71A
:10030C00FEE7FEE7FEE770477047704708B500F060
:10031C0099F901F07AF808BD08B5024800F05AFFC7
:10032C0008BD00BF3800002000B583B0244B9A698B
:10033C0042F001029A619A6902F001020092009A5D
:10034C00DA6942F08052DA61DB6903F08053019381
:10035C00019B032000F0E0FF002211466FF00B0020
:10036C0000F0ECFF002211466FF00A0000F0E6FFEF
:10037C00002211466FF0090000F0E0FF0022114648
:10038C006FF0040000F0DAFF002211466FF003005A
:10039C0000F0D4FF002211466FF0010000F0CEFFF8
:1003AC00002211464FF0FF3000F0C8FF054A536899
:1003BC0023F0E06343F00073536003B05DF804FB7B
:1003CC0000100240000001402DE9F8430546026888
:1003DC00136923F44053C1680B43136183680269AA
:1003EC001343426913430168CA6822F4B05222F0E5
:1003FC000C021343CB600268536923F44073816988
:10040C000B4353610268594B9A4257D000F03EFCA3
:10041C0000EB800000EB80006C68A400B0FBF4F4EF
:10042C00534FA7FB04346409260100F02FFC00EBAA
:10043C00800000EB80006C68A400B0FBF4F900F0C5
:10044C0025FC00EB800000EB80006C68A400B0FB86
:10045C00F4F4A7FB043464094FF0640808FB14940B
:10046C0024013234A7FB0434640904F0F00434444E
:10047C0000F00CFC00EB800000EB80006E68B60016
:10048C00B0FBF6F600F002FC00EB800000EB800005
:10049C006B689B00B0FBF3F0A7FB0030400908FB36
:1004AC0010684FEA081808F13208A7FB0837C7F3A1
:1004BC0043172B6827449F60BDE8F88300F0F6FBD8
:1004CC0000EB800000EB80006C68A400B0FBF4F43F
:1004DC00274FA7FB04346409260100F0E7FB00EB6F
:1004EC00800000EB80006C68A400B0FBF4F900F015
:1004FC00DDFB00EB800000EB80006C68A400B0FB1F
:10050C00F4F4A7FB043464094FF0640808FB14945A
:10051C0024013234A7FB0434640904F0F00434449D
:10052C0000F0C4FB00EB800000EB80006E68B600AE
:10053C00B0FBF6F600F0BAFB00EB800000EB80009D
:10054C006B689B00B0FBF3F0A7FB0030400908FB85
:10055C0010684FEA081808F13208A7FB0837C7F3F0
:10056C0043172B6827449F60A6E700BF0038014063
:10057C001F85EB5158B310B5044690F839300BB3C6
:10058C00242384F839302268D36823F40053D360D1
:10059C002046FFF719FF2268136923F49043136177
:1005AC002268536923F02A0353612268D36843F409
:1005BC000053D3600020E063202384F8393084F8A2
:1005CC003A3010BD80F83830FFF74CFED8E70120E8
:1005DC007047000010B504460E4B18784FF47A7330
:1005EC00B3FBF0F30C4A1068B0FBF3F000F0E6FE3E
:1005FC0068B90F2C01D901200AE0002221464FF0E6
:10060C00FF3000F09BFE054B1C60002000E0012039
:10061C0010BD00BF000000200800002004000020D6
:10062C0008B5074A136843F010031360032000F069
:10063C0073FE0020FFF7CEFFFFF776FE002008BD0B
:10064C0000200240034A1168034B1B780B441360D3
:10065C00704700BFBC00002000000020014B186850
:10066C00704700BFBC00002038B50446FFF7F6FF0A
:10067C000546B4F1FF3F02D0044B1B781C44FFF736
:10068C00EDFF401BA042FAD338BD00BF0000002094
:10069C0082B0084B1B68084AA2FB03235B0A00FBD1
:1006AC0003F0019000BF019B5A1E0192002BF9D15F
:1006BC0002B0704708000020D34D621070B582B0B4
:1006CC000446036813F0010F2CD0AB4B5B6803F0AE
:1006DC000C03042B1DD0A84B5B6803F00C03082BF8
:1006EC0012D06368B3F5803F41D0002B55D103F194
:1006FC00804303F504331A6822F480321A601A68B6
:10070C0022F480221A6037E09B4B5B6813F4803F25
:10071C00E7D0994B1B6813F4003F03D06368002BA0
:10072C0000F0AE81236813F0020F76D0924B5B6819
:10073C0013F00C0F5FD0904B5B6803F00C03082B8D
:10074C0054D02369002B00F08A808C4B01221A6054
:10075C00FFF784FF0546884B1B6813F0020F75D119
:10076C00FFF77CFF401B0228F5D903208BE1824A5E
:10077C00136843F480331360636843B3FFF76EFF71
:10078C0005467D4B1B6813F4003FCBD1FFF766FF8A
:10079C00401B6428F5D9032075E1B3F5A02F09D0CF
:1007AC00754B1A6822F480321A601A6822F480227F
:1007BC001A60E1E703F18043A3F53C331A6842F475
:1007CC0080221A601A6842F480321A60D4E7FFF76C
:1007DC0045FF0546684B1B6813F4003FA2D0FFF79A
:1007EC003DFF401B6428F5D903204CE1624B5B684C
:1007FC0013F4803FA5D1604B1B6813F0020F04D09B
:10080C002369012B01D001203DE15B4A136823F0E1
:10081C00F803616943EAC1031360236813F0080FFE
:10082C0032D0A369002B5BD0554B01221A60FFF725
:10083C0015FF0546504B5B6A13F0020F21D1FFF7F1
:10084C000DFF401B0228F5D903201CE14A4A13680E
:10085C0023F0F803616943EAC1031360DDE7474BFA
:10086C0000221A60FFF7FAFE0546434B1B6813F093
:10087C00020FD2D0FFF7F2FE401B0228F5D903205D
:10088C0001E10120FFF704FF236813F0040F00F0CF
:10089C009780394BDB6913F0805F33D1364BDA69C3
:1008AC0042F08052DA61DB6903F080530193019BC3
:1008BC000125344B1B6813F4807F25D0E368012B92
:1008CC0036D0002B4CD103F1804303F504331A6A64
:1008DC0022F001021A621A6A22F004021A622CE057
:1008EC00274B00221A60FFF7B9FE0546224B5B6AC4
:1008FC0013F0020FC8D0FFF7B1FE401B0228F5D948
:10090C000320C0E00025D4E71E4A136843F480732B
:10091C001360FFF7A3FE06461A4B1B6813F4807F87
:10092C00CCD1FFF79BFE801B6428F5D90320AAE0ED
:10093C00114A136A43F001031362E36873B3FFF7C0
:10094C008DFE06460C4B1B6A13F0020F37D1FFF7D6
:10095C0085FE801B41F288339842F3D9032092E044
:10096C00052B11D0044B1A6A22F001021A621A6A82
:10097C0022F004021A62E0E700100240000042423A
:10098C008004424200700040414B1A6A42F004025B
:10099C001A621A6A42F001021A62CEE7FFF75EFE93
:1009AC0006463B4B1B6A13F0020F08D0FFF756FEAE
:1009BC00801B41F288339842F3D9032063E0E5B9F8
:1009CC00E369002B5ED0324A526802F00C02082A0E
:1009DC005BD0022B17D02F4B00221A60FFF73EFE84
:1009EC0004462B4B1B6813F0007F47D0FFF736FEF5
:1009FC00001B0228F5D9032045E0254AD36923F0D2
:100A0C008053D361DCE7234B00221A60FFF726FEEC
:100A1C0005461F4B1B6813F0007F06D0FFF71EFE28
:100A2C00401B0228F5D903202DE0236AB3F5803F43
:100A3C001AD017494B6823F47413226A606A024374
:100A4C0013434B60134B01221A60FFF707FE044659
:100A5C000F4B1B6813F0007F0ED1FFF7FFFD001B3F
:100A6C000228F5D903200EE0094A536823F4003319
:100A7C00A1680B435360DCE7002004E0002002E097
:100A8C00012000E0002002B070BD0120FBE700BF98
:100A9C00001002406000424210B487B0164C94E83B
:100AAC000F000DF1180C0CE90F00238AADF804307F
:100ABC00124B5B6803F00C02082A1AD1C3F3834271
:100ACC00624412F8102C13F4803F05D10C4800FB43
:100ADC0002F007B010BC7047084B5B68C3F340438F
:100AEC00634413F8143C074800FB02F0B0FBF3F02E
:100AFC00EFE70448EDE700BFE415000800100240E2
:100B0C0000093D0000127A00594B1B6803F00703E3
:100B1C008B420CD2564A136823F007030B43136025
:100B2C00136803F007038B4201D00120704770B5A6
:100B3C00036813F0020F06D04E4A536823F0F003FB
:100B4C008468234353600C460546036813F0010F79
:100B5C0052D04368012B23D0022B28D0454A12686F
:100B6C0012F0020F00F0828042494A6822F0030220
:100B7C0013434B60FFF772FD06466B68012B1DD0CB
:100B8C00022B2AD03B4B5B6813F00C0F34D0FFF7D1
:100B9C0065FD801B41F288339842F3D9032064E051
:100BAC00344A126812F4003FDED101205DE0314A74
:100BBC00126812F0007FD7D1012056E02D4B5B68F4
:100BCC0003F00C03042B17D0FFF748FD801B41F2F8
:100BDC0088339842F2D9032047E0264B5B6803F038
:100BEC000C03082B08D0FFF739FD801B41F288332A
:100BFC009842F2D9032038E01D4B1B6803F0070321
:100C0C00A3420CD91A4A136823F007032343136039
:100C1C00136803F00703A34201D0012025E02B68E1
:100C2C0013F0040F06D0134A536823F4E063E96809
:100C3C000B4353602B6813F0080F07D00D4A536811
:100C4C0023F46053296943EAC1035360FFF724FF7F
:100C5C00084B5B68C3F30313074AD35CD840074BBC
:100C6C0018600020FFF7B6FC002070BD0120FCE7E7
:100C7C00002002400010024010160008080000205E
:100C8C00014B1868704700BF0800002008B5FFF73B
:100C9C00F7FF044B5B68C3F30223034AD35CD840D1
:100CAC0008BD00BF001002402016000808B5FFF771
:100CBC00E7FF044B5B68C3F3C223034AD35CD84001
:100CCC0008BD00BF0010024020160008F0B482B02E
:100CDC0000263546A1E0002C59D0012C00D1CE685D
:100CEC00FF2B68D88446FF2B68D8AC00DCF80020BA
:100CFC000F27A74022EA070206FA04F42243CCF895
:100D0C0000204A6812F0805F00F086805E4A946989
:100D1C0044F001049461926902F001020192019A7B
:100D2C00AC08A71C594A52F8272005F00307BF004E
:100D3C004FF00F0C0CFA07FC22EA0C0C544A9042B0
:100D4C0042D002F5806290427FD002F580629042E0
:100D5C007DD002F58062904234D0042235E04D4FB4
:100D6C00BC4214D00BD94C4FBC4210D007F5803785
:100D7C00BC420CD0A7F58017BC42B1D107E0A7F557
:100D8C008017BC4203D007F58037BC42A8D18C68D1
:100D9C007CB1012C08D042610826A1E7CE68083648
:100DAC009EE7CE680C369BE70261082698E7002682
:100DBC0096E7042694E700F1040C94E7A5F10804E7
:100DCC00A40093E7032200E00022BA4042EA0C029E
:100DDC0002342E4F47F824204A6812F4803F38D052
:100DEC002E4C22681A4322604A6812F4003F36D017
:100DFC002A4C62681A4362604A6812F4801F34D02D
:100E0C00264CA2681A43A2604A6812F4001F32D022
:100E1C00224CE2681343E36001350F2D31D80122D7
:100E2C00AA400B6813409A42F6D14C68122CB8D0E9
:100E3C0095D8022CB2D07FF64EAF032CB7D0112C24
:100E4C007FF44EAFCE6804364AE70122BDE702229A
:100E5C00BBE7124C226822EA03022260C4E70F4C63
:100E6C00626822EA03026260C6E70C4CA26822EABE
:100E7C000302A260C8E7094CE26822EA0303E360BC
:100E8C00CAE702B0F0BC70470010024000000140FD
:100E9C000008014000002110000031100004014046
:100EAC0012B909040161704701617047C368594068
:100EBC00C160704770B4066CC56B0124B4406C60A3
:100ECC00046863604368102B05D00368996003685D
:100EDC00DA6070BC704703689A600368D960F8E701
:100EEC00002830D010B403460168184A0A44184848
:100EFC00A0FB0202120992001A64164ADA6302225B
:100F0C0083F82120086820F47F5020F030005A68C4
:100F1C009C682243DC6822431C6922435C6922439F
:100F2C009C692243DC69224302430A6000209862D8
:100F3C00D862186358639863012283F8212083F8E0
:100F4C00200010BC70470120704700BFF8FFFDBFA8
:100F5C00CDCCCCCC0000024070B590F82040012CD8
:100F6C0020D0012480F8204090F82140012C04D09E
:100F7C00002380F82030022070BD0446022084F843
:100F8C0021000025A5632668306820F00100306040
:100F9C002046FFF78FFF2268136843F001031360AC
:100FAC002846E9E70220E7E790F82130022B06D02B
:100FBC0004238363002380F82030012070472DE93F
:100FCC00F04103681C6814F0200F15D1E9B97F4C6F
:100FDC00A34232D01434A34237D01434A34236D0B7
:100FEC001434A34236D01434A34236D01434A34262
:100FFC0008D04FF0007621E04FF48073836301201A
:10100C00BDE8F0814FF4001618E0704CA34227D0D5
:10101C001434A34226D01434A34225D01434A34252
:10102C0025D01434A34225D01434A34202D04FF05F
:10103C00806603E04FF4800600E0022615460F465A
:10104C000446FFF70BFB804620E02026F6E74FF422
:10105C000076F3E74FF40056F0E74FF40036EDE777
:10106C000426EBE74026E9E74FF48066E6E74FF409
:10107C008046E3E74FF48026E0E74FF4000300E0FE
:10108C0008231A4229D1B5F1FF3F35D1504B1B68CB
:10109C00334243D14E4B1A6823684C498B42EFD0F4
:1010AC0014318B420ED014318B420DD014318B4243
:1010BC000DD014318B420DD014318B42DDD04FF05A
:1010CC000063DEE78023DCE74FF40063D9E74FF4DD
:1010DC000043D6E74FF40023D3E7236CE26B0120E7
:1010EC0000FA03F35360A36B0343A36384F821005A
:1010FC00002384F8203083E72DB1FFF7AFFAA0EB83
:10110C000800A842C2D9A36B43F02003A3630120BB
:10111C0084F82100002384F8203071E76FBB23682A
:10112C002A4A934214D0143293421BD01432934265
:10113C001AD0143293421AD0143293421AD0143269
:10114C00934202D04FF0007203E04FF4001200E023
:10115C0002221F4B5A60012384F82130002084F8AE
:10116C0020004DE72022F4E74FF40072F1E74FF432
:10117C000052EEE74FF40032EBE72368134A934238
:10118C0014D01432934215D01432934214D014322A
:10119C00934214D01432934214D01432934202D09E
:1011AC004FF0806203E04FF4800200E00422084B11
:1011BC005A60D3E74022FAE74FF48062F7E74FF426
:1011CC008042F4E74FF48022F1E700BF08000240B0
:1011DC000000024038B5C36B1A6804682568016CBE
:1011EC0004238B40134235D015F0040F32D0236802
:1011FC0013F0200F03D1236823F00403236003684A
:10120C00434A934214D01432934218D0143293426E
:10121C0017D01432934217D01432934217D0143291
:10122C00934202D04FF0806203E04FF4800200E062
:10123C000422384B5A60C36A03B1984738BD402228
:10124C00F7E74FF48062F4E74FF48042F1E74FF494
:10125C008022EEE702238B4013423CD015F0020FA4
:10126C0039D0236813F0200F06D1236823F00A032A
:10127C002360012380F821300368254A934214D05F
:10128C00143293421CD0143293421BD0143293422A
:10129C001BD0143293421BD01432934202D04FF025
:1012AC00007203E04FF4001200E00222194B5A6066
:1012BC00002380F82030836A002BBFD09847BDE70D
:1012CC002022F3E74FF40072F0E74FF40052EDE701
:1012DC004FF40032EAE7082303FA01F11142ADD0D2
:1012EC0015F0080FAAD0236823F00E032360026CBC
:1012FC00C16B012303FA02F24A60836380F8213048
:10130C00002380F82030036B002B97D0984795E78B
:10131C000800024000000240074AD36823F4E0634F
:10132C001B041B0C000200F4E060184340F0BF608B
:10133C0040F40030D060704700ED00E030B4174B43
:10134C00DB68C3F30223C3F10704042C28BF042475
:10135C001D1D062D18D9033B4FF0FF3505FA04F47B
:10136C0021EA0401994005FA03F322EA0303194325
:10137C0000280BDB0901C9B200F1604000F56140A7
:10138C0080F8001330BC70470023E5E700F00F0035
:10139C000901C9B2024B1954F4E700BF00ED00E09B
:1013AC0014ED00E000F01F02400901239340024AB3
:1013BC0042F82030704700BF00E100E00138B0F186
:1013CC00807F0AD2064B5860064AF02182F823101F
:1013DC000020986007221A6070470120704700BFF8
:1013EC0010E000E000ED00E0042805D0054A136889
:1013FC0023F0040313607047024A136843F004039C
:10140C001360704710E000E0704708B5FFF7FCFF71
:10141C0008BD00000F4B1A6842F001021A605968AF
:10142C000D4A0A405A601A6822F0847222F4803203
:10143C001A601A6822F480221A605A6822F4FE029A
:10144C005A604FF41F029A60044B4FF000629A608E
:10145C00704700BF001002400000FFF800ED00E0F4
:10146C0080B5FFF7DDF8FEF775FEFEF7ADFE00F078
:10147C0043F8FEF7D9FE1B481B4B03601023436057
:10148C00002383608022C260036143618361C36176
:10149C00FFF726FD154C25680435154F3846FEF729
:1014AC004FFE104E03462A4639463046FFF754FD90
:1014BC002268536943F0800353614FF0FF320021DF
:1014CC003046FFF771FD2268536923F080035361A6
:1014DC004FF400510748FFF7E9FC4FF4FA70FFF79F
:1014EC00C3F8D7E738000020800002407C000020C1
:1014FC000C0000200010014000B583B00A4B5A6963
:10150C0042F001025A615B6903F001030193019BF4
:10151C00002211461120FFF711FF1120FFF742FFA7
:10152C0003B05DF804FB00BF00100240002103E093
:10153C000B4B5B58435004310A480B4B42189A42F0
:10154C00F6D30A4A02E0002342F8043B084B9A42C5
:10155C00F9D3FFF75FFF00F00FF8FFF781FF70473B
:10156C0030160008000000201C0000201C00002089
:10157C00C0000020FEE7000070B500250C4E0D4C9D
:10158C00A41BA410A54209D100F01AF800250A4E9C
:10159C000A4CA41BA410A54205D170BD56F82530E9
:1015AC0098470135EEE756F8253098470135F2E7B4
:1015BC002816000828160008281600082C16000803
:1015CC00F8B500BFF8BC08BC9E467047F8B500BF24
:0815DC00F8BC08BC9E467047F4
:1015E40002030405060708090A0B0C0D0E0F101060
:1015F400010200005372632F6D61696E2E63000057
:101604005372632F75736172742E630000000000BF
:10161400000000000102030406070809000000009E
:0416240001020304B8
:041628003101000884
:04162C000D010008A4
:10163000010000001000000000A24A0474657374E9
:0C164000206D6573736167650000000099
:0400000508001539A1
:00000001FF
