:020000040800F2
:1000000000000120ED1500086103000863030008EB
:10001000650300086703000869030008000000008A
:100020000000000000000000000000006B0300085A
:100030006D030008000000006F0300087103000852
:100040003D1600083D1600083D1600083D16000844
:100050003D1600083D1600083D1600083D16000834
:100060003D1600083D1600083D1600083D16000824
:100070003D1600083D1600083D1600083D16000814
:100080003D1600083D1600083D1600083D16000804
:100090003D1600083D1600083D1600083D160008F4
:1000A0003D1600083D1600083D1600083D160008E4
:1000B0003D1600083D1600083D1600083D160008D4
:1000C0003D1600083D1600083D1600083D160008C4
:1000D0003D1600083D1600083D1600083D160008B4
:1000E0003D1600083D1600083D1600083D160008A4
:1000F0003D1600083D1600083D1600083D16000894
:100100003D16000800000000000000003D16000839
:100110003D1600083D160008050300083D160008BE
:100120003D1600083D1600083D1600083D16000863
:100130003D1600083D160008000000000000000009
:100140003D1600083D1600083D160008000000009E
:10015000000000000000000000000000000000009F
:100160003D1600083D1600083D1600083D16000823
:100170003D1600083D1600083D1600083D16000813
:100180003D1600083D1600080000000000000000B9
:040190003D16000810
:1001940010B5054C237833B9044B13B10448AFF3BD
:1001A40000800123237010BD0C000020000000001B
:1001B4008816000808B5034B1BB103490348AFF385
:1001C400008008BD00000000100000208816000810
:1001D400FEE7000000B5A7B002231C9301221F9282
:1001E4001022209222934FF4004323934FF4E01300
:1001F4002493002325931CA800F0B2FA48BB0F23D4
:10020400179302211891002319934FF480621A92D4
:100214001B9317A800F0ECFDF8B902230193002307
:10022400049301A800F0BAFED8B900F0B1FE0F4B58
:10023400A3FB0030800901F061F9042001F074F996
:10024400002211464FF0FF3001F018F927B05DF895
:1002540004FB61210648FFF7BBFF6F210448FFF749
:10026400B7FF76210248FFF7B3FF00BFD34D6210FA
:10027400A016000800B583B00C4B5A6942F4003252
:100284005A615B6903F400330193019B08492023FD
:100294000B6001234B6000238B60CB604FF09040D8
:1002A40001F000F803B05DF804FB00BF0010024049
:1002B4002800002000B583B00E4B0F4A1A6048F6A0
:1002C4009F425A6040F2E732DA600C4BDA6942F03E
:1002D4001002DA61DB6903F010030193019B002231
:1002E4001146362001F0CAF8362001F0FBF803B0BD
:1002F4005DF804FB3C0000200010004000100240A8
:1003040008B5024800F090F808BD00BF3C0000208A
:1003140010B5044600F0BEF9204600F075F810BD93
:1003240008B500F0F9F9FFF755FFFFF7A3FFFFF752
:10033400C1FF0248FFF7ECFFFEE700BF3C000020CE
:1003440008B50268044B9A4200D008BD20214FF042
:10035400904001F07DF8F8E7001000407047FEE798
:10036400FEE7FEE7FEE770477047704708B500F008
:10037400E5F901F0EAF808BD00B583B0214B9A69AC
:1003840042F001029A619A6902F001020092009A15
:10039400DA6942F08052DA61DB6903F08053019339
:1003A400019B072001F058F8002211466FF00B0062
:1003B40001F064F8002211466FF00A0001F05EF8C3
:1003C400002211466FF0090001F058F8002211468E
:1003D4006FF0040001F052F8002211466FF00300A0
:1003E40001F04CF8002211466FF0010001F046F8CC
:1003F400002211464FF0FF3001F040F803B05DF8E1
:1004040004FB00BF001002400268D36843F00103FC
:10041400D3600268136843F001031360002070473F
:10042400704770477047704710B5044603681A69EF
:1004340012F0020F11D0DA6812F0020F0DD06FF033
:1004440002021A610123037703689B6913F0030F07
:1004540079D0FFF7E6FF0023237723681A6912F0A7
:10046400040F12D0DA6812F0040F0ED06FF00402F9
:100474001A610223237723689B6913F4407F68D0B1
:100484002046FFF7CEFF0023237723681A6912F072
:10049400080F12D0DA6812F0080F0ED06FF00802BD
:1004A4001A61042323772368DB6913F0030F57D001
:1004B4002046FFF7B6FF0023237723681A6912F05A
:1004C400100F12D0DA6812F0100F0ED06FF0100275
:1004D4001A61082323772368DB6913F4407F46D02D
:1004E4002046FFF79EFF0023237723681A6912F042
:1004F400010F03D0DA6812F0010F3FD123681A69A3
:1005040012F0800F03D0DA6812F0800F3DD1236817
:100514001A6912F4807F03D0DA6812F0800F3BD19D
:1005240023681A6912F0400F03D0DA6812F0400F02
:1005340039D123681A6912F0200F03D0DA6812F057
:10054400200F37D110BDFFF76BFF2046FFF76AFF7E
:1005540081E72046FFF764FF2046FFF763FF92E739
:100564002046FFF75DFF2046FFF75CFFA3E7204628
:10057400FFF756FF2046FFF755FFB4E76FF001027F
:100584001A612046FFF7DCFEB8E76FF080021A61BB
:10059400204600F099F8BAE76FF480721A61204699
:1005A40000F093F8BCE76FF040021A612046FFF7B1
:1005B4003AFFBEE76FF020021A61204600F083F88C
:1005C400C0E700000368324A904212D0B0F1804F75
:1005D4000FD0A2F5943290420BD002F58062904283
:1005E40007D002F59632904203D002F5E0529042D1
:1005F40003D123F070034A681343254A90421ED066
:10060400B0F1804F1BD0A2F59432904217D002F57E
:100614008062904213D002F5963290420FD002F5D8
:10062400406290420BD002F58062904207D002F5FE
:100634008062904203D002F50062904203D123F419
:100644004073CA68134323F080034A691343036069
:100654008B68C3620B6883620D4B984213D003F519
:10066400006398420FD003F5406398420BD003F522
:100674008063984207D003F58063984203D003F562
:100684000063984201D10B690363012343617047FE
:10069400002C0140A8B110B5044690F83D305BB180
:1006A400022384F83D30211D2068FFF78BFF0123CE
:1006B40084F83D30002010BD80F83C3000F07EFF0F
:1006C400EEE70120704770477047704710B5044645
:1006D4000E4B18784FF47A73B3FBF0F30C4A10689E
:1006E400B0FBF3F000F00AFF68B90F2C01D9012028
:1006F4000AE0002221464FF0FF3000F0BFFE054B18
:100704001C60002000E0012010BD00BF000000209C
:10071400080000200400002008B5074A136843F0CD
:1007240010031360032000F097FE0020FFF7CEFFB4
:10073400FFF722FE002008BD00200240034A116892
:10074400034B1B780B441360704700BF7C000020F0
:1007540000000020014B1868704700BF7C00002097
:10076400002800F0F98270B582B00446036813F0E3
:10077400010F3DD0B44B5B6803F00C03042B20D075
:10078400B14B5B6803F00C03082B13D06368B3F51B
:10079400803F6AD0002B40F08D8003F1804303F545
:1007A40004331A6822F480321A601A6822F4802210
:1007B4001A605FE0A44B5B6803F4C033B3F5803F79
:1007C400E4D14FF4003393FAA3F39F4B19684FF429
:1007D400003393FAA3F3B3FA83F303F01F03012264
:1007E40002FA03F30B4203D06368002B00F0BC82CF
:1007F400236813F0020F00F0C180934B5B6813F081
:100804000C0F00F09780904B5B6803F00C03082BEF
:1008140000F08880E368002B00F0EE80012292FA59
:10082400A2F3B3FA83F303F1845303F584139B0017
:100834001A60FFF78FFF0546022393FAA3F3824B56
:100844001968022393FAA3F3B3FA83F303F01F03A3
:10085400012202FA03F30B4240F0BF80FFF77AFF54
:10086400401B0228E8D9032085E2774A136843F441
:10087400803313606368002B36D0FFF76BFF0546A7
:100884004FF4003393FAA3F36F4B19684FF400331A
:1008940093FAA3F3B3FA83F303F01F03012202FADA
:1008A40003F30B42A4D1FFF755FF401B6428E7D99B
:1008B400032060E2B3F5A02F09D0634B1A6822F439
:1008C40080321A601A6822F480221A60D2E703F197
:1008D4008043A3F53C331A6842F480221A601A68F4
:1008E40042F480321A60C5E7FFF734FF05464FF43F
:1008F400003393FAA3F3544B19684FF4003393FA7B
:10090400A3F3B3FA83F303F01F03012202FA03F300
:100914000B423FF46DAFFFF71DFF401B6428E6D97F
:10092400032028E2484B5B6803F4C033B3F5004F5F
:100934007FF470AF022393FAA3F3434B19680223A5
:1009440093FAA3F3B3FA83F303F01F03012202FA29
:1009540003F30B4204D0E368934201D001200AE27E
:100964003948036823F0F8032169F82292FAA2F2C5
:10097400B2FA82F201FA02F213430360236813F01D
:10098400080F00F08D806369002B61D0012191FA7A
:10099400A1F2B2FA82F22D4B13449B001960FFF7C7
:1009A400D9FE0546022393FAA3F293FAA3F293FA2B
:1009B400A3F2254A516A93FAA3F3B3FA83F303F03B
:1009C4001F03012202FA03F30B4269D1FFF7C2FEAF
:1009D400401B0228E6D90320CDE11B48036823F01D
:1009E400F8032169F82292FAA2F2B2FA82F201FA29
:1009F40002F213430360C1E7012393FAA3F3B3FAAA
:100A040083F303F1845303F584139B0000221A60DB
:100A1400FFF7A0FE0546022393FAA3F30A4B1968D5
:100A2400022393FAA3F3B3FA83F303F01F0301221F
:100A340002FA03F30B42A1D0FFF78CFE401B0228FD
:100A4400E9D9032097E100BF0010024020819010F3
:100A5400012292FAA2F2B2FA82F2C04B13449B0032
:100A640000221A60FFF776FE0546022393FAA3F2EA
:100A740093FAA3F293FAA3F2B94A516A93FAA3F34D
:100A8400B3FA83F303F01F03012202FA03F30B42C8
:100A940006D0FFF75FFE401B0228E6D903206AE177
:100AA400236813F0040F00F0B380AD4BDB6913F03F
:100AB400805F20D1AA4BDA6942F08052DA61DB69A7
:100AC40003F080530193019B0125A64B1B6813F48B
:100AD400807F12D0A368012B23D073BB03F1804322
:100AE40003F504331A6A22F001021A621A6A22F028
:100AF40004021A621AE00025E7E79A4A136843F4ED
:100B040080731360FFF726FE0646964B1B6813F4AA
:100B1400807FDFD1FFF71EFE801B6428F5D90320F8
:100B240029E18F4A136A43F001031362A368002B7F
:100B340041D0FFF70FFE06462BE0052B09D0884B6A
:100B44001A6A22F001021A621A6A22F004021A6274
:100B5400ECE7834B1A6A42F004021A621A6A42F002
:100B640001021A62E2E77E4B196A022393FAA3F3A5
:100B7400B3FA83F303F01F03012202FA03F31942C9
:100B840045D1FFF7E7FD801B41F28833984200F21C
:100B9400ED80022393FAA3F293FAA3F3B3FA83F357
:100BA4005B0943F00203022BDDD0022393FAA3F383
:100BB4006B4B596AD9E7FFF7CDFD064615E0684B44
:100BC400196A022393FAA3F3B3FA83F303F01F031E
:100BD400012202FA03F3194219D0FFF7BBFD801B6F
:100BE40041F28833984200F2C380022393FAA3F2BD
:100BF40093FAA3F3B3FA83F35B0943F00203022BE2
:100C0400DDD0022393FAA3F3554B596AD9E7B5BB58
:100C1400A369002B00F0AE80514A526802F00C0226
:100C2400082A00F0AA80022B2FD04FF0807393FA89
:100C3400A3F3B3FA83F303F1845303F584139B0002
:100C440000221A60FFF786FD04464FF0007393FA02
:100C5400A3F3434B19684FF0007393FAA3F3B3FA69
:100C640083F303F01F03012202FA03F3194271D044
:100C7400FFF770FD001B0228E7D903207BE0384A08
:100C8400D36923F08053D361C2E74FF0807393FAA2
:100C9400A3F3B3FA83F303F1845303F584139B00A2
:100CA40000221A60FFF756FD05464FF0007393FAD1
:100CB400A3F32B4B19684FF0007393FAA3F3B3FA21
:100CC40083F303F01F03012202FA03F3194206D04F
:100CD400FFF740FD401B0228E7D903204BE0204AE0
:100CE400D36A23F00F03616A0B43D362536823F47E
:100CF4007613216AE06901430B4353604FF080731C
:100D040093FAA3F3B3FA83F303F1845303F584133F
:100D14009B0001221A60FFF71DFD04464FF000738B
:100D240093FAA3F30E4B19684FF0007393FAA3F3ED
:100D3400B3FA83F303F01F03012202FA03F3194207
:100D440006D1FFF707FD001B0228E7D9032012E0B4
:100D5400002010E000200EE0012070472081901058
:100D64000010024000700040012004E0032002E073
:100D7400032000E0002002B070BD0120FBE700BFAB
:100D8400174B596801F00C03082B26D101F470129B
:100D94004FF4701393FAA3F3B3FA83F322FA03F331
:100DA400104AD05C0E4BDB6A03F00F030F2292FA59
:100DB400A2F2B2FA82F2D3400B4AD25C11F4803F21
:100DC40005D10A4BB3FBF2F300FB03F07047074B6A
:100DD400B3FBF2F300FB03F070470448704700BF15
:100DE40000100240AC160008BC16000800127A007D
:100DF400002800F0C08070B50446614B1B6803F006
:100E040007038B420CD25E4A136823F007030B439B
:100E14001360136803F007038B4201D0012070BDF7
:100E2400236813F0020F06D0564A536823F0F003E8
:100E3400A068034353600D46236813F0010F5AD092
:100E44006368012B2DD0022B40D0022292FAA2F229
:100E54004C4A1068022292FAA2F2B2FA82F202F02A
:100E64001F02012101FA02F2104200F08680454976
:100E74004A6822F0030213434B60FFF76BFC0646FB
:100E8400404B5B6803F00C036268B3EB820F32D013
:100E9400FFF760FC801B41F288339842F0D90320AD
:100EA400BDE74FF4003292FAA2F2364A10684FF4CA
:100EB400003292FAA2F2B2FA82F202F01F02012187
:100EC40001FA02F20242D2D10120A8E74FF00072E7
:100ED40092FAA2F22B4A10684FF0007292FAA2F230
:100EE400B2FA82F202F01F02012101FA02F2104268
:100EF400BDD1012093E7224B1B6803F00703AB42EB
:100F04000CD91F4A136823F007032B43136013689B
:100F140003F00703AB4201D0012080E7236813F0FC
:100F2400040F06D0174A536823F4E063E1680B43C7
:100F34005360236813F0080F07D0124A536823F450
:100F44006053216943EAC1035360FFF719FF0D4B56
:100F54005B6803F0F003F02292FAA2F2B2FA82F292
:100F6400D340094AD35CD840084B18600020FFF7EF
:100F7400ADFB002053E70120704701204FE700BF7D
:100F84000020024000100240CC1600080800002097
:100F9400014B1868704700BF08000020F0B583B00B
:100FA4000446036813F4803F48D0A14BDB6913F077
:100FB400805F40F022819E4BDA6942F08052DA6110
:100FC400DB6903F080530193019B0125994B1B6856
:100FD40013F4807F00F01381954B1B6A13F4407364
:100FE40022D0626802F440729A421DD09048016A8D
:100FF40021F440764FF4803393FAA3F2B2FA82F2EA
:101004008D4F3A4492004FF0010CC2F800C093FA9D
:10101400A3F3B3FA83F33B449B0000221A600662F5
:1010240011F0010F40F00081814A136A23F44073E8
:1010340061680B431362002D40F02881236813F08C
:10104400010F06D07A4A136B23F00303A1680B4304
:101054001363236813F0020F06D0754A136B23F44D
:101064004033E1680B431363236813F0040F06D085
:101074006F4A136B23F4402321690B4313632368E2
:1010840013F0200F06D06A4A136B23F01003E169B2
:101094000B431363236813F4003F06D0644A536878
:1010A40023F48003616D0B435360236813F0400FF6
:1010B40006D05F4A136B23F02003216A0B431363AA
:1010C400236813F4802F06D0594A136B23F040038E
:1010D400616A0B431363236813F0080F06D0544A64
:1010E400136B23F4401361690B431363236813F0F8
:1010F400100F06D04E4A136B23F44003A1690B432F
:101104001363236813F4007F06D0494A536823F419
:101114000003216B0B435360236813F0800F06D048
:10112400434AD36A23F4F873A16A0B43D362236856
:1011340013F4807F06D03E4AD36A23F47853E16ADD
:101144000B43D362236813F4805F06D0384A136BD1
:1011540023F48073616B0B431363236813F4005F00
:1011640006D0334A136B23F40073216C0B431363CF
:10117400236813F4801F06D02D4A136B23F0807369
:10118400A16B0B431363236813F4001F06D0284A92
:10119400136B23F00073E16B0B431363236813F4A5
:1011A400800F06D0224A136B23F48063616C0B43D7
:1011B4001363236813F4000F06D01D4A136B23F442
:1011C4000063A16C0B431363236813F0807F06D084
:1011D400174A136B23F40053E16C0B431363236826
:1011E40013F0007F59D0124A136B23F40043216D8E
:1011F4000B431363002003B0F0BD0025E6E60D4A5F
:10120400136843F480731360FFF7A4FA0646094B8E
:101214001B6813F4807F7FF4DFAEFFF79BFA801B1B
:101224006428F4D90320E6E7FFF794FA06461BE0A6
:10123400001002400070004000819010184B196AA1
:10124400022393FAA3F3B3FA83F303F01F030122F7
:1012540002FA03F30B427FF4E7AEFFF77BFA801B3D
:1012640041F28833984216D8022393FAA3F293FAF0
:10127400A3F3B3FA83F35B0943F00203022BDDD03B
:10128400022393FAA3F3064B596AD9E7D36923F0EF
:101294008053D361D2E60320ADE70020ABE700BF63
:1012A40000100240F0B482B0002336E0062400E0CF
:1012B4000024B4403C430235614E46F82540614C5D
:1012C4002568D44304EA05064F6817F4803F01D02B
:1012D40042EA05065B4D2E606D6804EA05064F6818
:1012E40017F4003F01D042EA0506564D6E60AD6822
:1012F40004EA05064F6817F4801F01D042EA050688
:10130400504DAE60ED682C404E6816F4001F01D0BD
:1013140042EA05044B4AD46001330A6832FA03F402
:1013240000F08B8001249C402240F5D04D68022DB2
:1013340001D0122D10D1DE08083650F826C003F073
:101344000705AF000F25BD402CEA050C0D69BD4013
:1013540045EA0C0540F8265006685F000325BD40A9
:10136400ED4305EA060C4E6806F00306BE4046EA65
:101374000C0606604E6806F1FF3CBCF1010F03D970
:10138400112E01D0122E10D1866805EA060CCE6803
:10139400BE4046EA0C068660466826EA04044E68A7
:1013A400C6F300169E4026434660C46825408C68F8
:1013B400BC402C43C4604C6814F0805FACD0224C19
:1013C400A56945F00105A561A46904F0010401942F
:1013D400019C9D08AE1C1A4C54F8267003F00304BB
:1013E400A6000F24B44027EA0407B0F1904F3FF45D
:1013F4005FAF164CA04216D004F58064A04214D00E
:1014040004F58064A04212D004F58064A04210D098
:1014140004F58064A0420ED004F58064A0423FF439
:1014240045AF072445E7012443E7022441E70324A9
:101434003FE704243DE705243BE702B0F0BC7047D6
:101444000000014000040140001002400004004874
:101454004369594041617047074AD36823F4E06304
:101464001B041B0C000200F4E060184340F0BF6052
:1014740040F40030D060704700ED00E030B4174B0A
:10148400DB68C3F30223C3F10704042C28BF04243C
:101494001D1D062D18D9033B4FF0FF3505FA04F442
:1014A40021EA0401994005FA03F322EA03031943EC
:1014B40000280BDB0901C9B200F1604000F561406E
:1014C40080F8001330BC70470023E5E700F00F00FC
:1014D4000901C9B2024B1954F4E700BF00ED00E062
:1014E40014ED00E000F01F02400901239340024A7A
:1014F40042F82030704700BF00E100E00138B0F14D
:10150400807F0AD2064B5860064AF02182F82310E5
:101514000020986007221A6070470120704700BFBE
:1015240010E000E000ED00E0042805D0054A13684F
:1015340023F0040313607047024A136843F0040362
:101544001360704710E000E0704708B5FFF7FCFF38
:1015540008BD00001549D1F8883043F47003C1F880
:101564008830134B1A6842F001021A605868114A15
:1015740002405A601A6822F0847222F480321A609F
:101584001A6822F480221A605A6822F4FE025A6011
:10159400DA6A22F00F02DA62186B074A02401A6311
:1015A40000229A604FF000638B60704700ED00E00A
:1015B400001002400CC07FF8CCFC00FF0268094B0D
:1015C4009A4200D0704782B003F50033DA6942F0E2
:1015D4001002DA61DB6903F010030193019B02B08E
:1015E400704700BF00100040DFF834D0002103E052
:1015F4000C4B5B58435004310B480C4B42189A4235
:10160400F6D30B4A02E0002342F8043B094B9A420A
:10161400F9D3FFF79FFF00F011F8FEF781FEFEE714
:1016240000000120E4160008000000200C00002047
:101634000C00002080000020FEE7000070B50D4E75
:101644000D4CA41BA4100025A54209D10B4E0C4C33
:1016540000F018F8A41BA4100025A54205D170BD04
:1016640056F8253098470135EEE756F82530984767
:101674000135F2E7DC160008DC160008DC16000869
:10168400E0160008F8B500BFF8BC08BC9E467047D9
:0C169400F8B500BFF8BC08BC9E467047CB
:1016A0005372632F6D61696E2E630000020304059F
:1016B000060708090A0B0C0D0E0F10100102030497
:1016C00005060708090A0B0C0D0E0F10000000009C
:0C16D000000000000102030406070809E6
:0416DC00B901000848
:0416E0009501000868
:0C16E400010000001000000000127A005D
:04000005080015EDED
:00000001FF
