:020000040800F2
:1000000000500020AD130008270200082902000854
:100010002B0200082D0200082F020008000000003B
:100020000000000000000000000000003102000895
:100030003302000800000000350200083702000803
:10004000F5130008F5130008F5130008F513000870
:10005000F5130008F5130008F5130008F513000860
:10006000F5130008F5130008F5130008F513000850
:10007000F5130008F5130008F5130008F513000840
:10008000F5130008F5130008F5130008F513000830
:10009000F5130008F5130008F5130008F513000820
:1000A000F5130008F5130008F5130008F513000810
:1000B000F5130008F5130008F5130008F513000800
:1000C000F5130008F5130008F5130008F5130008F0
:1000D000F5130008F5130008F5130008F5130008E0
:1000E000F5130008F5130008F513000800000000E0
:1000F0000000000000000000000000000000000000
:0C01000000000000000000005FF808F1A3
:10010C0010B5054C237833B9044B13B10448AFF345
:10011C0000800123237010BD14000020000000009B
:10012C004014000808B5034B1BB103490348AFF357
:10013C00008008BD000000001800002040140008DA
:10014C0008B500BF4FF40051014800F0D1FE08BDC6
:10015C0000100140FEE7000000B591B002230693A9
:10016C0001230A9310230B9300230D9306A800F090
:10017C0027F9F0B90F230193002102910391049107
:10018C00059101A800F0E4FBB8B900F001FD0D4B9E
:10019C00A3FB0030800901F045F8042001F058F869
:1001AC00002211464FF0FF3000F0E0FF11B05DF877
:1001BC0004FB98210448FFF7CDFFA6210248FFF766
:1001CC00C9FF00BFD34D62106C14000808B500F0D5
:1001DC00A9F8FFF7C1FF01F085F801F0B3F8002290
:1001EC0011460B2000F0C2FF0B2001F005F8064869
:1001FC00064B83620A23064A064900F04BFF4FF474
:10020C007A7000F0B3F8F2E7400000204D010008CE
:10021C00300000200000002070477047FEE7FEE72A
:10022C00FEE7FEE770477047704708B500F08CF8A2
:10023C0001F02DF808BD000000B583B0244B9A697D
:10024C0042F001029A619A6902F001020092009A4E
:10025C00DA6942F08052DA61DB6903F08053019372
:10026C00019B032000F064FF002211466FF00B008D
:10027C0000F07CFF002211466FF00A0000F076FFC0
:10028C00002211466FF0090000F070FF00221146A9
:10029C006FF0040000F06AFF002211466FF00300BB
:1002AC0000F064FF002211466FF0010000F05EFFC9
:1002BC00002211464FF0FF3000F058FF054A5368FA
:1002CC0023F0E06343F00073536003B05DF804FB6C
:1002DC00001002400000014010B504460E4B187887
:1002EC004FF47A73B3FBF0F30C4A1068B0FBF3F0E5
:1002FC0000F098FF68B90F2C01D901200AE0002208
:10030C0021464FF0FF3000F031FF054B1C60002000
:10031C0000E0012010BD00BF0A00002010000020EA
:10032C000C00002008B5074A136843F01003136053
:10033C00032000F0FDFE0020FFF7CEFFFFF77CFF4F
:10034C00002008BD00200240034A1168034B1B78B3
:10035C000B441360704700BF3C0000200A000020D3
:10036C00014B1868704700BF3C00002038B50446AC
:10037C00FFF7F6FF0546B4F1FF3F02D0044B1B78A4
:10038C001C44FFF7EDFF401BA042FAD338BD00BF61
:10039C000A00002082B0084B1B68084AA2FB03230A
:1003AC005B0A00FB03F0019000BF019B5A1E0192F7
:1003BC00002BF9D102B0704710000020D34D621011
:1003CC0070B582B0044678B3236813B113F00F0FE5
:1003DC0030D0236813F0010F46D063682BB1B3F50E
:1003EC00803F02D0B3F5A02F2AD1AC4B5B6803F051
:1003FC000C03042B2FD0A94B5B6803F00C03082BC8
:10040C0024D06368B3F5803F5BD0002B6FD103F130
:10041C00804303F504331A6822F480321A601A6898
:10042C0022F480221A6051E04FF4B8719C48FFF717
:10043C00F3FEC9E740F271119948FFF7EDFEC8E7EA
:10044C0040F277119648FFF7E7FECEE7934B5B68D7
:10045C0013F4803FD5D0914B1B6813F4003F03D0AD
:10046C006368002B00F02D82236813F0020F00F05C
:10047C008A802369012B63D863691F2B66D8874B4D
:10048C005B6813F00C0F6CD0844B5B6803F00C03AF
:10049C00082B61D02369002B00F09A80814B01223C
:1004AC001A60FFF75DFF05467C4B1B6813F0020FCB
:1004BC0040F08580FFF754FF401B0228F4D903203D
:1004CC0002E2764A136843F480331360636843B3E3
:1004DC00FFF746FF0546714B1B6813F4003FC3D171
:1004EC00FFF73EFF401B6428F5D90320ECE1B3F580
:1004FC00A02F09D0694B1A6822F480321A601A684E
:10050C0022F480221A60E1E703F18043A3F53C3327
:10051C001A6842F480221A601A6842F480321A6017
:10052C00D4E7FFF71DFF05465C4B1B6813F4003F37
:10053C009AD0FFF715FF401B6428F5D90320C3E1BF
:10054C0040F2AB115648FFF767FE95E74FF4D671B2
:10055C005348FFF761FE92E7504B5B6813F4803F02
:10056C0098D14E4B1B6813F0020F04D02369012B5A
:10057C0001D00120A8E1494A136823F0F80361690E
:10058C0043EAC1031360236813F0080F3BD0A3693F
:10059C00012B2FD8A369002B66D0434B01221A6084
:1005AC00FFF7DEFE05463D4B5B6A13F0020F27D1C9
:1005BC00FFF7D6FE401B0228F5D9032084E1374A09
:1005CC00136823F0F803616943EAC1031360DAE7A7
:1005DC00344B00221A60FFF7C3FE05462F4B1B68F5
:1005EC0013F0020FCFD0FFF7BBFE401B0228F5D94A
:1005FC00032069E14FF4F6712948FFF70DFEC9E7B6
:10060C000120FFF7C7FE236813F0040F00F0A5804C
:10061C00E368012B01D9052B38D1204BDB6913F092
:10062C00805F39D11D4BDA6942F08052DA61DB69A7
:10063C0003F080530193019B01251C4B1B6813F4A1
:10064C00807F35D0E368012B46D0002B5CD103F1C1
:10065C00804303F504331A6A22F001021A621A6A03
:10066C0022F004021A623CE00F4B00221A60FFF7E2
:10067C0077FE0546094B5B6A13F0020FC3D0FFF7F8
:10068C006FFE401B0228F5D903201DE140F21B210F
:10069C000348FFF7C1FDC0E70025CEE7001002407C
:1006AC00781400080000424280044242007000406E
:1006BC00874A136843F480731360FFF751FE0646B4
:1006CC00834B1B6813F4807FBCD1FFF749FE801B62
:1006DC006428F5D90320F7E07E4A136A43F001033E
:1006EC001362E36833B3FFF73BFE0646794B1B6A94
:1006FC0013F0020F2FD1FFF733FE801B41F288332A
:10070C009842F3D90320DFE0052B09D0714B1A6A0C
:10071C0022F001021A621A6A22F004021A62E0E75D
:10072C006C4B1A6A42F004021A621A6A42F0010215
:10073C001A62D6E7FFF714FE0646664B1B6A13F0E7
:10074C00020F08D0FFF70CFE801B41F28833984251
:10075C00F3D90320B8E0002D53D1E369022B56D80E
:10076C00E369002B00F0AF805A4A526802F00C0289
:10077C00082A00F0AB80022B40F08F80236A13B163
:10078C00B3F5803F49D1636A4BB3B3F5802F26D0C4
:10079C00B3F5002F23D0B3F5402F20D0B3F5801F35
:1007AC001DD0B3F5A01F1AD0B3F5C01F17D0B3F5E9
:1007BC00E01F14D0B3F5001F11D0B3F5101F0ED0ED
:1007CC00B3F5201F0BD0B3F5301F08D0B3F5401F85
:1007DC0005D0B3F5501F02D0B3F5601F23D13E4BAB
:1007EC0000221A60FFF7BCFD05463A4B1B6813F05C
:1007FC00007F1ED0FFF7B4FD401B0228F5D9032063
:10080C0062E0344AD36923F08053D361A5E740F208
:10081C00B9213248FFF700FDA2E740F2C2212F4870
:10082C00FFF7FAFCAFE740F2C3212C48FFF7F4FCCA
:10083C00D5E7236AB3F5803F1AD026494B6823F4D9
:10084C007413226A606A024313434B60224B0122E9
:10085C001A60FFF785FD04461E4B1B6813F0007FE2
:10086C0019D1FFF77DFD001B0228F5D903202BE0E1
:10087C00A36813B1B3F5003F07D1164A536823F4AC
:10088C000033A1680B435360D7E740F2D9211348DA
:10089C00FFF7C2FCF1E7002016E00F4B00221A60B4
:1008AC00FFF75EFD04460B4B1B6813F0007F06D070
:1008BC00FFF756FD001B0228F5D9032004E00020A9
:1008CC0002E0012000E0002002B070BD0120FBE737
:1008DC000070004000100240600042427814000892
:1008EC0010B487B0164C94E80F000DF1180C0CE9FD
:1008FC000F00238AADF80430124B5B6803F00C0236
:10090C00082A1AD1C3F38342624412F8102C13F450
:10091C00803F05D10C4800FB02F007B010BC7047BB
:10092C00084B5B68C3F34043634413F8143C07481B
:10093C0000FB02F0B0FBF3F0EFE70448EDE700BF7B
:10094C00581400080010024000093D0000127A0003
:10095C0070B50D460446C0B1236813F00F0F1AD0C2
:10096C00022D1ED8854B1B6803F00703AB421ED229
:10097C00824A136823F007032B431360136803F0B8
:10098C000703AB4213D0012070BD40F22E317C48DE
:10099C00FFF742FCE0E740F22F317948FFF73CFCCF
:1009AC00DEE74FF44C717648FFF736FCDAE7236844
:1009BC0013F0020F18D0A3687BB1802B0DD0902BB5
:1009CC000BD0A02B09D0B02B07D0C02B05D0D02B2F
:1009DC0003D0E02B01D0F02B34D16A4A536823F0BA
:1009EC00F003A1680B435360236813F0010F61D02F
:1009FC006368022B2CD86368012B2FD0022B34D0C8
:100A0C00604A126812F0020F00F0B6805D494A6825
:100A1C0022F0030213434B60FFF7A2FC0646636807
:100A2C00012B29D0022B36D0564B5B6813F00C0FE0
:100A3C0040D0FFF795FC801B41F288339842F3D9E4
:100A4C000320A1E740F249314D48FFF7E5FBC4E72D
:100A5C004FF454714A48FFF7DFFBCCE7494A126860
:100A6C0012F4003FD2D101208EE7464A126812F0F0
:100A7C00007FCBD1012087E7424B5B6803F00C036E
:100A8C00042B17D0FFF76CFC801B41F28833984283
:100A9C00F2D9032078E73B4B5B6803F00C03082B7F
:100AAC0008D0FFF75DFC801B41F288339842F2D9E5
:100ABC00032069E7314B1B6803F00703AB420CD9E9
:100ACC002E4A136823F007032B431360136803F0BB
:100ADC000703AB4201D0012056E7236813F0040F43
:100AEC0014D0E3685BB1B3F5806F08D0B3F5A06F99
:100AFC0005D0B3F5C06F02D0B3F5E06F30D1214A09
:100B0C00536823F4E063E1680B435360236813F0EC
:100B1C00080F15D023695BB1B3F5806F08D0B3F51E
:100B2C00A06F05D0B3F5C06F02D0B3F5E06F1DD147
:100B3C00144A536823F46053216943EAC103536098
:100B4C00FFF7CEFE0F4B5B68C3F303130E4AD35C67
:100B5C00D8400E4B18600020FFF7BEFB002013E7B7
:100B6C004FF469710648FFF757FBC8E740F2AB3109
:100B7C000348FFF751FBDBE7012005E700200240AB
:100B8C0078140008001002405815000810000020CE
:100B9C00014B1868704700BF100000202DE9F0438E
:100BAC0083B080460F46B64B984213D003F5806352
:100BBC0098420FD003F5806398420BD003F5806305
:100BCC00984207D003F58063984203D0CD21AD48FD
:100BDC00FFF722FB3B689AB212B11B0C1B041BB132
:100BEC00CE21A848FFF718FB7B68012B1ED9112BCF
:100BFC001CD0022B1AD0122B18D0A34A934215D01A
:100C0C0002F58012934211D002F5801293420DD05E
:100C1C00A2F5F812934209D002F58012934205D046
:100C2C0002F58012934201D0032B03D14FF000093F
:100C3C004E46D8E0CF219348FFF7EEFAF6E7002BAB
:100C4C005ED0012B05D1FB68013B022B65D8D7F890
:100C5C000C90FF2C00F296804046FF2C00F2958001
:100C6C00B20003680F21914023EA010309FA02F252
:100C7C00134303607B6813F0805F00F0B380834BF9
:100C8C009A6942F001029A619B6903F00103019396
:100C9C00019BB208911C7E4B53F8210006F0030314
:100CAC0099000F238B4020EA0300754B984572D0B6
:100CBC0003F58063984500F0CD8003F5806398457B
:100CCC0000F0CA8003F58063984562D0042363E08A
:100CDC00704A934214D00BD96F4A934210D002F54C
:100CEC00803293420CD0A2F580129342B1D107E02E
:100CFC00A2F58012934203D002F580329342A8D120
:100D0C00BB68022B2DD8BB68002B38D0012B2ED002
:100D1C00C8F814504FF008099BE7E5215948FFF734
:100D2C007BFA94E7EC215748FFF776FA8EE0FB68E4
:100D3C00013B022B03D8FB6803F1080989E7F32177
:100D4C005048FFF769FAF6E7FB68013B022B03D822
:100D5C00FB6803F10C097CE7FA214A48FFF75CFABF
:100D6C00F6E740F207114748FFF756FACBE7C8F809
:100D7C0010504FF008096CE74FF0000969E74FF08D
:100D8C00040966E708F1040067E7A6F1080292007F
:100D9C0067E7032300E000238B40034302323C4906
:100DAC0041F822307B6813F4803F57D03B4A1368DC
:100DBC00234313607B6813F4003F55D0374A5368C4
:100DCC00234353607B6813F4801F53D0334A9368DA
:100DDC00234393607B6813F4001F61D02F4AD368C0
:100DEC001C43D46001360F2E60D80125B5403C68F9
:100DFC002C40A542F6D1224B984513D003F58063C5
:100E0C0098450FD003F5806398450BD003F58063AC
:100E1C00984507D003F58063984503D0DD21194828
:100E2C00FFF7FAF97B68122B8ED03FF651AF022BED
:100E3C003FF47DAF7FF603AF032B9DD0112B7FF4D6
:100E4C0008AFFB68013B022B3FF66CAFFB6803F16C
:100E5C000409FEE601239FE702239DE70F4A13686E
:100E6C0023EA04031360A5E70C4A536823EA04033E
:100E7C005360A7E7094A936823EA04039360A9E740
:100E8C0000080140B01400080000111000100240CE
:100E9C00000001400000211000003110000401404E
:100EAC00044AD36823EA0404D4609BE703B0BDE88A
:100EBC00F08300BF0004014070B5064615460C4691
:100ECC0029B1012D09D875B92404346170BD40F2E3
:100EDC00E3110648FFF7A0F9F3E74FF4F27103486A
:100EEC00FFF79AF9EFE73461F0E700BFB0140008A0
:100EFC0038B505460C4621B940F2F9110348FFF705
:100F0C008BF9EB685C40EC6038BD00BFB014000896
:100F1C0070B4066CC56B0124B4406C6004686360EB
:100F2C004368102B05D0036899600368DA6070BCC5
:100F3C00704703689A600368D960F8E7002800F0EE
:100F4C009D8010B5044603684D4A934215D0143267
:100F5C00934212D0143293420FD0143293420CD0DD
:100F6C001432934209D01432934206D01432934275
:100F7C0003D0AA214348FFF74FF9636823B1102B24
:100F8C0002D0B3F5804F56D1A368402B01D0002B73
:100F9C0056D1E368802B01D0002B56D123692BB19D
:100FAC00B3F5807F02D0B3F5007F53D163692BB1C9
:100FBC00B3F5806F02D0B3F5006F50D1A3690BB1BC
:100FCC00202B51D1E36943B1B3F5805F05D0B3F564
:100FDC00005F02D0B3F5405F4BD122682A4B13441B
:100FEC002A49A1FB03131B099B002364284BE363D1
:100FFC00022384F82130116821F47F5121F0300153
:10100C006368A0680343E068034320690343606995
:10101C000343A0690343E06903430B4313600020BF
:10102C00A062E06220636063A063012384F8213036
:10103C0084F8200010BDAB211248FFF7EDF8A3E7B0
:10104C00AC211048FFF7E8F8A3E7AD210D48FFF7F6
:10105C00E3F8A3E7AE210B48FFF7DEF8A6E7AF21D4
:10106C000848FFF7D9F8A9E7B0210648FFF7D4F8EC
:10107C00A8E7B1210348FFF7CFF8AEE7012070478E
:10108C0008000240E8140008F8FFFDBFCDCCCCCC22
:10109C0000000240F8B504460E4617461D465A1E7F
:1010AC004FF6FE739A420FD894F82030012B3AD0A9
:1010BC00012384F8203094F82130012B0AD000232E
:1010CC0084F820300220F8BD4FF4C0711748FFF7A8
:1010DC00A3F8E9E7022384F821300023A3632268F4
:1010EC00136823F0010313602B463A463146204621
:1010FC00FFF70EFFE36A5BB12268136843F00E033F
:10110C0013602268136843F0010313600020DAE7D0
:10111C002268136823F0040313602268136843F0F9
:10112C000A031360EDE70220CDE700BFE8140008C6
:10113C0010B50446C31E042B0FD80A4AD36823F4F7
:10114C00E0631B041B0C240204F4E064234343F00F
:10115C00BF6343F40033D36010BDA2210248FFF7F4
:10116C005BF8EAE700ED00E02015000870B50546D5
:10117C000C4616460F2A25D80F2C28D81B4BDB689B
:10118C00C3F30223C3F10702042A28BF0422191D4A
:10119C00062921D9033B4FF0FF3101FA02F224EA70
:1011AC0002049C4001FA03F326EA03063443002DA3
:1011BC0014DB2401E4B205F1604505F5614585F8C1
:1011CC00004370BDBA210A48FFF726F8D4E7BB21CB
:1011DC000748FFF721F8D1E70023DCE705F00F05FE
:1011EC002401E4B2034B5C55EBE700BF00ED00E0DB
:1011FC002015000814ED00E010B5041E08DB04F007
:10120C001F02640901239340044A42F8243010BDA4
:10121C00CE210348FFF700F8F1E700BF00E100E042
:10122C00201500080138B0F1807F0AD2064B5860B7
:10123C00064AF02182F823100020986007221A60D9
:10124C0070470120704700BF10E000E000ED00E0A7
:10125C0010B50446042800D038B9042C0BD0094A28
:10126C00136823F00403136010BD40F2D911064833
:10127C00FEF7D2FFF1E7034A136843F0040313604F
:10128C00F2E700BF10E000E020150008704708B539
:10129C00FFF7FCFF08BD00000F4B1A6842F001027B
:1012AC001A6059680D4A0A405A601A6822F0847212
:1012BC0022F480321A601A6822F480221A605A686A
:1012CC0022F4FE025A604FF41F029A60044B4FF056
:1012DC0000629A60704700BF001002400000FFF8E7
:1012EC0000ED00E010B586B0144B9A6942F0100284
:1012FC009A619A6902F010020092009A9A6942F07F
:10130C0004029A619B6903F004030193019B0C4C4A
:10131C0000224FF400512046FFF7CEFD4FF400534E
:10132C00029301230393002304930223059302A940
:10133C002046FFF733FC06B010BD00BF0010024082
:10134C000010014000B583B0114B5A6942F0010204
:10135C005A615B6903F001030193019B0D480E4B2D
:10136C0003604FF480434360402383608023C36059
:10137C000023036143618361C361FFF7DFFD10B993
:10138C0003B05DF804FB4C210448FEF7E3FEF7E7DD
:10139C0000100240400000200800024068150008C0
:1013AC00002103E00B4B5B58435004310A480B4BB4
:1013BC0042189A42F6D30A4A02E0002342F8043B50
:1013CC00084B9A42F9D3FFF767FF00F00FF8FEF7CE
:1013DC00FDFE70477C150008000000201400002062
:1013EC001400002084000020FEE7000070B50025EA
:1013FC000C4E0D4CA41BA410A54209D100F01AF8F8
:10140C0000250A4E0A4CA41BA410A54205D170BDA0
:10141C0056F8253098470135EEE756F825309847B1
:10142C000135F2E7741500087415000874150008EE
:10143C0078150008F8B500BFF8BC08BC9E4670478C
:0C144C00F8B500BFF8BC08BC9E46704715
:1014580002030405060708090A0B0C0D0E0F1010ED
:10146800010200005372632F6D61696E2E630000E4
:10147800447269766572732F53544D33324631780E
:10148800785F48414C5F4472697665722F53726386
:101498002F73746D3332663178785F68616C5F7270
:1014A80063632E6300000000447269766572732FCF
:1014B80053544D3332463178785F48414C5F44721B
:1014C800697665722F5372632F73746D3332663188
:1014D80078785F68616C5F6770696F2E63000000E1
:1014E800447269766572732F53544D33324631789E
:1014F800785F48414C5F4472697665722F53726316
:101508002F73746D3332663178785F68616C5F640D
:101518006D612E6300000000447269766572732F56
:1015280053544D3332463178785F48414C5F4472AA
:10153800697665722F5372632F73746D3332663117
:1015480078785F68616C5F636F727465782E63008A
:10155800000000000000000001020304060708095B
:0C1568005372632F646D612E630000005D
:041574003101000839
:041578000D01000859
:10157C000001020304050607080901001000000021
:04158C0000A24A046B
:04000005080013AD2F
:00000001FF
